:020000040000FA
:0400000080316D28B6
:100008007E148031200029082A0403190C280D28A1
:100018001F286930A5002508AC002908303EA50036
:100028002508AC00AD012B30A0000030A1008B31B9
:10003800B22380311F288F31392780317108200081
:10004800AF007008AE002E082F0403192C282D28A5
:100058003F287530A5002508A6002E08303EA500CB
:100068002508A700A8012630A0000030A1008B3188
:10007800B22380313F282000111C432844286028DF
:100088000130A5002508CC07111007304C06031DC8
:100098004E284F2854284C30970083309600542817
:1000A80008304C06031D59285A286028CC018A318B
:1000B800EF228031602860280B1D632864286B2894
:1000C8000B1101302000A5002508D8076B287E10E9
:1000D800090080316F28763084008A3085005D30D1
:1000E80086000030870003308A31A9228031B5307C
:1000F80084008A308500453086000130870006304C
:100108008A31A9228031AF3084008A308500C93015
:1001180086000130870006308A31A92280314630B6
:1001280084000030850017308A31A32280312100F5
:10013800E901EA013A308400013085000B308A3148
:10014800A3228031A03084000130850029308A3113
:10015800A3228031203084000230850046308A3165
:10016800A3228031A03084000230850032308A31E9
:10017800A322803120308400033085004B308A313F
:10018800A32280317E1020008031CA282300A001DC
:100198002200A401A501A601A70120302000B0007B
:1001A8000330B1000030B200B3004B30B40000306F
:1001B800B5008431BE248031783021009904FC30A8
:1001C80099058B132200B601B701B801AF01B90137
:1001D800AE01AE0AAC01AD01B001B101B201B3018B
:1001E800B401B50120008C013F30980598113030DA
:1001F800980418111814210011141508F839023838
:100208009500951295118B1220008D0123008D0108
:100218000F3021008D000F3024008D002100951330
:100228008A31FC2280318B178F319C2780318A31AB
:100238008622803103302100E8000830E70077305B
:10024800890B2429E70B2429E80B24298A31CE229B
:10025800803103302100E8000830E7007730890B4F
:100268003329E70B3329E80B33298A31D922803126
:1002780003302100E8000830E7007730890B422975
:10028800E70B4229E80B42298A31BB22803103302F
:100298002100E8000830E7007730890B5129E70B87
:1002A8005129E80B51298A31E42280310330210099
:1002B800E8000830E7007730890B6029E70B6029F0
:1002C800E80B60292200A801A90123004C0822009C
:1002D800A30023004B082200A20023004A082200A2
:1002E800A100230049082200A000AA01AB018A311D
:1002F800862280318A31BB2280319C302100E70080
:10030800D730890B8529E70B852923009D171D16F2
:100318009D111D1315302100E8004B30E700BE3059
:10032800890B9429E70B9429E80B942900009C2950
:1003380082317D22803101302200AC070030AD3D92
:1003480030302100E70067082000B0003830210075
:10035800E80068082000B1000D0801398D31212519
:10036800803132302100E70067082000B0003630C5
:100378002100E80068082000B1000D0C01398D311A
:100388002125803134302100E70067082000B000C3
:1003980037302100E80068082000B1000D0C890CF6
:1003A80001398D312125803122003603031DDD29D5
:1003B800DE29092AAE01AE0AB601F429092A23006A
:1003C8004D08013ECD0000304E3DCE00092A092AD5
:1003D80001302100E70067082200B907092A092A25
:1003E80039082100E700E8016808003A0319FD29E7
:1003F800EC296708803A0319092A013A0319E32905
:10040800033A0319092AEC29092A22003703031D94
:100418000E2A0F2A3E2AAE01AE0AB7018A31862279
:1004280080318A31BB228031282A3E2A23004D0898
:10043800FF3ECD00FF304E3DCE003E2A3E2A013021
:100448002200B9023E2A3E2A220039082100E7008C
:10045800E8016808003A0319322A232A6708803A13
:1004680003193E2A013A03191A2A033A03193E2AA4
:10047800232A3E2A22003803031D432A442A602ADD
:10048800AE01AE0AB8012F08031D4B2A4C2A592A7F
:10049800AF01AF0A3908803E2100E7006708220053
:1004A800B9008A317D228031602A8A3181228031E7
:1004B8002200AF01602A602A2200390A031D652A3A
:1004C800662A6F2AAE01AE0A02302100E7006708EB
:1004D8002200B9006F2A03303906031D742A752AD1
:1004E8009C29AE01AE0AB9019C299C299C2980311E
:1004F8006D28822BBC2A0E302100AE002E08220067
:10050800C20011302000BD009030BE008D31BD25E5
:10051800823111302000BC009030BD00220042081A
:100528002100AE002E082000BE008B318B238231C3
:10053800D42A43302100A0009030A1002A30A20024
:100548009030A3000530AE002E08A400A501A50A2E
:1005580083319E23823121002008AF002F0822001A
:10056800C200D42AD42A2200CA01CA0AD42AD42A08
:10057800220049082100AE00AF012F08003A0319F4
:10058800C62AB72A2E08003A03197F2A013A031906
:100598009D2A033A0319D42A013A0319B72AB72A1C
:1005A800220042080319D92ADA2AE12A0330210055
:1005B800AE002E082200CA009D2BCA01CA0A9D2B34
:1005C8009D2B2200C30104302100AE002E0822001A
:1005D800CA009D2B8A317922823122004406031DEC
:1005E800F62AF72A102B44080319FB2AFC2A102B99
:1005F80001302100AE002E082200C3070A3043064E
:10060800031D072B082B9D2B05302100AE002E085B
:100618002200CA009D2B9D2B8A317922823121002C
:10062800AE002E082200C400C3019D2B9D2B8A31E9
:1006380079228231003A0319222B232B9D2B31304A
:100648002100AE002E082000BC00E6302100AF00DB
:100658002F082000BD00B0308C31E1248231210008
:100668006608B03E8600870181013C302000B0005A
:100678009030B1000730B2000030B30021006608A6
:10068800FA3EB03E8D316D258231200030083104AC
:10069800031D4F2B502B722B4A30C1009030C200E3
:1006A8008C313824823121006608AE002E082000E3
:1006B800B900E23085318F2582312000C100003039
:1006C800C2008C31382482312200CA01CA0A0330A0
:1006D8002100AE002E082200C9009D2B33302000D7
:1006E800C1009030C2008C31382482312200CA0106
:1006F8009D2B9D2B9D2B9D2B9D2B9D2B22004A08CE
:100708002100AE00AF012F08003A03198C2B9D2B56
:100718002E08003A0319BC2A013A03199D2B023A04
:100728000319E52A073A0319EE2A013A03191B2B84
:100738009D2B08000C30210024020318A42BA52BA4
:10074800ED2B00302000B0009030B1008B314223F7
:100758008331200030082100A60020003108210044
:10076800A70021082000B100210020082000B000C7
:100778008B31422383312000300821002607A8004E
:10078800200031082100273DA90023082000B100DE
:10079800210022082000B0008B3142238331200041
:1007A800300821002807AA00200031082100293D2F
:1007B800AB002A08033EAC0000302B3DAD000030F2
:1007C8002D02473003192C02031CEB2BEC2BF22BC8
:1007D800ED2BA001A101BD2CBD2CBD2C1F3020008C
:1007E800B6009030B700A0308B31662383312100EA
:1007F80021082000BF00210020082000BE00A030F2
:100808008B31292383315A302000BE009030BF003D
:10081800A0308B3129238331210023082000BF0019
:10082800210022082000BE00A0308B31292383310B
:100838005E302000BE009030BF00A0308B312923ED
:1008480083310A3021002402031C2B2C2C2C682C09
:100858000A302000B0000030B10021002408A600B2
:10086800A70126082000B200210027082000B300B5
:1008780087316827833120003008303E2100A800E6
:1008880028082700E6000A302000B0000030B10038
:1008980021002408A600A70126082000B200210094
:1008A80027082000B3008E31192683312000300834
:1008B8002100A8002808A4002408303EA600260825
:1008C8002700E700E801712C21002408303EA6002B
:1008D80026082700E600E701712CE6302000BE005C
:1008E8000330BF00A0308B31292383312100250834
:1008F800031D7F2C802C8A2C55302000BE009030A0
:10090800BF00A0308B3129238331942C5030200034
:10091800BE009030BF00A0308B3129238331942C46
:10092800A0302000B0000330B1008B314223833166
:10093800200031082700EA00200030082700E900DD
:10094800A0302000BC000330BD002700690821004A
:10095800A60026082000BE008B318B238331270098
:100968006A082100A100270069082100A000BD2C09
:10097800BD2C080020003108BD003008BC00340838
:100988003504031DC82CC92CCB2C8E2D8E2D3C086C
:1009980086003D088700320881003408FF3EB60013
:1009A800FF30353DB70036083C07B80037083D3DF5
:1009B800B9003808860039088700320881000030FD
:1009C80035020330031934020318EB2CEC2CEE2CFF
:1009D8008E2D8E2D3C08013EB60000303D3DB700FF
:1009E8003608860037088700320881003C08023E36
:1009F800B60000303D3DB70036088600370887004E
:100A0800320881003408FE3EB600FF30353DB7009D
:100A180036083C07B80037083D3DB900380886005D
:100A280039088700320881003408FD3EB600FF30DF
:100A3800353DB70036083C07B80037083D3DB900DA
:100A480038088600390887003208810000303502EE
:100A58000730031934020318322D332D352D8E2D0E
:100A68008E2D3C08033EB60000303D3DB7003608E9
:100A7800860037088700320881003408FC3EB6003B
:100A8800FF30353DB70036083C07B80037083D3D14
:100A9800B90038088600390887003208810000301C
:100AA800350209300319340203185B2D5C2D5E2DC5
:100AB8008E2D8E2D3C09B6003D09B700B60A0319E4
:100AC800B70A03303605BA0000303705BB003A08CC
:100AD800BC073B08BD3D3A08B4023B08B53BFC30B7
:100AE800B405FF30B505872D3C0886003D08870012
:100AF800320881000130B4020030B53B0130BC0738
:100B08000030BD3D872D34083504031D8C2D8D2DF7
:100B1800782D8E2D08002000C0000A30B00000306B
:100B2800B1003908BA00BB013A08B2003B08B3006B
:100B38008E311926853120003008BC003C08BF00E2
:100B48000A30B0000030B1003908BA00BB013A08D9
:100B5800B2003B08B3008731682785312000300890
:100B6800BC003C08B9000A30B0000030B1003908B8
:100B7800BA00BB013A08B2003B08B3008E3119260F
:100B8800853120003008BC003C08BE000A30B000A7
:100B98000030B1003908BA00BB013A08B2003B087E
:100BA800B30087316827853120003008BC003C0835
:100BB800B9003908BA003A08BD003D080319E52D07
:100BC800E62D052E3D08303EBA0040088600870114
:100BD8003A0881003E08303EBA00400A8600870184
:100BE8003A0881003F08303EBA004008023E8600BD
:100BF80087013A0881004008033E86008701810189
:100C08002E2E3E080319092E0A2E202E3E08303EAD
:100C1800BA004008860087013A0881003F08303E44
:100C2800BA00400A860087013A0881004008023E5F
:100C38008600870181012E2E3F08303EBA00400809
:100C4800860087013A088100400A860087018101F1
:100C58002E2E2E2E4008302E08002000BC000D300D
:100C68003C06031D382E392E3B2ECF2ECF2E8A312F
:100C78009722863120000C148C100A303C06031D84
:100C8800462E472E992E14305A0203184C2E4D2EFC
:100C9800532EB50101308E3177268631CF2E28307C
:100CA80020005A020318592E5A2E602EB501023020
:100CB8008E3177268631CF2E3C3020005A02031819
:100CC800662E672E6D2EB50103308E31772686315C
:100CD800CF2E2000B50100308E3177268631CF2EF9
:100CE800CF2ECF2ECF2ECF2E992E2000B50101303A
:100CF8008E3177268631B02E2000B50102308E3134
:100D080077268631B02E2000B50103308E31772644
:100D18008631B02E2000B50100308E31772686311D
:100D28002000DA01B02EB02EB02E20005A08BA00EA
:100D3800BB013B08003A0319A22EB02E3A08143A18
:100D48000319792E3C3A0319802E143A0319872E79
:100D58006C3A03198E2EB02E8731D22786318A310C
:100D68009722863120000C148C103C08BA000430FD
:100D7800BA36890BBC2E3A088C31A524863120005E
:100D88003C088C31A5248631003200320130200025
:100D9800BA003A08DA070800FC000D307C06031D8B
:100DA800D62ED72ED92E672F672F8A318B228631E0
:100DB80020000C148C100A307C06031DE42EE52E4E
:100DC800322F14305A020318EA2EEB2EF12EF501B9
:100DD80001308E31D7268631672F283020005A02FD
:100DE8000318F72EF82EFE2EF50102308E31D72685
:100DF8008631672F3C3020005A020318042F052F34
:100E08000B2FF50103308E31D7268631672FF50178
:100E180000308E31D7268631672F672F672F672FCF
:100E2800672F322FF50101308E31D7268631492FB1
:100E3800F50102308E31D7268631492FF50103306E
:100E48008E31D7268631492FF50100308E31D726CD
:100E580086312000DA01492F492F492F20005A08EE
:100E6800FA00FB017B08003A03193B2F492F7A0847
:100E7800143A0319162F3C3A03191C2F143A031974
:100E8800222F6C3A0319282F492F8B31DD23863105
:100E98008A318B22863120000C148C107C08FA00D1
:100EA8000430FA36890B552F7A088C31692486313B
:100EB8007C088C3169248631003200320130FA0016
:100EC8007A082000DA0708002000B601B11F6D2F4C
:100ED8006E2F762FB009B109B00A0319B10AB6010D
:100EE800B60A762FB31F792F7A2F842FB209B30948
:100EF800B20A0319B30A0130B4003408B606842FC5
:100F0800B701B8013008310403198B2F8C2FC12F7A
:100F1800B501B50A992F0130B035B10D890B902F65
:100F28000130B4003408B507992FB11F9C2F9D2FAD
:100F38008F2F9F2F9F2F0130B735B80D890BA02F0A
:100F480031083302031DAA2F30083202031CAD2FCB
:100F5800AE2FB42F3008B2023108B33B3714B42F88
:100F68000130B136B00C890BB52F0130B502031D25
:100F7800BE2FBF2F9F2FC12FC12F36080319C52F92
:100F8800C62FCC2FB709B809B70A0319B80ACC2F4E
:100F98003808B1003708B000D12F080020000C1025
:100FA8008C148A319D22873101302000B300003033
:100FB800B400F62F0C150032003220000C0CB000E3
:100FC800B00C300C0139B100B2013108B30032085D
:100FD800B4000C11003200320032003220000C152F
:100FE800003200322000330334040319FC2FFD2F94
:060FF800DE2FFE2F0800B1
:1014EC00143414340334200050087C2A08002200E1
:1014FC00CA01C90108002200CA01C901C90A0800B1
:10150C0001308A31C3228A31080021008C110E115E
:10151C008E100E10080021008C150E158E140E1452
:10152C00080021008C110E118E100E1008002100E5
:10153C008C150E158E140E140800640080010131F8
:10154C00890BA42A0034FE0012001E00FE0BAA2AEE
:10155C0000342B34003478340034D2340034B834B2
:10156C000334003404340334013402308A31C3228E
:10157C008A312000DA01DA0A08002000B500873130
:10158C00D2278A31200035088B3111238A3108008B
:10159C0020005C080438B6003608DC005C088A3190
:1015AC00C3228A31080020005C08FD39B6003608D9
:1015BC00DC005C088A31C3228A31080020005C08F8
:1015CC00FE39B6003608DC005C088A31C3228A3149
:1015DC000800053020005906031DF52AF62AFB2ABF
:1015EC00D901FB2AFB2AFB2AFB2A080023000E1335
:1015FC008E1321000E138E172000D00123009C01A6
:10160C0001309B000E139E161E129D172100111601
:10161C0091160B1708002000B4008A3197228B31E9
:10162C0020000C108C103408B3000430B336890B36
:10163C001C2B33088C31A5248B31200034088C31C1
:10164C00A5248B3108002000C2003F08B7003E08DB
:10165C00B6004208B0000330B1008B3142238B310D
:10166C0020003008C0003108C100420840078B310F
:10167C0066238B31412B080020003108B50030085F
:10168C00B4004D2B0130B0070030B13D4D2B30086C
:10169C008400310885001200031D552B562B482B56
:1016AC00572B3409B2003509B300B20A0319B30A37
:1016BC0030083207B0003108333DB100652B08000B
:1016CC002000BD003708BB003608BA003D08B80042
:1016DC003808BC00722B722B3C0886000330870044
:1016EC00BC0A3B08B9003A08B800BA0A0319BB0A8D
:1016FC0038088400390885000008C03F8908031D9C
:10170C00882B892B722B8A2B080020004E0803197A
:10171C00902B912B932BB12BB12B32303E02031813
:10172C00982B992BB12BCF013E08BF003F08CE0060
:10173C00A030B0000230B1003D08B3003C08B2004C
:10174C003E08BF00C0013F08B4004008B5008C3112
:10175C0009248B31B12B0800FD01CA2B2000210874
:10176C00A3002008A2007D08220784002308031888
:10177C00230A850000088631D0268B3101302000E9
:10178C00A2002208FD07CA2B20002108A300200874
:10179C00A2007D082207840023080318230A850071
:1017AC001200031DDA2BDB2BB42BDC2B08002000E2
:1017BC000C108C148A3191228B310130F3000030E3
:1017CC00F400012C20000C150032003220000C0C0F
:1017DC00F000F00C700C0139F100F2017108F3000B
:1017EC007208F4000C11003200320032003220007A
:1017FC000C1500320032730374040319062C072CE9
:10180C00E82B082C080020003308BB003208BA0073
:10181C003108B9003008B8002A2C3A0884003B087B
:10182C0085000008B6003608B7000130BA07003052
:10183C00BB3D380886003908870037088100013025
:10184C00B8070030B93D2A2C0130B4020030B53B4A
:10185C00340A031D352C350A031D352C362C132C5C
:10186C00372C08002100A001542C20004208C40091
:10187C004108C300210020082000430784004408CD
:10188C000318440A85000008863131268C3101305A
:10189C002000C30043082100A007542C200042085C
:1018AC00C4004108C3002100200820004307840025
:1018BC0044080318440A85001200031D662C672C8B
:1018CC003B2C682C0800F20020000C157208F0006C
:1018DC000330F036890B6F2C70080139F100F10DD3
:1018EC00F10DF10D0C087106F73971068C007208B8
:1018FC00F0000230F036890B802C70080139F100B1
:10190C00F10DF10D0E087106FB3971068E00723661
:10191C000139F000F00D0E087006FD3970068E00CE
:10192C0001307205F0000E087006FE3970068E004C
:10193C000032003220000C1100320032080020006E
:10194C00B2000C153208B0000330B036890BAB2C4A
:10195C0030080139B100B10DB10DB10D0C083106D3
:10196C00F73931068C003208B0000230B036890BE2
:10197C00BC2C30080139B100B10DB10D0E08310687
:10198C00FB3931068E0032360139B000B00D0E082D
:10199C003006FD3930068E0001303205B0000E08DD
:1019AC003006FE3930068E000032003220000C1159
:1019BC000032003208002000C0003C08500203181E
:1019CC00E82CE92C032D5008BE003D088600870149
:1019DC003E0881004008B0000030B1003430B20045
:1019EC000230B3005008BE00BF013E08B4003F08EF
:1019FC00B5008C3109248C311E2D20003C08BE0012
:101A0C003D08860087013E0881004008B000003088
:101A1C00B1003430B2000230B3003C08BE00BF014C
:101A2C003E08B4003F08B5008C3109248C311E2DC2
:101A3C002000D00108002000B4003408031D272D1D
:101A4C00282D322D300886000130870001308107A7
:101A5C0041310318810A3A2D300886000130870085
:101A6C000030C03FC13F3A2D30088600013087005E
:101A7C001600D03AB2001600073AB204031D472DE7
:101A8C00482D4F2D31088600013087008101810AD5
:101A9C004F2D30088600013087001600403AB20006
:101AAC0016001F3AB204031D5C2D5D2D6C2D300801
:101ABC00860001308700D130C03F0730C13F31086C
:101ACC008600013087008101810A6C2D08002000FE
:101ADC00B6003608B4003408B9003108B800300834
:101AEC00B700842D0130B2020030B33B0130B4009A
:101AFC003408B9070130B7070030B83D3208330459
:101B0C000319892D8A2D9B2D3708840038088500F0
:101B1C000008B4003908860087010108340603194F
:101B2C00982D992D782D9B2D9B2D32083304031D58
:101B3C00A02DA12DA42DB001B101BC2D370884001E
:101B4C00380885000008B400B501B409B509B40A19
:101B5C000319B50A39088600870101083407B0005B
:101B6C0035080318350AB100BC2DBC2D0800200027
:101B7C00C301072EE52D2F30863131268D31723081
:101B8C00863131268D31012E2F30863131268D3123
:101B9C006E30863131268D31012E20003E08C0007A
:101BAC003D08BF0043083F07840040080318400A63
:101BBC0085000008863131268D31012E012E200042
:101BCC003E08C0003D08BF0043083F0784004008A2
:101BDC000318400A85000008C100C2014208003AFF
:101BEC000319F92DD32D41080A3A0319CA2D073AC6
:101BFC000319C12DD32D01302000BF003F08C307AE
:101C0C00072E3E08C0003D08BF0043083F07840074
:101C1C0040080318400A85001200031D162E172ECB
:101C2C00E52D182E08002000B601B31F1E2E1F2E06
:101C3C00272EB209B309B20A0319B30AB601B60AC0
:101C4C00272EB11F2A2E2B2E312EB009B109B00A26
:101C5C000319B10A312E300831040319362E372EF0
:101C6C00662EB501B50A442E0130B035B10D890B85
:101C7C003B2E0130B4003408B507442EB11F472E5B
:101C8C00482E3A2E4A2E4A2E31083302031D502E6E
:101C9C0030083202031C532E542E592E3008B20237
:101CAC003108B33B592E0130B136B00C890B5A2E8A
:101CBC000130B502031D632E642E4A2E662E662E4D
:101CCC00360803196A2E6B2E712EB209B309B20AAB
:101CDC000319B30A712E3308B1003208B000762E06
:101CEC0008002000B800B901A72E3508B600360848
:101CFC00B9003508B6003608DA00BD2E3508403E6E
:101D0C00B6003608B9003508143EB6003608DA00BD
:101D1C00BD2E3508143EB6003608B9003508283EED
:101D2C00B6003608DA00BD2E3508543EB60036082B
:101D3C00B90035083C3EB6003608DA00BD2EBD2E83
:101D4C00BD2E3808B600B7013708003A0319AF2E7C
:101D5C00BD2E3608003A03197B2E013A0319842E46
:101D6C00033A03198F2E013A03199A2EBD2E87318F
:101D7C00D2278E318A3197228E3120000C108C1094
:101D8C003908B6000430B636890BC92E3608083827
:101D9C008C31A5248E31200039088C31A5248E314C
:101DAC000800F800F9010A2F7508F6007608F9000A
:101DBC007508F60076082000DA00202F7508403EE2
:101DCC00F6007608F9007508143EF6007608200037
:101DDC00DA00202F7508143EF6007608F900750815
:101DEC00283EF60076082000DA00202F7508543EB5
:101DFC00F6007608F90075083C3EF60076082000DF
:101E0C00DA00202F202F202F7808F600F701770812
:101E1C00003A0319122F202F7608003A0319DA2EF4
:101E2C00013A0319E42E033A0319F02E013A03196F
:101E3C00FC2E202F8B31DD238E318A318B228E317B
:101E4C0020000C108C107908F6000430F636890B43
:101E5C002C2F760808388C3169248E3179088C3116
:101E6C0069248E3108002000111E3D2F3E2F582F63
:101E7C004E084F020318432F442F522F4F08A03EF9
:101E8C00860002308700010823009A000130F2001E
:101E9C0072082000CF07582FCF01CE01210011125C
:101EAC00582F582F2000911E5C2F5D2F932F23004D
:101EBC001D19612F622F672F9D1C652F662F762FA2
:101ECC00672F1D0C0139F2000130F235890B6B2F95
:101EDC001D0C890C01397207F3007308F400932F61
:101EEC0032302000500203187C2F7D2F8D2F2300C1
:101EFC001908F20020005008343E8600023087009A
:101F0C00720881000130F2007208D007932F033061
:101F1C00F2007208F400932F932F7408F200F3016F
:101F2C007208F0007308F1009B2F080023008C113D
:101F3C000E118E100E100C108C100C1120008C1128
:101F4C000E118E100E100C108C100C1121000C1098
:101F5C008C100C118C110E118E100E1020000C1008
:101F6C008C100C114E302000B600EB30890BBC2FBE
:101F7C00B60BBC2F03308C31A5248F311A302000C6
:101F8C00B600F830890BC82FB60BC82F00000330F1
:101F9C008C31A5248F31C830890BD22F03308C3172
:101FAC00A5248F310D30890BD92F000002308C31D4
:101FBC00A5248F310D30890BE12F000028308A3198
:101FCC00C3228F310F302000B6003608DC000630FB
:101FDC00B6003608DB005C088A31C3228F318A31A7
:101FEC0086228F3106308A31C3228F312000DA01EC
:101FFC00DA0A0800413454342B3443345734533404
:10200C00413450343D34223422342C3422342234A2
:10201C002C342C340034413454342B344334573462
:10202C004D344F34443445343D3432340D340A3459
:10203C000034413454342B34433457345334413406
:10204C0050343D342234003431343234333434346B
:10205C0035343634373438340034523465347434CF
:10206C007234793469346E34673400340D340A3484
:10207C004F344B340D340A3400344D3465346334EE
:10208C0063346F34733400344F344B342134203484
:10209C003A3400342C3430340D340A3400342C34BB
:1020AC0031340D340A34003422342C3422340034CC
:0620BC0022342C34003434
:020000040001F9
:04000E0082C7FFDDC9
:00000001FF
