:020000040000FA
:0400000081319C2985
:100008007E1480312000911D0A280B285229911155
:10001800550803191028112852292100271C1528D2
:100028001628D2282400141E1A281B28212821004B
:1000380091112000D501D3015229941D2428252887
:100048003B2820005308031D2A282B283B28530847
:10005800A73E860087010108240091002100A6011F
:10006800A60A01302000AF002F08D3075229240028
:10007800141C3F284028912811082000AF00580878
:10008800343E8600013087002F0881000130AF0020
:100098002F08D80724001410200054085802031809
:1000A800562857285A28240096128E282400961677
:1000B800220037082000AF00B001220036082000D7
:1000C800B100B2013108B200B1012F083107210097
:1000D800A20020003008323D2100A3002200390888
:1000E8002000AF00B001220038082000B100B201A2
:1000F8003108B200B1012F0831072100A00020000B
:100108003008323D2100A10001302000AF002F0847
:10011800D7078E28240016165229161B94289528CE
:10012800AC282000530803199A289B28AC285408A7
:1001380058020318A028A128A8284230890BA22811
:1001480000322400961552292400161552295229E6
:100158002400161FB028B128BF2816132000530802
:100168000319B728B828BB282400161552292400DB
:100178001615522952294B302000AF002F08A50030
:100188005C30A6009030A700A0308D314F2580311B
:100198005229522952295229522952292400141E1F
:1001A800D628D728E428210091112000D501D301B1
:1001B8006230A0009030A1008C31CB2480315229CC
:1001C800941DE728E828062920005308031DED2878
:1001D800EE2806296630A0009030A1008C31CB248F
:1001E80080312100A601A60A20005308A73E8600F8
:1001F800870101082400910001302000AF002F087A
:10020800D30752292400161B0A290B293629200056
:10021800530803191029112936296030A00090309D
:10022800A1008C31CB2480312000550853020318DB
:100238001E291F292C295308A73E8600870101087B
:100248002400910001302000AF002F08D307522965
:100258002400161502302000AF002F082100A60048
:10026800522952292400161F3A293B2952291613CC
:10027800161503302000AF002F082100A6006430B7
:100288002000A0009030A1008C31CB24803152296D
:100298005229522952295229522952292000921DA5
:1002A80056295729652992114B30AF002F08A50010
:1002B8005530A6009030A700A0308D314F258031F1
:1002C80065292000111C69296A298E290130AF008F
:1002D8002F08D007111007305006031D74297529FF
:1002E8007A294C309700833096007A2908305006D6
:1002F800031D7F2980298E29D001D101D10A06301A
:1003080021002406031D89298A298E29A4018E2902
:100318008E298E290B1D912992299A290B110130BA
:100328002000AF002F082100A5079A297E10090098
:1003380081319E2921008B3100238131C1008B310D
:1003480001238131C2008B3102238131C3008B31FB
:1003580003238131C4004D308400003085000F3004
:100368008731FA278131A0308400003085001B30A6
:100378008731FA27813120308400013085003230FE
:100388008731FA278131A0308400013085004B3055
:100398008731FA2781317E1020008131D32924004A
:1003A800BD01BE01BF01C001A0302000B400013072
:1003B800B5000030B600B7004B30B8000030B900C7
:1003C8008431B124813178302100990403309904B3
:1003D8008B132400CA01CB01C101CC01BC01BC0AAA
:1003E800BA01BB01C201C301C401C501C601C701ED
:1003F80020008C013F30980598113030980418116E
:100408001814210011141508F839023895009512AE
:1004180095118B1220008D0123008D010F302100D2
:100428008D000F3024008D0021009513A730200087
:10043800B4000030B5000030B600B7001430B80082
:100448000030B9008431B12481312000D501D301B5
:1004580023008C0121008C018E01FF308E002300C7
:100468008E110E1224001508F039083895001F3037
:100478009200951696131616171797169715971034
:10048800171014130B172100911592158B178E3125
:10049800902681318B310423813103302000CC0038
:1004A8000830CB007730890B572ACB0B572ACC0B57
:1004B800572A8B313E23813103302000CC0008308D
:1004C800CB007730890B662ACB0B662ACC0B662AC1
:1004D8008B314923813103302000CC000830CB0018
:1004E8007730890B752ACB0B752ACC0B752A8B3183
:1004F8002123813103302000CC000830CB00773035
:10050800890B842ACB0B842ACC0B842A8B31542365
:10051800813103302000CC000830CB007730890BC4
:10052800932ACB0B932ACC0B932A2400C801C90128
:10053800210044082400B900210043082400B80021
:10054800210042082400B700210041082400B60019
:10055800A001A1018B31042381318B312123813109
:100568009C302000CB00D730890BB82ACB0BB82A97
:10057800BD2A2100230824003E06031DC72A2100A6
:10058800220824003D06031DCA2ACB2ADA2A2100A4
:10059800210824004006031DD52A21002008240034
:1005A8003F060319D82AD92A472BDA2A210023081B
:1005B8002400BE00210022082400BD0021002108DB
:1005C8002400C000210020082400BF002000B90139
:1005D80002308F313E27813124003E082000BE00C2
:1005E80024003D082000BD002230CB004B08BF008E
:1005F8008531822581314B302000CB004B08C70064
:100608004030C8009030C900A0308E3101268131B9
:100618004B302000CB004B08C7002230C800023006
:10062800C900A0308E310126813124004008200005
:10063800BE0024003F082000BD002230CB004B083C
:10064800BF008531822581314B302000CB004B081B
:10065800C7004C30C8009030C900A0308E31012648
:1006680081314B302000CB004B08C7002230C80036
:100678000230C900A0308E3101268131A030873187
:10068800CC278131472B24004C083C0603194D2BFD
:100698004E2B3E2C4C082000CB004B082400BC00FD
:1006A800922B2000B90100308F313E278131103064
:1006B8002000C1009030C2008C31A12481313E2C31
:1006C8002000B90100308F313E27813130302000C1
:1006D800C1009030C2008C31A12481313E2C200011
:1006E800B90100308F313E27813120302000C10010
:1006F8009030C2008C31A12481313E2C2000B901F8
:1007080000308F313E27813100302000C100903009
:10071800C2008C31A12481313E2C3E2C24004C088F
:100728002000CB00CC014C08003A03199C2B822BEB
:100738004B08003A0319552B013A0319642B033A65
:100748000319732B822B3E2C3E2C8B315F23813176
:100758008B312923813101302000CB004B08210047
:10076800A4078B12200095012100A5018B16522C9D
:10077800023021002506031DC22BC32B522C013049
:100788002000CB004B082100A4078B12522C522CBE
:10079800033021002606031DD22BD32BD52BA40111
:1007A800522C02302606031DDA2BDB2B522C8B3100
:1007B800292381318C314E2481318B312923813198
:1007C80001302000CB004B082100A4078B12200029
:1007D80095012100A5018B16522C522C522C033066
:1007E80021002506031DF92BFA2B522C013020007D
:1007F800CB004B082100A4078B12522C522C8B31B2
:10080800292381318C317724813101302000CB00BC
:100818004B082100A407522C24004808023EC800B7
:100828000030493DC900043048064904031D1D2C09
:100838001E2C212CC801C901212C13302000CB000B
:100848004B08B90003308F313E2781312400480816
:10085800363E2000C1000230C2008C31A124813113
:1008680001302000CB004B082100A407522C522C49
:10087800522C522C210024082000CB00CC014C081B
:10088800003A0319482C522C4B0884000730040204
:100898000318522C88310435003E820001302400B0
:1008A800BA070030BB3D42302000CB004B08B400F3
:1008B8004130CC004C08B5000D0801398E31442672
:1008C800813144302000CB004B08B4004A30CC00C2
:1008D8004C08B5000D0C01398E3144268131463063
:1008E8002000CB004B08B4004B30CC004C08B500BE
:1008F8000D0C890C01398E314426813124004A03BC
:10090800031D872C882C902CCA0101302000CB00B5
:100918004B082400CC07902C4B03031D942C952CDA
:10092800992CCB010130CC02992C4C0A031D9D2C2B
:100938009E2CA52C02302000CB004B082400CC00B4
:10094800A52C03304C06031DAA2CAB2CBD2ACC01C8
:10095800BD2ABD2ABD2A81319C2920003508C10045
:100968003408C00038083904031DBB2CBC2CBE2C2D
:10097800812D812D400886004108870036088100B6
:100988003808FF3EBA00FF30393DBB003A0840073F
:10099800BC003B08413DBD003C0886003D0887007F
:1009A8003608810000303902033003193802031871
:1009B800DE2CDF2CE12C812D812D4008013EBA0070
:1009C8000030413DBB003A0886003B0887003608E6
:1009D80081004008023EBA000030413DBB003A08A1
:1009E80086003B088700360881003808FE3EBA00BA
:1009F800FF30393DBB003A084007BC003B08413D89
:100A0800BD003C0886003D0887003608810038088C
:100A1800FD3EBA00FF30393DBB003A084007BC0034
:100A28003B08413DBD003C0886003D08870036086C
:100A38008100003039020730031938020318252DC8
:100A4800262D282D812D812D4008033EBA00003027
:100A5800413DBB003A0886003B0887003608810004
:100A68003808FC3EBA00FF30393DBB003A08400761
:100A7800BC003B08413DBD003C0886003D0887009E
:100A8800360881000030390209300319380203188A
:100A98004E2D4F2D512D812D812D4009BA00410930
:100AA800BB00BA0A0319BB0A03303A05BE0000307E
:100AB8003B05BF003E08C0073F08C13D3E08B802DD
:100AC8003F08B93BFC30B805FF30B9057A2D40081E
:100AD800860041088700360881000130B8020030DE
:100AE800B93B0130C0070030C13D7A2D38083904C0
:100AF800031D7F2D802D6B2D812D08002000C10145
:100B0800BE1F872D882D902DC101C10ABD09BE09C0
:100B1800BD0A0319BE0A902D6430B4000030B50038
:100B28003E08B7003D08B6008731622785312000AE
:100B38003408C0004008C2006430B4000030B5007A
:100B48003E08B7003D08B6008E31E026853120000A
:100B58003508BE003408BD000A30B4000030B500C6
:100B68003E08B7003D08B60087316227853120006E
:100B78003408C0004008C3000A30B4000030B50093
:100B88003E08B7003D08B6008E31E02685312000CA
:100B98003508BE003408BD003D08C0004008C40048
:100BA80041080319D82DD92D0E2E2D30C0003F082D
:100BB800860002308700400881004208303EC000AD
:100BC8003F0A860002308700400881004308303E13
:100BD800C0003F08023E86000230870040088100BE
:100BE8002C30C0003F08033E8600023087004008D2
:100BF80081004408303EC0003F08043E86000230B1
:100C08008700400881003F08053E860002308700C3
:100C180081013A2E4208303EC0003F08860002306B
:100C28008700400881004308303EC0003F0A860024
:100C380002308700400881002C30C0003F08023E87
:100C4800860002308700400881004408303EC0001A
:100C58003F08033E860002308700400881003F08B5
:100C6800043E86000230870081013A2E08002000E9
:100C7800C0008B311523863120000C168C130A30E6
:100C88004006031D482E492E9B2E14305902031886
:100C98004E2E4F2E552EB90101308F313E27863109
:100CA800D12E28302000590203185B2E5C2E622EAC
:100CB800B90102308F313E278631D12E3C302000D9
:100CC80059020318682E692E6F2EB90103308F312F
:100CD8003E278631D12E2000B90100308F313E27C2
:100CE8008631D12ED12ED12ED12ED12E9B2E200061
:100CF800B90101308F313E278631B22E2000B9016B
:100D080002308F313E278631B22E2000B9010330E0
:100D18008F313E278631B22E2000B90100308F3145
:100D28003E2786312000D901B22EB22EB22E2000E5
:100D38005908BE00BF013F08003A0319A42EB22E7D
:100D48003E08143A03197B2E3C3A0319822E143AB2
:100D58000319892E6C3A0319902EB22E8D31222553
:100D680086318B311523863120000C168C134008F0
:100D7800BE000430BE36890BBE2E3E088D31C52517
:100D88008631200040088D31C52586310032003279
:100D980001302000BE003E08D9070800FC008B3156
:100DA8000923863120000C168C130A307C06031D9B
:100DB800DE2EDF2E2C2F143059020318E42EE52ED8
:100DC800EB2EF50101308F319E278631612F2830B7
:100DD800200059020318F12EF22EF82EF5010230E8
:100DE8008F319E278631612F3C302000590203182D
:100DF800FE2EFF2E052FF50103308F319E278631F9
:100E0800612FF50100308F319E278631612F612FC8
:100E1800612F612F612F2C2FF50101308F319E2713
:100E28008631432FF50102308F319E278631432FBB
:100E3800F50103308F319E278631432FF5010030AD
:100E48008F319E2786312000D901432F432F432F0E
:100E580020005908FA00FB017B08003A0319352FD6
:100E6800432F7A08143A0319102F3C3A0319162F06
:100E7800143A03191C2F6C3A0319222F432F8C3173
:100E8800F62486318B310923863120000C168C1309
:100E98007C08FA000430FA36890B4F2F7A088D3116
:100EA800892586317C088D318925863100320032CA
:100EB8000130FA007A082000D90708002000BA019A
:100EC800B51F672F682F702FB409B509B40A031925
:100ED800B50ABA01BA0A702FB71F732F742F7E2F65
:100EE800B609B709B60A0319B70A0130B8003808B5
:100EF800BA067E2FBB01BC01340835040319852FBF
:100F0800862FBB2FB901B90A932F0130B435B50D1F
:100F1800890B8A2F0130B8003808B907932FB51FFD
:100F2800962F972F892F992F992F0130BB35BC0DFC
:100F3800890B9A2F35083702031DA42F340836026F
:100F4800031CA72FA82FAE2F3408B6023508B73BCD
:100F58003B14AE2F0130B536B40C890BAF2F0130DE
:100F6800B902031DB82FB92F992FBB2FBB2F3A08F1
:100F78000319BF2FC02FC62FBB09BC09BB0A031911
:100F8800BC0AC62F3C08B5003B08B400CB2F0800AC
:100F98002000CA004A08B4000130B5008C3105248D
:100FA800873120003408C7004708C90049080319D9
:100FB800DE2FDF2FF92F4A08C1000130C2008C3123
:100FC800A124873120004A08B4000130B500003060
:100FD800B600B7004908C700C8014708B800480864
:100FE800B9008431B1248731F92F080064008001E9
:100FF8000131890BFB2F00348331A92B8331BC2BA2
:101008008331CC2B8331F32B8431032C8431102C86
:041018008431522CA1
:101600002B3400347834003401308B3133238B3168
:10161000080021008C110C118C100C100800210006
:101620008C150C158C140C14080021008C110C1155
:101630008C100C10080021008C150C158C140C1447
:10164000080002308B3133238B312000D901D90AB5
:10165000080020008D1E2D2B2E2B302B8D12322BAF
:101660008D16322B08002000B9008D3122258B31D8
:10167000200039088B3174238B31080020005B086F
:101680000438BA003A08DB005B088B3133238B3116
:10169000080020005B08FD39BA003A08DB005B084F
:1016A0008B3133238B31080020005B08FE39BA00F0
:1016B0003A08DB005B088B3133238B3108002100B3
:1016C00091152000D2015508031D672B682B732B41
:1016D000B830B40034082100A7002000D501D50A95
:1016E00024001614732B08002000B8008B3115233A
:1016F0008B3120000C128C133808B7000430B73639
:10170000890B7F2B37088D31C5258B312000380898
:101710008D31C5258B3108002000A4002108F70079
:101720002008F6002408F0000130F1008B31BE23C0
:101730008B3170082000A2007108A3002408220742
:101740008B31E1238B31A42B08002000C600430815
:10175000BB004208BA004608B4000130B5008C3125
:1017600005248B3120003408C4003508C500460824
:1017700044078C3129248B31BD2B08007108F500FA
:101780007008F400C82B0130F0070030F13DC82B81
:1017900070088400710885001200031DD02BD12B26
:1017A000C32BD22B7409F2007509F300F20A031956
:1017B000F30A70087207F0007108733DF100E02B26
:1017C0000800FC007708FB007608FA007C08F800A7
:1017D0007808FD00EC2BEC2B7D088600013087009B
:1017E000FD0A7B08F9007A08F800FA0A0319FB0AD7
:1017F00078088400790885000008C03F8908031D27
:10180000022C032CEC2B042C080020003508B90016
:101810003408B800102C0130B4070030B53D102C4E
:1018200034088400350885001200031D182C192C7B
:101830000B2C1A2C3809B6003909B700B60A03195F
:10184000B70A34083607B4003508373DB500282CF0
:1018500008002000C1003B08BF003A08BE00410854
:10186000BC003C08C000352C352C400886000130F7
:101870008700C00A3F08BD003E08BC00BE0A03192D
:10188000BF0A3C0884003D0885000008C03F890865
:10189000031D4B2C4C2C352C4D2C08002000D20164
:1018A0005508031D542C552C762C2100911524002D
:1018B0009717B8302000B40034082100A700033087
:1018C0002000B40034082100A800A9010430200041
:1018D000B40034082100AA0004302000B400340809
:1018E000D5002100A60124001614762C0800200043
:1018F000D2015508031D7D2C7E2CA02C21009115B2
:1019000034302000B4000130B5000030B600B7001C
:101910001E30B8000030B9008431B1248C31200071
:10192000D801B930C20042082100A70008302000C9
:10193000C2004208D400D501D50A24001614A02CF8
:1019400008002000C601B92C4208C4004108C300A9
:1019500046084307840044080318440A8500000829
:1019600086313B268C3101302000C3004308C60776
:10197000B92C4208C4004108C3004608430784004C
:1019800044080318440A85001200031DC82CC92C02
:10199000A42CCA2C0800FD01E32C20002108A30080
:1019A0002008A2007D082207840023080318230AC8
:1019B000850000088631D2268C3101302000A2003B
:1019C0002208FD07E32C20002108A3002008A20024
:1019D0007D082207840023080318230A85001200CB
:1019E000031DF32CF42CCD2CF52C080020000C1238
:1019F0008C178B310F238C310130F3000030F40051
:101A00001A2D20008C160032003220000C0CF00041
:101A1000F00C700C0139F100F2017108F30072084A
:101A2000F4008C12003200320032003220008C169A
:101A3000003200327303740403191F2D202D012D71
:101A4000212D080020000C128C178B311B238D31A7
:101A500001302000B7000030B800462D8C1600324F
:101A6000003220000C0CB400B40C340C0139B50069
:101A7000B6013508B7003608B8008C1200320032C3
:101A80000032003220008C16003200322000370372
:101A9000380403194C2D4D2D2E2D4E2D08002000FD
:101AA000AE002E08F0000130F1008B31BE238D31E5
:101AB00070092000A8007109A900A80A0319A90A41
:101AC00025082807AA0029080318290AAB002A08B4
:101AD000FF3EAC00FF302B3DAD002708F10026088B
:101AE000F0008B31BE238D3120002D087102031DC3
:101AF0007B2D2C08700203187E2D7F2D882D270842
:101B0000A1002608A0002E088B318C238D31882D52
:101B10000800F20020008C167208F0000330F03646
:101B2000890B8F2D70080139F100F10DF10DF10DC8
:101B30000C087106F73971068C007208F00002304B
:101B4000F036890BA02D70080139F100F10DF10D6F
:101B50000C087106FB3971068C0072360139F000F1
:101B6000F00D0C087006FD3970068C00013072050E
:101B7000F0000C087006FE3970068C00003200324E
:101B800020008C120032003208002000B6008C16B3
:101B90003608B4000330B436890BCB2D3408013934
:101BA000B500B50DB50DB50D0C083506F739350680
:101BB0008C003608B4000230B436890BDC2D3408B2
:101BC0000139B500B50DB50D0C083506FB393506E4
:101BD0008C0036360139B400B40D0C083406FD39DA
:101BE00034068C0001303605B4000C083406FE398A
:101BF00034068C000032003220008C120032003299
:101C000008002000CA004A08B4000130B5008C3139
:101C100005248E31200034092100BB002000350945
:101C20002100BC00BB0A0319BC0A200047082100A0
:101C30003B07BD003C0803183C0ABE003D08FF3EC0
:101C4000BF00FF303E3DC00020004908B5004808F5
:101C5000B4008C3105248E3121004008200035026B
:101C6000031D362E21003F08200034020318392EB0
:101C70003A2E432E4908C3004808C2004A088B3157
:101C8000A5238E31432E08002000B8003808031D1C
:101C90004A2E4B2E552E3408860002308700013024
:101CA000810741310318810A5D2E34088600023015
:101CB00087000030C03FC13F5D2E340886000230EF
:101CC00087001600D03AB6001600073AB604031D86
:101CD0006A2E6B2E722E3508860002308700810135
:101CE000810A722E34088600023087001600403ABE
:101CF000B60016001F3AB604031D7F2E802E8F2ECD
:101D00003408860002308700D130C03F0730C13F21
:101D100035088600023087008101810A8F2E080075
:101D200021000C128C138C1220000C128C138C12BC
:101D30004E302000BA00EB30890B9C2EBA0B9C2E43
:101D400003308D31C5258E311A302000BA00F830AD
:101D5000890BA82EBA0BA82E000003308D31C525A3
:101D60008E31C830890BB22E03308D31C5258E31AE
:101D70000D30890BB92E000002308D31C5258E3112
:101D80000D30890BC12E000028308B3133238E316A
:101D90000F302000BA003A08DB000630BA003A08DB
:101DA000DA005B088B3133238E318B3104238E3183
:101DB00006308B3133238E312000D901D90A080037
:101DC0002000BA01B71FE52EE62EEE2EB609B709A0
:101DD000B60A0319B70ABA01BA0AEE2EB51FF12ED8
:101DE000F22EF82EB409B509B40A0319B50AF82E73
:101DF000340835040319FD2EFE2E2D2FB901B90A22
:101E00000B2F0130B435B50D890B022F0130B8000E
:101E10003808B9070B2FB51F0E2F0F2F012F112FC9
:101E2000112F35083702031D172F34083602031C03
:101E30001A2F1B2F202F3408B6023508B73B202F4E
:101E40000130B536B40C890B212F0130B902031DC6
:101E50002A2F2B2F112F2D2F2D2F3A080319312F19
:101E6000322F382FB609B709B60A0319B70A382F27
:101E70003708B5003608B4003D2F08002000BC002C
:101E8000BD016E2F3908BA003A08BD003908BA0002
:101E90003A08D900842F3908403EBA003A08BD00FC
:101EA0003908143EBA003A08D900842F3908143E84
:101EB000BA003A08BD003908283EBA003A08D900ED
:101EC000842F3908543EBA003A08BD0039083C3E18
:101ED000BA003A08D900842F842F842F3C08BA0016
:101EE000BB013B08003A0319762F842F3A08003AC9
:101EF0000319422F013A03194B2F033A0319562FA6
:101F0000013A0319612F842F8D3122258F318B31B6
:101F100015238F3120000C128C133D08BA000430B9
:101F2000BA36890B902F3A0808388D31C5258F3184
:101F300020003D088D31C5258F310800F800F901DA
:101F4000D12F7508F6007608F9007508F6007608B6
:101F50002000D900E72F7508403EF6007608F9000A
:101F60007508143EF60076082000D900E72F7508A2
:101F7000143EF6007608F9007508283EF60076084B
:101F80002000D900E72F7508543EF6007608F900C6
:101F900075083C3EF60076082000D900E72FE72FB1
:101FA000E72F7808F600F7017708003A0319D92FD0
:101FB000E72F7608003A0319A12F013A0319AB2F36
:101FC000033A0319B72F013A0319C32FE72F8C31B6
:101FD000F6248F318B3109238F3120000C128C13A2
:101FE0007908F6000430F636890BF32F76080838A6
:101FF0008D3189258F3179088D3189258F31080000
:10200000573454344634203420342034203420349F
:102010002034203420342034203420342034003440
:1020200048346F346D346534203420342034203407
:102030002034203420342034203420342034003420
:1020400053346534743420344D346F34643465341F
:102050003A342034203420342034203420340034E6
:102060005334653474342034543465346D347034EE
:102070003A342034203420342034203420340034C6
:10208000483475346D346934643469347434793463
:1020900020343A34203400340A34543465346D34F6
:1020A000703420343A34203400342C3442344334F5
:1020B0004C344934463400342C344E3438340034F3
:1020C000413400345034003452340034533400343A
:020000040001F9
:04000E0084C7FFDDC7
:00000001FF
