:020000040000FA
:0400000080317928AA
:100008007E1480312000911D0A280B286628911142
:100018002400141E1028112815282000A601A50167
:1000280015282400941D19281A283428200025088A
:10003800031D1F28202834282608031924282528CA
:10004800662825082A3E86008701010824009100B9
:1000580001302000C6004608A507662866286628DD
:100068002400161B3828392855282000250803198C
:100078003E283F28552826082502031844284528E5
:10008800522825082A3E860087010108240091008D
:1000980001302000C6004608A5075528240016157B
:1000A80055282400161F59285A2866281613200098
:1000B8002508031960286128662824001615662873
:1000C800662866282000921D6A286B287728283021
:1000D800C2002330C300CB30C4008430C500843153
:1000E8006B24803177287E10090080317B28BB3053
:1000F8008400843085001200D9001200DA00120052
:10010800DB001200DC001200DD001200DE0012002D
:10011800DF001200E0002830840023308500C8305A
:10012800FE000030FF0084318324803120308400B9
:10013800003085001E30FE000030FF00843183242B
:1001480080317E1020008031A92828302000C70087
:100158002330C8000030C900CA00C830CB000030C6
:10016800CC008131A52180317830210099040330F9
:1001780099048B1320008C012A30C7000030C80076
:100188000030C900CA001430CB000030CC008131E7
:10019800A52180312000A601A50123008C012100A2
:1001A8008C018E01FF308E0023008E110E12240068
:1001B8001508F039083895001F30920095169613E7
:1001C80016161717971697159710171014130B175D
:1001D8002100911592158B178231CC228031843100
:1001E800DE24803103302000D8000830D700773073
:1001F800890BFC28D70BFC28D80BFC288431A524B4
:10020800803103302000D8000830D7007730890BC0
:100218000B29D70B0B29D80B0B2984319A24803151
:1002280003302000D8000830D7007730890B1A290E
:10023800D70B1A29D80B1A298431C32480310330EB
:100248002000D8000830D7007730890B2929D70B30
:100258002929D80B292984318F24803103302000A3
:10026800D8000830D7007730890B3829D70B3829C0
:10027800D80B382939302000D1008430D20083319E
:100288008523803115302000D8004B30D700BE3090
:10029800890B4C29D70B4C29D80B4C29000021007D
:1002A800AA01AB015930860000308700A0308400D5
:1002B8000030850008302000D70016001A00D70B40
:1002C80061292100A801A901692967308331FC232C
:1002D800803134302000D700F130890B7129D70BD9
:1002E8007129003221002A08A03E2000D1000030E8
:1002F800D20083318523803184311D24803121004F
:100308002A08023EAA0000302B3DAB0008302A061E
:100318002B04031D902991299429AA01AB01942942
:1003280015302000D8004B30D700BE30890B9A29F1
:10033800D70B9A29D80B9A29000069296929803195
:10034800792820004808D4004708D3004B084C04FB
:10035800031DAF29B029B229752A752A53088600CA
:1003680054088700490881004B08FF3ECD00FF3044
:100378004C3DCE004D085307CF004E08543DD000E9
:100388004F088600500887004908810000304C0259
:10039800033003194B020318D229D329D529752A0A
:1003A800752A5308013ECD000030543DCE004D085B
:1003B80086004E088700490881005308023ECD0098
:1003C8000030543DCE004D0886004E08870049088D
:1003D80081004B08FE3ECD00FF304C3DCE004D085D
:1003E8005307CF004E08543DD0004F0886005008F0
:1003F8008700490881004B08FD3ECD00FF304C3D89
:10040800CE004D085307CF004E08543DD0004F088A
:100418008600500887004908810000304C020730E8
:1004280003194B020318192A1A2A1C2A752A752A35
:100438005308033ECD000030543DCE004D088600E1
:100448004E088700490881004B08FC3ECD00FF306C
:100458004C3DCE004D085307CF004E08543DD00008
:100468004F088600500887004908810000304C0278
:10047800093003194B020318422A432A452A752AD0
:10048800752A5309CD005409CE00CD0A0319CE0AA6
:1004980003304D05D10000304E05D2005108D30776
:1004A8005208D43D5108CB025208CC3BFC30CB0556
:1004B800FF30CC056E2A5308860054088700490887
:1004C80081000130CB020030CC3B0130D307003033
:1004D800D43D6E2A4B084C04031D732A742A5F2AE4
:1004E800752A08002000D0008431D22482312000EF
:1004F8000C168C13952A40308331FC238231AC2AA8
:1005080014308331FC238231AC2A54308331FC23EC
:100518008231AC2A00308331FC238231AC2AAC2AE8
:10052800AC2A20002708CE00CF014F08003A031953
:100538009E2AAC2A4E08153A03197F2A3C3A031919
:10054800842A143A0319892A6C3A03198E2AAC2A88
:100558008331582382318431D224823120000C1611
:100568008C135008CE000430CE36890BB82A4E08BA
:1005780083311C2382312000500883311C238231AF
:100588000032003201302000CE004E08A7070800D4
:1005980021000C128C138C1220000C128C138C125C
:1005A8004E302000CD00EB30890BD82ACD0BD82A4D
:1005B800033083311C2382311A302000CD00F830FB
:1005C800890BE42ACD0BE42A0000033083311C2375
:1005D8008231C830890BEE2A033083311C238231E3
:1005E8000D30890BF52A0000023083311C2382313B
:1005F8000D30890BFD2A000028308431B024823167
:100608000F302000CD004D08A9000630CD004D0860
:10061800A80029088431B02482318431DE24823153
:1006280006308431B02482312000A701A70A0800CF
:100638002000C9008C164908C7000330C736890B4B
:10064800222B47080139C800C80DC80DC80D0C0871
:100658004806F73948068C004908C7000230C736F3
:10066800890B332B47080139C800C80DC80D0C0881
:100678004806FB3948068C0049360139C700C70DC2
:100688000C084706FD3947068C0001304905C700AC
:100698000C084706FE3947068C000032003220005D
:1006A8008C1200320032080020000C128C178431A2
:1006B800D824833101302000CA000030CB007C2BC5
:1006C8008C160032003220000C0CC700C70C470CF7
:1006D8000139C800C9014808CA004908CB008C1272
:1006E800003200320032003220008C160032003214
:1006F80020004A034B040319822B832B642B842B81
:1007080008002000D6019D2B5208D4005108D300C0
:1007180056085307840054080318540A8500000833
:1007280082317622833101302000D3005308D60766
:100738009D2B5208D4005108D30056085307840053
:1007480054080318540A85001200031DAC2BAD2B66
:10075800882BAE2B080079082000BF007808BE005F
:100768007708C1007608C000BA2BBA2B4108FB00F5
:100778004008FA00C00A0319C10A7A0886007B08F3
:1007880087003F08FD003E08FC00BE0A0319BF0AA7
:100798007C0884007D0885000008C03F8908031D87
:1007A800D62BD72BBA2BD82B08007108F500700868
:1007B800F400E32B0130F0070030F13DE32B700823
:1007C8008600710887000108031DEB2BEC2BDE2B3C
:1007D800ED2B7409F2007509F300F20A0319F30A04
:1007E80070087207F0007108733DF100FB2B0800D8
:1007F8002000CD008331582383318431D2248331C2
:1008080020000C128C134D08CC000430CC36890B18
:100818000A2C4C08083883311C23833120004D08EA
:1008280083311C23833120004D08CC004C08A700DD
:100838000800B93020002A060319232C242C292C5F
:10084800B930C7004708AA002E2CB830C70047089F
:10085800AA002E2C2608031D322C332C382CA60176
:10086800A60A24001614382C0800543465346D3454
:100878007034203443346F346D346D3475346E34D1
:10088800693463346134743469346F346E342034B9
:10089800743465347334743420343A3400342000AA
:1008A800CB008431D224843120000C128C134B08E5
:1008B800CA000430CA36890B5E2C4A0883311C23CF
:1008C800843120004B0883311C2384310800200028
:1008D8004308F1004208F0008331D92384317008BD
:1008E80020004207F6007108433DF7004508F9006B
:1008F8004408F8008331AF238431822C0800640057
:10090800800101310130FE020030FF3B7F087E0488
:10091800031D842C003420002908FE39CD004D0821
:10092800A90029088431B02484310800200029084E
:10093800FD39CD004D08A90029088431B02484313F
:100948000800200029080438CD004D08A90029080E
:100958008431B024843108002000CC00833158232E
:10096800843120004C0884315324843108002F340A
:1009780000342D3400346C3400347C3400340230BC
:100988008431B02484312000A701A70A08002C3440
:10099800423443344C3449344634003421008C11F9
:1009A8000C118C100C10080021008C150C158C14DF
:0E09B8000C14080001308431B0248431080092
:020000040001F9
:04000E0084C7FFDDC7
:00000001FF
