:020000040000FA
:0400000081315829C9
:1000060008007E1480312000911D0A280B283F2904
:100016009111210049080319112812283F292400AB
:10002600141E162817282A284B302000E2006208E2
:10003600A5002630A6009030A700A0308E319A2663
:10004600803121009111C9012000ED013F29141CC6
:100056002D282E287B2821004D1C322833287B286A
:1000660007302000D5009030D6002400110820006B
:10007600E200E3016208D7006308D80040308D3102
:10008600C02580314B302000E2006208A5004030D8
:10009600A6000130A700A0308E319A2680312400B8
:1000A60011082000E2006F08203E8600023087001B
:1000B600620881006F08031D6128622866288C315A
:1000C60025248031662801302000E2006208EF070F
:1000D6002400141020006E086F0203187328742879
:1000E60077282400961279282400961616163F299A
:1000F6002400941D7F288028B52820006D08031D44
:1001060085288628B5284B30E2006208A5002930EC
:10011600A6009030A700A0308E319A2680312100AB
:100126004908031997289828A62820006D08CD3E6F
:100136008600870101082400910001302000E200BA
:100146006208ED073F294B302000E2006208A50057
:100156001130A6009030A700A0308E319A2680314B
:100166003F293F292400161BB928BA280A2920004E
:100176006D080319BF28C0280A294B30E20062081F
:10018600A5002430A6009030A700A0308E319A2614
:1001960080312100490820006D020318D328D42895
:1001A600E1286D08CD3E86008701010824009100F4
:1001B60001302000E2006208ED073F2921004D1CB6
:1001C600E528E628052920006E086F020318EC28AA
:1001D600ED2801294230890BEE28003224009615BD
:1001E6004B302000E2006208A5002C30A6009030BB
:1001F600A700A0308E319A2680313F29240016159B
:100206003F293F29240016153F293F293F2924006D
:10021600161F0E290F292B294B302000E2006208F9
:10022600A5002230A6009030A700A0308E319A2675
:1002360080312400161320006D0803192329242970
:100246002729240016153F29240016153F293F2982
:100256004B302000E2006208A5001630A600903060
:10026600A700A0308E319A2680313F293F293F29A9
:100276003F293F293F293F292000921D4329442930
:1002860056298C3125248031200092114B30E20012
:100296006208A5000030A6009030A700A0308E317D
:1002A6009A26803156297E10090081315A2921006B
:1002B6008731FC278131E1008731FD278131E2005A
:1002C6008731FE278131E3008731FF278131E40042
:1002D60064308400003085000C308C311724813165
:1002E600C7308400003085001A308C3117248131E4
:1002F600203084000130850034308C311724813160
:10030600A0308400013085004B308C3117248131B8
:1003160020308400023085001E308C311724813154
:100326007E10200081319729A0302100A0000130E5
:10033600A1000030A200A3004B30A4000030A500AD
:100346008431DE2481317830210099040330990408
:100356008B1320008C018D0123008D0121008D015E
:10036600CD30A0000030A1000030A200A300143060
:10037600A4000030A5008431DE2481312100C901AA
:100386002000ED0123008C0121008C018E01FF303D
:100396008E0023008E110E1224001508F03908383D
:1003A60095001F3092009516961316161717971676
:1003B60097159710171014130B1721009115921506
:1003C6008B178F315B2781318C31062481310330C5
:1003D6002100BE000830BD007730890BF029BD0B27
:1003E600F029BE0BF0298C313A24813103302100EB
:1003F600BE000830BD007730890BFF29BD0BFF29F1
:10040600BE0BFF298C314524813103302100BE000B
:100416000830BD007730890B0E2ABD0B0E2ABE0BA5
:100426000E2A8C311D24813103302100BE00083094
:10043600BD007730890B1D2ABD0B1D2ABE0B1D2A58
:100446008C315024813103302100BE000830BD00BC
:100456007730890B2C2ABD0B2C2ABE0B2C2A2100A7
:10046600C501C6016408C4006308C3006208C2006F
:100476006108C100BF01C001D72A8C310624813131
:100486008C311D24813115302100BE004B30BD005A
:10049600BE30890B4C2ABD0B4C2ABE0B4C2A0000E1
:1004A6004B302100BD003D08B3001E30B400903033
:1004B600B500A0308E31D42681318731EB278131CA
:1004C60006302100BD003030890B672ABD0B672A34
:1004D60000004B302100BD003D08B3000C30B400D5
:1004E6009030B500A0308E31D4268131A0308E31C7
:1004F6003F2681318C31C324813108302100BD0073
:10050600C930890B842ABD0B842A0032A0308E3173
:100516003F2681314B302100BD003D08B3001A3023
:10052600B4009030B500A0308E31D42681318D31A3
:100536009825813129302100BE009630BD007F30DC
:10054600890BA32ABD0BA32ABE0BA32AA0308E318A
:100556003F26813121004508023EC5000030463D58
:10056600C600043045064604031DBA2ABB2ABE2A25
:10057600C501C601BE2A4508C13EAD000030AE0029
:100586008D3172258131CB302100BE00EC30BD00AB
:100596008430890BCC2ABD0BCC2ABE0BCC2A00009A
:1005A6002100C701C801D72A8B1BDA2ADB2A402A79
:1005B600DC2A813158292000B4002F08BE002E08FD
:1005C600BD002D08BC002C08BB00BE1BEB2AED2A83
:1005D6000130EE2A0030B000B1013008B900310810
:1005E600BA0039083A040319F92AFA2A052BBB0975
:1005F600BC09BD09BE09BB0A0319BC0A0319BD0A19
:100606000319BE0AE91B082B092B0D2BFD30EA0541
:10061600FF30EB056908803AB00080303002031DD8
:10062600162B013068020318192B1A2B202B0130C8
:100636002000B5000030B600252B20006908B60062
:100646006808B5006708B8006608B70039083A04B4
:10065600031D2E2B2F2B342B6A1D322B332B382BBD
:10066600342BFF30B707FF30B83D1F30BF000030D6
:10067600C0003F08203E8600013087008101922B92
:10068600FF302000BF07FF30C03D0030F3000030D0
:10069600F2000030F1000A30F0003E08F7003D0895
:1006A600F6003C08F5003B08F40086314826823106
:1006B6007108FC007008FB008C31A62482317B088F
:1006C600303E2000B0003F08203E86000130870003
:1006D60030088100FF30B507FF30B63DFF30B70761
:1006E600FF30B83D0030F3000030F2000030F1007A
:1006F6000A30F0003E08F7003D08F6003C08F50019
:100706003B08F4008531AF25823173082000BE0016
:100716007208BD007108BC007008BB00922B40082F
:10072600803AB00080303002031D9B2B01303F021F
:10073600031C9E2B9F2BCB2B20003E083D043C0424
:100746003B04031DA72BA82B432B3608803AB00089
:1007560080303002031DB12B013035020318B42B53
:10076600B52B432B20003808803AB0008030300289
:10077600031DBF2B01303702031CC22BC32BCB2B0F
:100786002000EA18C72BC82B432BCB2BCB2BCB2B0C
:10079600200039083A04031DD12BD22BD72B6A1D12
:1007A600D52BD62BF52BD72BFF30BF07FF30C03DFF
:1007B60039083A04031DE02BE12BE62B2B30B2005F
:1007C6000030B300EB2B2D30B2000030B300EB2B22
:1007D6003208B0003F08203E86000130870030080E
:1007E6008100F52B3F08203EB0003008A4003808F1
:1007F600A6003708A500340887318E2782312000ED
:100806002508AD002408AC00082C08002000CC0008
:10081600410886008701403FC300413FC4004308AA
:100826008400440885001200253A031D1B2C1C2C4D
:10083600B62C410886008701013081074131031833
:10084600810AE601E701EA01EB01FF30E800FF302B
:10085600E900410886008701403FC300413FC400CC
:1008660043088400440885001200643A03193C2CAE
:100876003D2C4F2C410886008701403FC300413F75
:10088600C40043088400440885001200693A031D29
:100896004D2C4E2C7F2C4F2C4108860087010130B1
:1008A600810741310318810A420886008701010841
:1008B6008400850102308107003FC300013FC40068
:1008C6004308C8004408C900890D893B8909CA0044
:1008D600CB004B08AF004A08AE004908AD004808F7
:1008E600AC004C088231DE22843120002D08C20083
:1008F6002C08C100DD2CDD2C410886008701403F15
:10090600C300413FC4004308840044088500120028
:10091600253A031D8F2C902CAA2C410886008701AE
:100926000130810741310318810A2530F00000307B
:10093600F1004C08C3004308F2008F31AB27843125
:1009460001302000C1000030C200DD2CDD2C410842
:10095600860087010130810741310318810AC101F0
:10096600C201DD2CDD2C410886008701403FC30013
:10097600413FC40043088400440885000008C500C0
:10098600C6014508F0004608F1004C08C7004708B4
:10099600F2008F31AB2784312000410886008701A1
:1009A6000130810741310318810A0130C10000304E
:1009B600C200DD2C080021002108AD002008AC0093
:1009C60024082504031DE82CE92CEB2CAE2DAE2DB6
:1009D6002C0886002D088700220881002408FF3E87
:1009E600A600FF30253DA70026082C07A8002708EB
:1009F6002D3DA900280886002908870022088100C5
:100A06000030250203300319240203180B2D0C2D88
:100A16000E2DAE2DAE2D2C08013EA60000302D3D2C
:100A2600A7002608860027088700220881002C08D0
:100A3600023EA60000302D3DA700260886002708A6
:100A46008700220881002408FE3EA600FF30253DCF
:100A5600A70026082C07A80027082D3DA90028086E
:100A6600860029088700220881002408FD3EA6008A
:100A7600FF30253DA70026082C07A80027082D3D96
:100A8600A90028088600290887002208810000306E
:100A960025020730031924020318522D532D552D14
:100AA600AE2DAE2D2C08033EA60000302D3DA7002E
:100AB6002608860027088700220881002408FC3EB5
:100AC600A600FF30253DA70026082C07A80027080A
:100AD6002D3DA900280886002908870022088100E4
:100AE6000030250209300319240203187B2D7C2DC2
:100AF6007E2DAE2DAE2D2C09A6002D09A700A60A27
:100B06000319A70A03302605AA0000302705AB0003
:100B16002A08AC072B08AD3D2A08A4022B08A53BE2
:100B2600FC30A405FF30A505A72D2C0886002D084E
:100B36008700220881000130A4020030A53B013065
:100B4600AC070030AD3DA72D24082504031DAC2DB0
:100B5600AD2D982DAE2D08002000A101F31FB42D58
:100B6600B52DC22DF009F109F209F309F00A0319AE
:100B7600F10A0319F20A0319F30AA101A10AF71FE0
:100B8600C52DC62DD62DF409F509F609F709F40A7F
:100B96000319F50A0319F60A0319F70A0130F800D2
:100BA6007808A106D62D0030A5000030A40000303C
:100BB600A3000030A20073087204710470040319C4
:100BC600E52DE62D2D2EA001A00AF52D0130F035DC
:100BD600F10DF20DF30D890BEA2D0130F8007808BE
:100BE600A007F52DF31FF82DF92DE92DFB2DFB2D73
:100BF6000130A235A30DA40DA50D890BFC2D73089C
:100C06007702031D102E72087602031D102E71083E
:100C16007502031D102E70087402031C132E142E69
:100C26001E2E7008F4027108F53B7208F63B730835
:100C3600F73B22141E2E0130F336F20CF10CF00CA9
:100C4600890B1F2E0130A002031D2A2E2B2EFB2DF1
:100C56002D2E2D2E21080319312E322E3E2EA209BD
:100C6600A309A409A509A20A0319A30A0319A40A38
:100C76000319A50A3E2E2508F3002408F2002308CE
:100C8600F1002208F000472E0800FA01F71F4C2E4B
:100C96004D2E5A2EF409F509F609F709F40A031937
:100CA600F50A0319F60A0319F70AFA01FA0AF31FF5
:100CB6005D2E5E2E6A2EF009F109F209F309F00A9B
:100CC6000319F10A0319F20A0319F30A6A2E7308C3
:100CD6007204710470040319712E722EB12EF9017B
:100CE600F90A812E0130F035F10DF20DF30D890B65
:100CF600762E0130F8007808F907812EF31F842E2E
:100D0600852E752E872E872E73087702031D952E46
:100D160072087602031D952E71087502031D952E25
:100D260070087402031C982E992EA22E7008F402E5
:100D36007108F53B7208F63B7308F73BA22E0130AB
:100D4600F336F20CF10CF00C890BA32E0130F902EC
:100D5600031DAE2EAF2E872EB12EB12E7A080319A3
:100D6600B52EB62EC22EF409F509F609F709F40ACE
:100D76000319F50A0319F60A0319F70AC22E7708AA
:100D8600F3007608F2007508F1007408F000CB2E27
:100D960008002100AC008C310B24863120000C1693
:100DA6008C13F52E2100A501013087312D278631C0
:100DB6000C2F2100A501023087312D2786310C2FFB
:100DC6002100A501033087312D2786310C2F210004
:100DD600A501003087312D2786312100CA010C2F4D
:100DE6000C2F0C2F21004A08AA00AB012B08003A51
:100DF6000319FE2E0C2F2A08143A0319D52E3C3A55
:100E06000319DC2E143A0319E32E6C3A0319EA2E61
:100E16000C2F8E316A2686318C310B2486312000C8
:100E26000C168C1321002C08AA000430AA36890B54
:100E3600192F2A088F310E27863121002C088F3171
:100E46000E2786310032003201302100AA002A081E
:100E5600CA0708002100A800A9015D2F2508A600E1
:100E66002608A9002508A6002608CA00732F25080B
:100E7600403EA6002608A9002508143EA60026081E
:100E8600CA00732F2508143EA6002608A9002508C7
:100E9600283EA6002608CA00732F2508543EA60041
:100EA6002608A90025083C3EA6002608CA00732F7E
:100EB600732F732F2808A600A7012708003A0319E5
:100EC600652F732F2608003A0319312F013A0319AB
:100ED6003A2F033A0319452F013A0319502F732F5E
:100EE6008E316A2687318C310B24873120000C1213
:100EF6008C1321002908A6000430A636890B802F02
:100F0600260808388F310E278731210029088F31AE
:100F16000E27873108002000AB006A1C932F942F00
:100F26009D2F2B08FC007C08F80024088D31E9254C
:100F360087319D2F2000A61BA12FA22FA72F2608A1
:100F4600AA002508A900A92FA901AA01A701A8019D
:100F5600BE2F2030F0000030F10020002B08FC00EE
:100F66007C08F2008F31AB27873101302000A707BC
:100F76000030A83DBE2F2808803AFC002A08803A97
:100F86007C02031DC82F29082702031CCB2FCC2F58
:100F9600AC2F20006A18D02FD12FDA2F2B08FC0097
:100FA6007C08F80024088D31E9258731DA2F2000E6
:100FB6002408F0000130F1008C31E2248731200052
:100FC60029087007A4002A08713DA500EA2F080029
:100FD600210091154908031DF12FF22FFB2FB83080
:100FE600A0002008CD00C901C90A24001614FB2F51
:0A0FF60008002B3400347834003476
:10180C0001308C312F248C31080021008C110C11EB
:10181C008C100C10080021008C150C158C140C1459
:10182C000800640080010131890B182C003402304F
:10183C008C312F248C312100CA01CA0A08002000E7
:10184C008D1E292C2A2C2C2C8D122E2C8D162E2CE8
:10185C0008002100A5008E316A268C312100250854
:10186C008C318D248C31080021004C080438A600E2
:10187C002608CC004C088C312F248C310800210018
:10188C004C08FD39A6002608CC004C088C312F24BE
:10189C008C31080021004C08FE39A6002608CC002B
:1018AC004C088C312F248C3108002000A400210816
:1018BC00F7002008F6002408F0000130F1008C310C
:1018CC00E2248C3170082000A2007108A3002408C7
:1018DC0022078D3105258C31732C08002100B200B4
:1018EC002F08A7002E08A6003208A0000130A10086
:1018FC008D3129258C3121002008B0002108B10040
:10190C00320830078D314D258C318C2C080021008C
:10191C00A4008C310B248C3120000C128C13210070
:10192C002408A3000430A336890B992C23088F318B
:10193C000E278C31210024088F310E278C310800A2
:10194C007C08803A2000A00080302002031DB02CBF
:10195C0001307B020318B32CB42CC12C7B09200062
:10196C00A0007C09A100A00A0319A10A2008FB0011
:10197C002108FC00C22CC22C080021004908031DC0
:10198C00C82CC92CE12C911524009717B8302100D4
:10199C00A0002008CD000330A0002008CE00CF010D
:1019AC000430A0002008D0000430A0002008C9009A
:1019BC0024001614E12C08007108F5007008F400DE
:1019CC00EC2C0130F0070030F13DEC2C7008840059
:1019DC00710885001200031DF42CF52CE72CF62C55
:1019EC007409F2007509F300F20A0319F30A70087E
:1019FC007207F0007108733DF100042D0800FC0023
:101A0C007708FB007608FA007C08F8007808FD00DF
:101A1C00102D102D7D08860001308700FD0A7B08F3
:101A2C00F9007A08F800FA0A0319FB0A780884000E
:101A3C00790885000008C03F8908031D262D272D35
:101A4C00102D282D080021002108A5002008A40035
:101A5C00342D0130A0070030A13D342D2008840026
:101A6C00210885001200031D3C2D3D2D2F2D3E2DF0
:101A7C002409A2002509A300A20A0319A30A20081D
:101A8C002207A0002108233DA1004C2D08002100B5
:101A9C00AD002708AB002608AA002D08A8002808CE
:101AAC00AC00592D592D2C08860001308700AC0A4A
:101ABC002B08A9002A08A800AA0A0319AB0A2808AF
:101ACC008400290885000008C03F8908031D6F2D7C
:101ADC00702D592D712D08002100B101882D310870
:101AEC00AF00B0012F082D07860030082E3D87006F
:101AFC0001088631CC268D3101302100AF002F0832
:101B0C00B107882D3108AF00B0012F082D078600D2
:101B1C0030082E3D87000108031D952D962D752D3F
:101B2C00972D080021004908031D9D2D9E2DBF2DCA
:101B3C0091152030A0000230A1000030A200A300BB
:101B4C001E30A4000030A5008431DE248D3120002D
:101B5C00EF01B9302100AE002E08CD000830AE00E8
:101B6C002E082000EE002100C901C90A2400161419
:101B7C00BF2D08002000DC005730FD007D08DB0085
:101B8C005C08FD007D08DD00DE01DF01E001E10104
:101B9C005608CE005508CD005B30FD007D08CF0007
:101BAC005D308E3114268D3120004E08DA004D0840
:101BBC00D9005E085C07FD007D08860001308700B7
:101BCC008101E82D08002000A300A101A201022E32
:101BDC002008F900FA017908F0007A08F100780879
:101BEC00FB007B08F2008F31AB278D3101302000D8
:101BFC00A1070030A23D022E21082307F900790825
:101C0C008600013087000108FA007A08A00020083D
:101C1C00031D112E122EEE2D132E08002000D200C3
:101C2C004E08D4004D08D300E401E5012F2E5330AB
:101C3C00D0005008C1004F08D1005108C200520812
:101C4C00843109248E3120004108E4074208E53D27
:101C5C002F2E53088400540885001200031D372EC4
:101C6C00382E1D2E392E6508CE006408CD003E2E70
:101C7C0008002100B4003408A0000130A1008D310F
:101C8C0029258E3121002008B2003208B300330818
:101C9C000319512E522E692E3408AD000130AE00BE
:101CAC008D3172258E3121003408A0000130A10045
:101CBC000030A200A3000130A4000030A500843144
:101CCC00DE248E31692E080020000C128C178C310A
:101CDC0011248E3101302100A3000030A400912E7C
:101CEC0020008C160032003220000C0C2100A000C9
:101CFC00A00C200C0139A100A2012108A30022088C
:101D0C00A40020008C12003200320032003220007D
:101D1C008C16003200322100230324040319972E61
:101D2C00982E762E992E08002000AE002E08F0007A
:101D3C000130F1008C31E2248E3170092000A800B2
:101D4C007109A900A80A0319A90A25082807AA00DD
:101D5C0029080318290AAB002A08013EAC00003000
:101D6C002B3DAD002708F1002608F0008C31E22451
:101D7C008E3120002D087102031DC62E2C08700216
:101D8C000318C92ECA2ED32E2708A1002608A0009E
:101D9C002E088C315B248E31D32E08002100BC0020
:101DAC003C08A0000130A1008D3129258E31210085
:101DBC002009B6002109B700B60A0319B70A33087F
:101DCC003607B80037080318370AB9003808013E3F
:101DDC00BA000030393DBB003508A1003408A00022
:101DEC008D3129258E3121003B082102031D002F46
:101DFC003A0820020318032F042F0D2F3508AF00CB
:101E0C003408AE003C088C3174248E310D2F080040
:101E1C002100A20020008C1621002208A000033013
:101E2C00A036890B162F20080139A100A10DA10D98
:101E3C00A10D20000C0821002106F73921062000F5
:101E4C008C0021002208A0000230A036890B2B2F19
:101E5C0020080139A100A10DA10D20000C082100C2
:101E6C002106FB39210620008C0021002236013985
:101E7C00A000A00D20000C0821002006FD39200632
:101E8C0020008C00013021002205A00020000C084D
:101E9C0021002006FE39200620008C000032003282
:101EAC0020008C1200320032080021000C128C131E
:101EBC008C1220000C128C138C124E302100A600B8
:101ECC00EB30890B672FA60B672F03308F310E2752
:101EDC008F311A302100A600F830890B732FA60B16
:101EEC00732F000003308F310E278F31C830890BD0
:101EFC007D2F03308F310E278F310D30890B842FBE
:101F0C00000002308F310E278F310D30890B8C2F52
:101F1C00000028308C312F248F310F302100A60087
:101F2C002608CC000630A6002608CB004C088C31C5
:101F3C002F248F318C3106248F3106308C312F2495
:101F4C008F312100CA01CA0A080072080319AF2F89
:101F5C00B02FB62F7208031DB42FB52FBB2FB62F81
:101F6C007008803103208F31FF2F7208033E8600EA
:101F7C008701160001040319C42FC52FE32F720823
:101F8C00033E86008701403FF300413FF400720A94
:101F9C0086008701403FF500413FF6007608803A05
:101FAC00F7007408803A7702031DDE2F7308750260
:101FBC000318E12FE22FFF2FE32F7008F3007208B4
:101FCC0086008701720A8400850100080107F4006D
:101FDC00740886000130870073088100720A86003D
:101FEC0087010130810741310318810AFF2FFF2F30
:101FFC00FF2F08002C34423443344C3449344634DB
:10200C000034203425346934203400342C345334D7
:10201C0054343A3400342C34493453344534003479
:10202C002C344E3438340034473454343A3400347D
:10203C00573454343A3400342C344E344134003454
:10204C002C34503400342C34533400345234003497
:020000040001F9
:04000E0084C7FFDDC7
:00000001FF
