:020000040000FA
:040000008031D9284A
:100008007E1480312000911D0A280B28C4289111E4
:100018005B08031910281128C4282400141E152869
:1000280016281C28210091112000DB01D901C428C1
:10003800141C1F28202844282100201C2428252897
:100048004428240011082000AF005C08523E8600B6
:10005800013087002F0881000130AF002F08DC072E
:100068002400141020005A085C0203183C283D287C
:100078004028240096124228240096161616C428F2
:100088002400941D48284928632820005908031D86
:100098004E284F2863285B08031953285428C4287E
:1000A8005908A03E8600870101082400910001300C
:1000B8002000AF002F08D907C428C428C42824006A
:1000C800161B672868289D282000590803196D28E1
:1000D8006E289D285B085902031873287428812804
:1000E8005908A03E860087010108240091000130CC
:1000F8002000AF002F08D907C4282100201C85281C
:100108008628982820005A085C0203188C288D2815
:1001180094284230890B8E28003224009615C42872
:1001280024001615C428C42824001615C428C42879
:10013800C4282400161FA128A228B02816132000BE
:1001480059080319A828A928AC2824001615C4287A
:1001580024001615C428C4284B302000AF002F08EF
:10016800A5005C30A6009030A700A03087318F270B
:100178008031C428C428C428C428C428C428C42852
:100188002000921DC828C928D72892114B30AF00EB
:100198002F08A5005530A6009030A700A030873161
:1001A8008F278031D7287E1009008031DB28210075
:1001B8008E3111268031C4008E3112268031C5005F
:1001C8008E3113268031C6008E3114268031C70047
:1001D80042308400003085001E308E312626803162
:1001E800A03084000030850014308E3126268031FE
:1001F80052308400013085001E308E312626803131
:10020800A0308400013085004B308E3126268031A5
:100218007E102000813110292200C501C601BA01D3
:10022800BB01C001C101C201C301A0302000B00060
:100238000130B1000030B200B3004B30B4000030E0
:10024800B5008331B523813178302100990403301A
:1002580099048B132200CF01D001C401D101BC0144
:10026800BC0ABF01BD01BE01C701C801C901CA015D
:10027800CB01CC0120008C018D0123008D010F30B2
:1002880021008D000F3024008D0021009513A0302F
:100298002000B0000030B1000030B200B3001430CC
:1002A800B4000030B5008331B52381312000DB0173
:1002B800D90123008C0121008C018E01FF308E00B2
:1002C80023008E110E1224001508F0390838950005
:1002D8001F3092009516961316161717971697152E
:1002E8009710171014130B172100911592158B17DF
:1002F8008531EE2581318E3115268131033021007B
:10030800C0000830BF007730890B8829BF0B8829C7
:10031800C00B88298E313F26813103302100C0006F
:100328000830BF007730890B9729BF0B9729C00B7E
:1003380097298E314A26813103302100C0000830C8
:10034800BF007730890BA629BF0BA629C00BA629A9
:100358008E312C26813103302100C0000830BF00C7
:100368007730890BB529BF0BB529C00BB5298E315C
:100378005526813103302100C0000830BF00773096
:10038800890BC429BF0BC429C00BC4292200CD0185
:10039800CE01210047082200B900210046082200AA
:1003A800B800210045082200B700210044082200B7
:1003B800B600B401B5018E31152681318E312C2657
:1003C80081319C302100BF00D730890BE929BF0B50
:1003D800E929EE2922004608BB004508BA0055085D
:1003E8002100BF00C001220054082100C100C20141
:1003F8004108C200C1013F0841072200C500210091
:100408004008423D2200C6004108C3004008C2001F
:1004180057082100BF00C001220056082100C10072
:10042800C2014108C200C1013F0841072200C000C3
:1004380021004008423D2200C10046083B06031D3A
:10044800272A45083A06031D2A2A2B2A362A430852
:100458004306031D312A420842060319342A352A65
:10046800972A362A2000B501023085318E25813140
:10047800220046082000B900220045082000B800E4
:1004880020302100BF003F082000BA0085311D251B
:1004980081314B302100BF003F08B5004030B60025
:1004A8009030B700A03086318A2681314B30210048
:1004B800BF003F08B5002030B6000130B700A030BB
:1004C80086318A268131220041082000B9002200A5
:1004D80040082000B80020302100BF003F0820005D
:1004E800BA0085311D2581314B302100BF003F08FE
:1004F800B5004C30B6009030B700A03086318A265F
:1005080081314B302100BF003F08B5002030B600D4
:100518000130B700A03086318A268131A03087317A
:10052800C9278131972A220051083C0603199D2AC0
:100538009E2AF82A51082100BF003F082200BC006B
:10054800E22A2000B501003085318E258131103036
:100558002000BD009030BE008F31CF278131F82AAE
:100568002000B501003085318E25813130302000E2
:10057800BD009030BE008F31CF278131F82A20008E
:10058800B501003085318E25813120302000BD0035
:100598009030BE008F31CF278131F82A2000B50175
:1005A800003085318E25813100302000BD0090302B
:1005B800BE008F31CF278131F82AF82A220051084E
:1005C8002100BF00C0014008003A0319EC2AD22AD2
:1005D8003F08003A0319A52A013A0319B42A033A35
:1005E8000319C32AD22AF82A22003F03031DFD2A31
:1005F800FE2A402BBF018E31602681310630210052
:10060800BF003030890B062BBF0B062B00008F3143
:100618005327813108302100BF00C930890B122BC4
:10062800BF0B122B00328F317927813122004D0800
:10063800023ECD0000304E3DCE0004304D064E0443
:10064800031D272B282B2B2BCD01CE012B2B133051
:100658002100BF003F082000B500033085318E25FA
:10066800813122004D08363E2000BD000130BE0019
:100678008F31CF278131402B01302200BD07003058
:10068800BE3D3D0A031D4C2B3E0A031D4C2B4D2B32
:10069800522BBD01BE01BF01BF0A522B47302100BA
:1006A800BF003F082000B00044302100C0004008CF
:1006B8002000B1000D08013986313E2681314930CC
:1006C8002100BF003F082000B0004F302100C000CB
:1006D80040082000B1000D0C013986313E268131D9
:1006E8004B302100BF003F082000B00050302100EF
:1006F800C00040082000B1000D0C890C013986317A
:100708003E26813122004F03031D8B2B8C2B942B0B
:10071800CF0101302100BF003F082200D107942BF0
:100728005003031D982B992B9D2BD0010130D1022A
:100738009D2B510A031DA12BA22BA92B02302100AE
:10074800BF003F082200D100A92B03305106031D2A
:10075800AE2BAF2BEE29D101EE29EE29EE298031FF
:10076800D92820003108BD003008BC003408350401
:10077800031DBF2BC02BC22B852C852C3C08860063
:100788003D088700320881003408FF3EB600FF307C
:10079800353DB70036083C07B80037083D3DB9007D
:1007A8003808860039088700320881000030350291
:1007B8000330031934020318E22BE32BE52B852CB5
:1007C800852C3C08013EB60000303D3DB700360898
:1007D800860037088700320881003C08023EB600D0
:1007E80000303D3DB70036088600370887003208DC
:1007F80081003408FE3EB600FF30353DB7003608AC
:100808003C07B80037083D3DB9003808860039086C
:100818008700320881003408FD3EB600FF30353DC0
:10082800B70036083C07B80037083D3DB90038081E
:100838008600390887003208810000303502073009
:10084800031934020318292C2A2C2C2C852C852CCE
:100858003C08033EB60000303D3DB7003608860030
:1008680037088700320881003408FC3EB600FF30A4
:10087800353DB70036083C07B80037083D3DB9009C
:1008880038088600390887003208810000303502B0
:100898000930031934020318522C532C552C852C7B
:1008A800852C3C09B6003D09B700B60A0319B70AFA
:1008B80003303605BA0000303705BB003A08BC07DC
:1008C8003B08BD3D3A08B4023B08B53BFC30B405D3
:1008D800FF30B5057E2C3C0886003D0887003208AD
:1008E80081000130B4020030B53B0130BC07003054
:1008F800BD3D7E2C34083504031D832C842C6F2CBD
:10090800852C08002000BC008E311A268431200076
:100918000C168C130A303C06031D932C942CE62CE1
:1009280014305D020318992C9A2CA02CB5010130C3
:1009380085318E2584311C2D283020005D02031856
:10094800A62CA72CAD2CB501023085318E2584311B
:100958001C2D3C3020005D020318B32CB42CBA2C9B
:10096800B501033085318E2584311C2D2000B50159
:10097800003085318E2584311C2D1C2D1C2D1C2DFD
:100988001C2DE62C2000B501013085318E258431DF
:10099800FD2C2000B501023085318E258431FD2CD7
:1009A8002000B501033085318E258431FD2C2000CF
:1009B800B501003085318E2584312000DD01FD2C04
:1009C800FD2CFD2C20005D08BA00BB013B08003A55
:1009D8000319EF2CFD2C3A08143A0319C62C3C3A9B
:1009E8000319CD2C143A0319D42C6C3A0319DB2CB7
:1009F800FD2C8F31A22784318E311A2684312000B4
:100A08000C168C133C08BA000430BA36890B092D31
:100A18003A0887315327843120003C08873153270F
:100A280084310032003201302000BA003A08DD0774
:100A3800080064302000B0000030B1003908B3006D
:100A48003808B2008631D326853120003008BB0033
:100A58003B08BC006430B0000030B1003908B30076
:100A68003808B20087311727853120003108B900CE
:100A78003008B8000A30B0000030B1003908B300BF
:100A88003808B2008631D326853120003008BB00F3
:100A98003B08BD000A30B0000030B1003908B3008F
:100AA8003808B20087311727853120003108B9008E
:100AB8003008B8003808BB003B08BE003C08303E90
:100AC800BB003A088600013087003B0881003D08DA
:100AD800303EBB003A0A8600013087003B0881009F
:100AE8002C30BB003A08023E8600013087003B08E4
:100AF80081003E08303EBB003A08033E86000130C4
:100B080087003B0881003A08043E860001308700D0
:100B1800810108002000B800B901BE2D3508B600D3
:100B28003608B9003508B6003608DD00D42D35087A
:100B3800403EB6003608B9003508143EB6003608FF
:100B4800DD00D42D3508143EB6003608B900350846
:100B5800283EB6003608DD00D42D3508543EB600D0
:100B68003608B90035083C3EB6003608DD00D42DFD
:100B7800D42DD42D3808B600B7013708003A031928
:100B8800C62DD42D3608003A0319922D013A0319BF
:100B98009B2D033A0319A62D013A0319B12DD42D23
:100BA8008F31A22785318E311A26853120000C120B
:100BB8008C133908B6000430B636890BE02D360898
:100BC8000838873153278531200039088731532762
:100BD8008531080021000C128C138C1220000C1295
:100BE8008C138C124E302000B600EB30890BFA2D96
:100BF800B60BFA2D03308731532785311A30200080
:100C0800B600F830890B062EB60B062E000003300E
:100C1800873153278531C830890B102E033087312F
:100C2800532785310D30890B172E0000023087318C
:100C3800532785310D30890B1F2E000028308E3147
:100C4800342685310F302000B6003608DF00063024
:100C5800B6003608DE005F088E31342685318E31C5
:100C68001526853106308E31342685312000DD0188
:100C7800DD0A08002000B4003408031D442E452E68
:100C88004F2E30088600013087000130810741313E
:100C98000318810A572E300886000130870000307B
:100CA800C03FC13F572E300886000130870016002C
:100CB800D03AB2001600073AB204031D642E652E1E
:100CC8006C2E31088600013087008101810A6C2E64
:100CD80030088600013087001600403AB20016003E
:100CE8001F3AB204031D792E7A2E892E3008860009
:100CF80001308700D130C03F0730C13F310886003E
:100D0800013087008101810A892E08002100BE0078
:100D18003E082000B0000130B1008F310A2786312B
:100D2800200030092100B800200031092100B90055
:100D3800B80A0319B90A35083807BA003908031878
:100D4800390ABB003A08013EBC0000303B3DBD00FB
:100D580037082000B100210036082000B0008F318C
:100D68000A27863121003D0820003102031DC02ECC
:100D780021003C08200030020318C32EC42ED22EB6
:100D8800210037082000BF00210036082000BE00DF
:100D980021003E088E31A5268631D22E080020007B
:100DA800B601B701300831040319DB2EDC2E112FF0
:100DB800B501B50AE92E0130B035B10D890BE02E29
:100DC8000130B4003408B507E92EB11FEC2EED2E22
:100DD800DF2EEF2EEF2E0130B635B70D890BF02E32
:100DE80031083302031DFA2E30083202031CFD2E8F
:100DF800FE2E042F3008B2023108B33B3614042FFC
:100E08000130B136B00C890B052F0130B502031D36
:100E18000E2F0F2FEF2E112F112F3708B100360884
:100E2800B000162F080020003008310403191D2FC8
:100E38001E2F4D2FB501B50A2B2F0130B035B10D3E
:100E4800890B222F0130B4003408B5072B2FB11FAE
:100E58002E2F2F2F212F312F312F31083302031D31
:100E6800372F30083202031C3A2F3B2F402F30080F
:100E7800B2023108B33B402F0130B136B00C890BB8
:100E8800412F0130B502031D4A2F4B2F312F4D2F13
:100E98004D2F3308B1003208B000522F080020004F
:100EA800B2008C163208B0000330B036890B592FC7
:100EB80030080139B100B10DB10DB10D0C08310682
:100EC800F73931068C003208B0000230B036890B91
:100ED8006A2F30080139B100B10DB10D0C08310687
:100EE800FB3931068C0032360139B000B00D0C08E0
:100EF8003006FD3930068C0001303205B0000C0890
:100F08003006FE3930068C000032003220008C1288
:100F18000032003208002000AE002E08F000013038
:100F2800F1008E31C326873170092000A8007109AD
:100F3800A900A80A0319A90A25082807AA00290848
:100F48000318290AAB002A08013EAC0000302B3DEB
:100F5800AD002708F1002608F0008E31C32687313E
:100F680020002D087102031DBB2F2C0870020318E6
:100F7800BE2FBF2FC82F2708A1002608A0002E08C3
:100F88008E318C268731C82F08002100B800380818
:100F98002000B0000130B1008F310A2787312000CE
:100FA80030082100B5003508B70037080319DD2FD0
:100FB800DE2FFE2F38082000BD000130BE008F3123
:100FC800CF278731210038082000B0000130B10058
:100FD8000030B200B30021003708B500B60135086B
:100FE8002000B400210036082000B5008331B52365
:060FF8008731FE2F080006
:101C22002B3400347834003401308E3134268E3136
:101C3200080021008C110C118C100C1008002100DE
:101C42008C150C158C140C140800640080010131F1
:101C5200890B272E003402308E3134268E3120003B
:101C6200DD01DD0A08002000B5008F31A2278E3188
:101C7200200035088E3174268E31080020005F085E
:101C82000438B6003608DF005F088E3134268E3104
:101C9200080020005F08FD39B6003608DF005F0843
:101CA2008E3134268E31080020005F08FE39B600DE
:101CB2003608DF005F088E3134268E31080021009D
:101CC200911520005B08031D672E682E732EB83015
:101CD200B00030082100A0002000DB01DB0A240054
:101CE2001614732E08002000B4008E311A268E318D
:101CF20020000C128C133408B3000430B336890B65
:101D02007F2E3308873153278E31200034088731E4
:101D120053278E3108002000A4002108F700200874
:101D2200F6002408F0000130F1008E31C3268E3116
:101D320070082000A2007108A300240822078E3137
:101D4200E6268E31A42E08002100B40020003F08B0
:101D5200B7003E08B600210034082000B000013070
:101D6200B1008F310A278E3120003008C0003108BF
:101D7200C10021003408200040078F312E278E3108
:101D8200C22E08007108F5007008F400CD2E013053
:101D9200F0070030F13DCD2E7008840071088500F7
:101DA2001200031DD52ED62EC82ED72E7409F2008E
:101DB2007509F300F20A0319F30A70087207F000BA
:101DC2007108733DF100E52E0800FC007708FB0066
:101DD2007608FA007C08F8007808FD00F12EF12E52
:101DE2007D08860001308700FD0A7B08F9007A0829
:101DF200F800FA0A0319FB0A7808840079088500BA
:101E02000008C03F8908031D072F082FF12E092F54
:101E1200080020003108B5003008B400152F013049
:101E2200B0070030B13D152F30088400310885001D
:101E32001200031D1D2F1E2F102F1F2F3409B20059
:101E42003509B300B20A0319B30A30083207B000E9
:101E52003108333DB1002D2F08002000BD003708A6
:101E6200BB003608BA003D08B8003808BC003A2F5B
:101E72003A2F3C08860001308700BC0A3B08B900B3
:101E82003A08B800BA0A0319BB0A380884003908AC
:101E920085000008C03F8908031D502F512F3A2F9B
:101EA200522F080020005B08031D582F592F782F4E
:101EB2002100911524009717B8302000B000300897
:101EC2002100A00003302000B00030082100A10052
:101ED200A20104302000B00030082100A300043029
:101EE2002000B0003008DB0024001614782F080010
:101EF20020005B08031D7E2F7F2FA12F210091154B
:101F020052302000B0000130B1000030B200B30006
:101F12001E30B4000030B5008331B5238F3120006C
:101F2200DC01B930BE003E082100A00008302000CC
:101F3200BE003E08DA00DB01DB0A24001614A12FE2
:101F4200080020000C128C178E3120268F310130B0
:101F52002000B3000030B400C62F8C1600320032CD
:101F620020000C0CB000B00C300C0139B100B201F1
:101F72003108B3003208B4008C1200320032003251
:101F8200003220008C160032003220003303340469
:101F92000319CC2FCD2FAE2FCE2F08002100B40174
:101FA200EB2F20003E08C0003D08BF00210034088E
:101FB20020003F07840040080318400A85000008FB
:101FC200843186248F3101302000BF003F08210078
:101FD200B407EB2F20003E08C0003D08BF002100DF
:101FE200340820003F07840040080318400A850097
:101FF2001200031DFD2FFE2FD22FFF2F0800573492
:1020020054344634203420342034203420342034D4
:102012002034203420342034203420340034483416
:102022006F346D346534203420342034203420342D
:1020320020342034203420342034203400345334EB
:102042006534743420344D346F34643465343A3436
:1020520020342034203420342034203400345334CB
:10206200653474342034543465346D3470343A3405
:1020720020342034203420342034203400344834B6
:1020820075346D3469346434693474347934203489
:102092003A34203400340A34543465346D347034A4
:1020A20020343A34203400342C34423443344C3417
:0E20B2004934463400342C344E343834003473
:020000040001F9
:04000E0084C7FFDDC7
:00000001FF
