:020000040000FA
:0400000080316028C3
:100008007E1480312000AA01AB01A501A60185312B
:100018001225803171082000AB007008AA002A0858
:100028002B040319182819282B286930A400240840
:10003800A7002A08303EA4002408A800A9012730F8
:10004800FC000030FD008A314C2280312B288D3194
:100058009825803171082000A6007008A500111CA1
:100068003628372853280130A4002408CB0711105C
:1000780007304B06031D4128422847284C3097007B
:1000880083309600472808304B06031D4C284D281E
:100098005328CB0189319F218031532853280B1DC8
:1000A800562857285E280B1101302000A400240888
:1000B800D9075E287E100900803162282430840028
:1000C800893085005E308600003087000030FF00F0
:1000D8000630893193218031513084008930850080
:1000E800C6308600003087000030FF000A308931B2
:1000F800932180312830840023308500C830FE00E9
:100108000030FF008931872180314530840000307C
:1001180085001930FE000030FF00893187218031C9
:10012800A0308400003085001730FE000030FF004A
:1001380089318721803120308400013085003C30AE
:10014800FE000030FF00893187218031A030840013
:10015800013085004B30FE000030FF0089318721D7
:10016800803120308400023085004630FE000030A7
:10017800FF008931872180317E1020008031C4281A
:100188008B13FC302100990578309904B1018E1247
:1001980023008E1620008E168E1221009A1AD5285A
:1001A800D82820008E16DA2820008E128E128E167D
:1001B8008E128E16E02BE02B2500BF01C001C10175
:1001C800C20100302000AC00AD004B30AE00003062
:1001D800AF00A0308631EE2680312500CA01CB0160
:1001E800CC01BE01CD01C301C30ABC01BD01C401DC
:1001F800C501C601C701C801C90120008C013F30F3
:100208009805981130309804181118142100111409
:100218001508F83902389500951295118B122000AF
:100228008D0123008D010F3021008D000F30240037
:100238008D00210095138D31FB25803189310721EF
:10024800803103302100C5000830C4007730890BA5
:100258002B29C40B2B29C50B2B2989316621803109
:1002680003302100C5000830C4007730890B3A29D3
:10027800C40B3A29C50B3A298931712180310330E1
:100288002100C5000830C4007730890B4929C40B08
:100298004929C50B492989313F2180310330210083
:1002A800C5000830C4007730890B5829C40B582979
:1002B800C50B582989317C21803103302100C500C4
:1002C8000830C4007730890B6729C40B6729C50B30
:1002D80067292500A401A50121004D082500A300D8
:1002E80021004C082500A20021004B082500A10090
:1002F80021004A082500A000A601A701893107218D
:10030800803189313F2180319C302100C400D730B1
:10031800890B8C29C40B8C2915302100C5004B3062
:10032800C400BE30890B9629C40B9629C50B9629A3
:1003380000009D299F29250043080319A429A52900
:10034800622AC301432A2000B00100308C31D62430
:10035800803177302000B8009030B9008A31CA2245
:100368008031622A2000B00100308C31D6248031DF
:1003780056302000B8009030B9008A31CA22803146
:1003880021004F082000B60021004E082000B500CB
:10039800A8302100C40044082000B7008631382660
:1003A8008031A8302000B8000230B9008A31CA2252
:1003B8008031622A2000B00100308C31D62480318F
:1003C80087302000B8009030B9008A31CA228031C5
:1003D800622A2000B00100308C31D62480313430BC
:1003E8002000B8009030B9008A31CA228031622AD0
:1003F8002000B00100308C31D624803145302000F7
:10040800B8009030B9008A31CA22803121004F08E3
:100418002000B60021004E082000B500A8302100B9
:10042800C40044082000B700863138268031A8303F
:100438002000B8000230B9008A31CA228031622A0D
:100448002000B00100308C31D624803123302000C8
:10045800B8009030B9008A31CA228031622A20005F
:10046800B00100308C31D624803167302000B800CC
:100478009030B9008A31CA228031622A622A250066
:100488004D082100C400C5014508003A03194D2A4A
:10049800332A4408003A0319A729013A0319B6294F
:1004A800033A0319DE29823A0319ED29013A03199F
:1004B800FC29033A0319242A332A622AB33021007B
:1004C800C40044082000BD00B5308331E2238031E8
:1004D800012B012B2100360825004006031D782A30
:1004E8002100350825003F06031D7B2A7C2A8B2A1C
:1004F8002100340825004206031D862A21003308FE
:10050800250041060319892A8A2A012B8B2A2100F2
:1005180036082500C000210035082500BF0021004D
:1005280034082500C200210033082500C10020003E
:10053800B00102308C31D6248031250040082000DB
:10054800B60025003F082000B500A8302100C400EF
:1005580044082000B7008631382680314B3021000E
:10056800C40044082000C200DC30C3009030C4003E
:10057800A0308C31412480314B302100C400440824
:100588002000C200A830C3000230C400A0308C3163
:1005980041248031250042082000B600250041088A
:1005A8002000B500A8302100C40044082000B7008E
:1005B8008631382680314B302100C40044082000A1
:1005C800C2001830C3009130C400A0308C314124DF
:1005D80080314B302100C40044082000C200A830FC
:1005E800C3000230C400A0308C3141248031A030D7
:1005F8008A31F4228031012B012B01302500BC0700
:100608000030BD3DC4302100C40044082000AC00C7
:10061800CC302100C50045082000AD000D08013987
:100628008C318A248031C6302100C400440820005F
:10063800AC00CA302100C50045082000AD000D0CF3
:1006480001398C318A248031C8302100C400440823
:100658002000AC00CB302100C50045082000AD00CB
:100668000D0C890C01398C318A24803125004A030C
:10067800031D3F2B402B6E2B89312A218031250009
:10068800C301C30ACA01592B6E2B21004E08013E33
:10069800CE0000304F3DCF006E2B6E2B0130C400D2
:1006A80044082500CD076E2B6E2B4D082100C40091
:1006B800C5014508003A0319622B522B4408803AB9
:1006C80003196E2B013A0319492B033A03196E2BB0
:1006D800522B6E2B25004B03031D732B742BA32B5E
:1006E800C301C30ACB0189310721803189313F21F8
:1006F80080318D2BA32B21004E08FF3ECE00FF300A
:100708004F3DCF00A32BA32B01302500CD02A32BF7
:10071800A32B25004D082100C400C5014508003A57
:100728000319972B882B4408803A0319A32B013A05
:1007380003197F2B033A0319A32B882BA32B25001E
:100748004C03031DA82BA92BC52BC301C30ACC013D
:100758003E08031DB02BB12BBE2BBE01BE0A4D08AF
:10076800803E2100C40044082500CD008931312194
:100778008031C52B8931382180312500BE01C52B38
:10078800C52B25004D0A031DCA2BCB2BD42BC30127
:10079800C30A02302100C40044082500CD00D42B30
:1007A80003304D06031DD92BDA2B9F29C301C30A39
:1007B800CD019F299F299F29803160282100C300EE
:1007C8004908BA004808B9004708B8004608B70001
:1007D800A030860000308700BB30840000308500E0
:1007E80008302000BF0016001A00BF0BF72BFC2CA6
:1007F8000430BF003F08B800B7308B31FC23833189
:1008080020003808390403190A2C0B2C0E2DDA01A4
:10081800DA0A8B129501D9018B160E2D0E2D023096
:100828005906031D182C192C0E2D0230BF003F0845
:10083800DA008B120E2D0E2D8931472183310530B8
:1008480020002C062D04031D2A2C2B2C3C2CDA010D
:100858000130BF003F08CA0706304A06031D352C81
:10086800362C0E2D0630BF003F08DA000E2D0E2D57
:10087800893147218331033020002C062D04031DC4
:10088800462C472C0E2D0830BF003F08AC00B9306D
:100898008B314E23833120002C082D040319552C4D
:1008A800562C0E2D0330BF003F08DA008B1295013D
:1008B800D9018B160E2D0E2D0E2D0E2D0230590638
:1008C800031D672C682C0E2D0430BF003F08DA008A
:1008D8008B120E2D0E2D89314721833105302000D2
:1008E8002C062D04031D792C7A2C7C2CDA010E2D74
:1008F800893147218331033020002C062D04031D44
:10090800862C872C0E2D0830BF003F08B800BB305E
:100918008931DC2183312100BD1F932C942CB42C08
:100928003D087F392000BF00C0013F08C000BF015B
:10093800BF09C009BF0A0319C00A21003E082000E8
:100948003F07C20040080318400AC30021004308BB
:100958008600870120004208C03F4308C13FBD2CE4
:1009680021004308860087013E08C03F3D08C13F7B
:10097800BD2C2100BF1FC12CC22CE02C3F087F39A1
:100988002000BF00C0013F08C000BF01BF09C00967
:10099800BF0A0319C00A2100400820003F07C2000F
:1009A80040080318400AC3003D0886008701420832
:1009B800C03F4308C13FEA2C20003D08860087015C
:1009C80021004008C03F3F08C13FEA2C0530200005
:1009D800BF003F08DA000130BD000030BE00112D15
:1009E800112D0E2D0E2DCA010E2D0E2D0E2D0E2D94
:1009F8005A08BF00C0014008003A0319042D0E2D03
:100A08003F0884000730040203180E2D883104358E
:100A1800003E8200BD01BE01112D0800F401200036
:100A2800911D172D182D252E9111550803191D2DCF
:100A38001E2D252E2200481C222D232DAA2D2400F0
:100A4800141E272D282D2E2D210091112000D501AF
:100A5800D201252E941D312D322D482D200052080B
:100A6800031D372D382D482D5208483E8600013089
:100A780087000108240091002000E301E30A013007
:100A8800F2007208D207252E2400141C4C2D4D2D7F
:100A9800742D1108F20020005808343E86000130F9
:100AA8008700720881000130F2007208D80724001C
:100AB80014102000540858020318632D642D672D64
:100AC80024009612712D240096160330F200720845
:100AD8002000E300D301D30A712D24001616252E19
:100AE800161B772D782D8B2D2000520803197D2D8C
:100AF8007E2D8B2D540858020318832D842D872DA5
:100B080024009615252E24001615252E252E2400A2
:100B1800161F8F2D902DA22D16130530F200720886
:100B28002000E300520803199A2D9B2D9E2D2400C6
:100B38001615252E24001615252E252EF401F40A47
:100B4800252E252E252E252E252E252E2400141E55
:100B5800AE2DAF2DCB2D210091112000D501D20152
:100B680002306306031DB92DBA2DBF2D0330F200E4
:100B78007208E300BF2D04306306031DC42DC52D84
:100B8800252E0530F2007208E300252E252E941D2F
:100B9800CE2DCF2DE52D20005208031DD42DD52DA7
:100BA800E52DE301E30A5208483E8600013087003C
:100BB8000108240091000130F20072082000D207D9
:100BC800252E2400161BE92DEA2D0D2E2000520893
:100BD8000319EF2DF02D0D2E550852020318F52D8F
:100BE800F62D042E5208483E860001308700010881
:100BF800240091000130F20072082000D207252E4F
:100C0800240016150230F20072082000E300252E99
:100C1800252E2400161F112E122E1A2E1613161505
:100C28000430F20072082000E300252E0330F200A1
:100C38007208F400252E252E252E252E252E252E4C
:100C4800252E2000921D292E2A2E2F2E9211023099
:100C5800F2007208F4007408F200F3017208F00060
:100C68007308F100372E08002000BC01BE01B61F32
:100C78003E2E3F2E472EBC01BC0AB509B609B50A5F
:100C88000319B60A472E6430AC000030AD003608B0
:100C9800AF003508AE008E315F26863120002C0863
:100CA800B8003808BD006430AC000030AD0036082C
:100CB800AF003508AE008731A227863120002D0805
:100CC800B6002C08B5000A30AC000030AD0036087C
:100CD800AF003508AE008E315F26863120002C0823
:100CE800B8003808BA000A30AC000030AD00360849
:100CF800AF003508AE008731A227863120002D08C5
:100D0800B6002C08B5003508B8003808BB003C0808
:100D180003198F2E902EA02E2D30B8003E083707CD
:100D2800B900390886000230870038088100013090
:100D3800B8003808BE07A02E3D080319A42EA52E1A
:100D4800B62E3D08303EB8003E083707B9003908CE
:100D5800860002308700380881000130B800380862
:100D6800BE07B62E3A08303EB8003E083707B9002D
:100D78003908860002308700380881000130B80041
:100D88003808BE072C30B8003E083707B9003908C4
:100D9800860002308700380881000130B800380822
:100DA800BE073B08303EB8003E083707B90039088F
:100DB800860002308700380881000130B800380802
:100DC800BE073E083707B80038088600023087009B
:100DD800810108002000B4003408B0003008B500D4
:100DE8002E082F04031DF92EFA2EFC2EA12FA12F59
:100DF8002C08B000350886000130870030088100D3
:100E08002C08B0002E08FF3E3507B10031088600D7
:100E1800013087003008810000302F0203300319A9
:100E28002E020318182F192F1B2FA12FA12F2C08C2
:100E3800B000350A860001308700300881002C0890
:100E4800B0003508023E8600013087003008810076
:100E58002C08B0002E08FE3E3507B1003108860088
:100E680001308700300881002C08B0002E08FD3EB4
:100E78003507B1003108860001308700300881004D
:100E880000302F02073003192E0203184C2F4D2F64
:100E98004F2FA12FA12F2C08B0003508033E860044
:100EA80001308700300881002C08B0002E08FC3E75
:100EB8003507B1003108860001308700300881000D
:100EC80000302F02093003192E0203186C2F6D2FE2
:100ED8006F2FA12FA12F3509B0003609B100B00A34
:100EE8000319B10A00303005B20000303105B300F3
:100EF8003208B0003008B5073208AE023308AF3BFD
:100F0800FC30AE05FF30AF059A2F2C08B00035082D
:100F1800860001308700300881000130AE020030C1
:100F2800AF3B0130B0003008B5079A2F2E082F04C8
:100F3800031D9F2FA02F892FA12F08002000B20189
:100F4800AF1FA72FA82FB02FAE09AF09AE0A0319FC
:100F5800AF0AB201B20AB02FAD1FB32FB42FBA2F08
:100F6800AC09AD09AC0A0319AD0ABA2F2C082D0437
:100F78000319BF2FC02FEF2FB101B10ACD2F0130B8
:100F8800AC35AD0D890BC42F0130B0003008B10766
:100F9800CD2FAD1FD02FD12FC32FD32FD32F2D0857
:100FA8002F02031DD92F2C082E02031CDC2FDD2F46
:100FB800E22F2C08AE022D08AF3BE22F0130AD36F0
:100FC800AC0C890BE32F0130B102031DEC2FED2F80
:100FD800D32FEF2FEF2F32080319F32FF42FFA2F07
:100FE800AE09AF09AE0A0319AF0AFA2F2F08AD00F0
:100FF8002E08AC00FF2F08008331FC2B8431132C02
:101008008431202C8431622C84316F2C8431F72C6C
:0410180085310E2DE3
:10120E00013089315B218931080021000C108C10CE
:10121E000C118C11080021000C148C140C158C155B
:10122E00080021000C108C100C118C1108002100EC
:10123E000C148C140C158C15080001340734013471
:10124E001434143403342000E0010830AC002C08B0
:10125E00DF0008002000E0010430AC002C08DF00A5
:10126E0008002000E0010530AC002C08DF0008006B
:10127E00023089315B2189312000DB01DB0A080055
:10128E0020006308AE00AF012E08AC002F08AD00A1
:10129E0050290800B8340334003404342B3400349D
:1012AE0078340034D23400342000B1008A31A022C8
:1012BE008931200031088931C4218931080020008C
:1012CE005D080438B2003208DD005D0889315B210B
:1012DE008931080020005D08FD39B2003208DD00BA
:1012EE005D0889315B218931080020005D08FE39D7
:1012FE00B2003208DD005D0889315B2189310800BA
:10130E006400800101310130FE020030FF3B7F0896
:10131E007E04031D88290034FE0012001E000130D9
:10132E00FE020030FF3B7F087E04031D942900342B
:10133E00053020005A06031DA529A629AB29DA017E
:10134E00AB29AB29AB29AB29080020003F08AD0023
:10135E003E08AC008931FF21893120002C083E0760
:10136E00B2002D083F3DB3004108B5004008B4005F
:10137E008A3176228931C32908002000B0008931D4
:10138E001821893120000E118E103008AF00043064
:10139E00AF36890BCF292F088B31C023893120001E
:1013AE0030088B31C023893108002000BB00530365
:1013BE00031DE229E329FE2903306306031DE829F4
:1013CE00E929FE29D3013B08AC000030AD003430D2
:1013DE00AE000130AF003808B900BA013908B000CC
:1013EE003A08B1008B311F238931FE29FE290800EE
:1013FE0020002D08B1002C08B0000A2A0130AC07DD
:10140E000030AD3D0A2A2C0884002D0885001200FC
:10141E00031D122A132A052A142A3009AE00310997
:10142E00AF00AE0A0319AF0A2C082E07AC002D0828
:10143E002F3DAD00222A080020000E118E14893196
:10144E0012218A310130F2000030F300442A2000CC
:10145E000E140032003220000C080139F000F101A8
:10146E007008F2007108F3000E10003200320032E4
:10147E00003220000E14003200327203730403197E
:10148E00492A4A2A2E2A4B2A08002000A301642A40
:10149E007D08A1007C08A0002308200784002108F5
:1014AE000318210A850000088E31C9268A310130C1
:1014BE002000A0002008A307642A7D08A1007C0854
:1014CE00A00023082007840021080318210A8500A4
:1014DE001200031D732A742A4F2A752A0800200051
:1014EE003508BB003408BA003308BD003208BC0012
:1014FE00812A812A3D08B7003C08B600BC0A0319B0
:10150E00BD0A36088600370887003B08B9003A083E
:10151E00B800BA0A0319BB0A3808840039088500D6
:10152E000008C03F8908031D9D2A9E2A812A9F2AF2
:10153E00080020000E118E1489311E218A310130CF
:10154E002000AE000030AF00C12A0E14003200326F
:10155E0020000C080139AC00AD012C08AE002D089E
:10156E00AF000E10003200320032003220000E1496
:10157E000032003220002E032F040319C72AC82A76
:10158E00AC2AC92A08002000BD01E22A3908BB0096
:10159E003808BA003D083A0784003B0803183B0A96
:1015AE00850000088F3161278A3101302000BA0092
:1015BE003A08BD07E22A3908BB003808BA003D08D0
:1015CE003A0784003B0803183B0A85001200031DEE
:1015DE00F12AF22ACD2AF32A08002000C100410880
:1015EE00AC000130AD008931FF218A3120002C087A
:1015FE00BE003E08C00040080319062B072B1E2B09
:10160E004108B8000130B9008A31CA228A3100304F
:10161E002000AC00AD004008BE00BF013E08AE0089
:10162E003F08AF0041088631EE268A311E2B080096
:10163E0020002F08B7002E08B6002D08B5002C0884
:10164E00B400402B36088400370885000008B2002D
:10165E003208B3000130B6070030B73D34088600BB
:10166E0035088700330881000130B4070030B53DDE
:10167E00402B0130B0020030B13B300A031D4B2B22
:10168E00310A031D4B2B4C2B292B4D2B0800200010
:10169E00AF00033063060319552B562B5D2B053017
:1016AE006306031D5B2B5C2B802B5D2B2C086102CC
:1016BE00031C622B632B802B2F08AE002E082200FA
:1016CE00C8002000D501D50A2C08AE002E08D40083
:1016DE00D201D80121009115240097172000E301B3
:1016EE002400161401302000AC000030AD00832B16
:1016FE00832BAC01AD01832B0800F20020000E14E9
:10170E007208F0000330F036890B8A2B0130700519
:10171E00F1000C087106FE3971068C007208F0009B
:10172E000230F036890B982B70080139F100F10D5B
:10173E000C087106FD3971068C0072360139F00005
:10174E00F00DF00D0C087006FB3970068C00720857
:10175E000139F000F00DF00DF00D0C087006F739A0
:10176E0070068C000032003220000E100032003263
:10177E0008002000AE000E142E08AC000330AC366C
:10178E00890BC62B01302C05AD000C082D06FE3939
:10179E002D068C002E08AC000230AC36890BD42BF3
:1017AE002C080139AD00AD0D0C082D06FD392D06A6
:1017BE008C002E360139AC00AC0DAC0D0C082C068D
:1017CE00FB392C068C002E080139AC00AC0DAC0D8B
:1017DE00AC0D0C082C06F7392C068C0000320032AA
:1017EE0020000E100032003208002000BC00033032
:1017FE0063060319032C042C0B2C05306306031D02
:10180E00092C0A2C3D2C0B2C620838020318102CC4
:10181E00112C292C4830AC000130AD003C08AE0034
:10182E000030AF003808BA00BB013A08B0003B08E0
:10183E00B1008B311F238B3120003808BA003A08D3
:10184E00D5002D2CB801B901402C402CD20121001D
:10185E009115240097172000E3012400161401307F
:10186E002000B8000030B900402C402CB801B9015E
:10187E00402C08002100BD003D082000AC000130C6
:10188E00AD008931FF218C3120002C092100B700D9
:10189E0020002D092100B800B70A0319B80A20004C
:1018AE00420821003707B90038080318380ABA0071
:1018BE003908FF3EBB00FF303A3DBC002000440813
:1018CE00AD004308AC008931FF218C3121003C086A
:1018DE0020002D02031D772C21003B0820002C0236
:1018EE0003187A2C7B2C892C21003D082000BE0089
:1018FE000130BF004408C1004308C0008931AC214B
:10190E008C31892C08002000B0003008031D902C6B
:10191E00912C9B2C2C088600023087000130810709
:10192E0041310318810AA32C2C088600023087004F
:10193E000030C03FC13FA32C2C0886000230870028
:10194E001600D03AAE001600073AAE04031DB02CB6
:10195E00B12CB82C2D088600023087008101810A37
:10196E00B82C2C088600023087001600403AAE00D4
:10197E0016001F3AAE04031DC52CC62CD52C2C0800
:10198E00860002308700D130C03F0730C13F2D089E
:10199E008600023087008101810AD52C08002000C4
:1019AE00B300B401062D3008B1003108B400300880
:1019BE00B1003108DB001C2D3008403EB10031086B
:1019CE00B4003008143EB1003108DB001C2D300885
:1019DE00143EB1003108B4003008283EB100310881
:1019EE00DB001C2D3008543EB1003108B400300825
:1019FE003C3EB1003108DB001C2D1C2D1C2D330884
:101A0E00B100B2013208003A03190E2D1C2D310817
:101A1E00003A0319DA2C013A0319E32C033A03199D
:101A2E00EE2C013A0319F92C1C2D8A31A0228C318F
:101A3E00893118218C3120000E118E103408B1001E
:101A4E000430B136890B282D310808388B31C0236C
:101A5E008C31200034088B31C0238C310800F70004
:101A6E00F801692D7408F5007508F8007408F50082
:101A7E0075082000DB007F2D7408403EF5007508C8
:101A8E00F8007408143EF50075082000DB007F2D69
:101A9E007408143EF5007508F8007408283EF50029
:101AAE0075082000DB007F2D7408543EF500750884
:101ABE00F80074083C3EF50075082000DB007F2D11
:101ACE007F2D7F2D7708F500F6017608003A031971
:101ADE00712D7F2D7508003A0319392D013A03191E
:101AEE00432D033A03194F2D013A03195B2D7F2D18
:101AFE008A3123228D3189310C218D3120000E1136
:101B0E008E107808F5000430F536890B8B2D75088C
:101B1E0008388B3184238D3178088B3184238D31B5
:101B2E0008002000111E9C2D9D2DB72D4E08500231
:101B3E000318A22DA32DB12D5008203E8600023091
:101B4E008700010823009A000130F200720820007D
:101B5E00D007B72DD001CE0121001112B72DB72D10
:101B6E002000911EBB2DBC2DF22D23009D1CC02DDF
:101B7E00C12DCA2D1D121D1620004F080138F2006E
:101B8E007208CF00CA2D23001D1DCE2DCF2DD62DB0
:101B9E0020004F080238F2007208CF00D62D200028
:101BAE005108283EF200F3012330F33D72088600FF
:101BBE00730887002300190881000130F2007208B3
:101BCE002000D107C9305102031CEE2DEF2DF22D4E
:101BDE00D101F22DF22D4F08F200F3017208F00040
:101BEE007308F100FA2D080023000C108C100C1154
:101BFE008C110E118E100E1020000C108C100C116A
:101C0E008C110E118E100E1021000E118E100E1052
:101C1E000C108C100C118C1120000E118E100E1049
:101C2E004E302000B200EB30890B1B2EB20B1B2E58
:101C3E0003308B31C0238D311A302000B200F830C2
:101C4E00890B272EB20B272E000003308B31C023B9
:101C5E008D31C830890B312E03308B31C0238D313D
:101C6E000D30890B382E000002308B31C0238D31A0
:101C7E000D30890B402E0000283089315B218D31CB
:101C8E000F302000B2003208DD000630B2003208FC
:101C9E00DC005D0889315B218D31893107218D3161
:101CAE00063089315B218D312000DB01DB0A080013
:101CBE002000B201AD1F642E652E6D2EAC09AD094C
:101CCE00AC0A0319AD0AB201B20A6D2EAF1F702E07
:101CDE00712E7B2EAE09AF09AE0A0319AF0A013081
:101CEE00B0003008B2067B2EB301B4012C082D04CF
:101CFE000319822E832EB82EB101B10A902E013017
:101D0E00AC35AD0D890B872E0130B0003008B10710
:101D1E00902EAD1F932E942E862E962E962E01303B
:101D2E00B335B40D890B972E2D082F02031DA12E4E
:101D3E002C082E02031CA42EA52EAB2E2C08AE02B0
:101D4E002D08AF3B3314AB2E0130AD36AC0C890BE6
:101D5E00AC2E0130B102031DB52EB62E962EB82E26
:101D6E00B82E32080319BC2EBD2EC32EB309B409EA
:101D7E00B30A0319B40AC32E3408AD003308AC00FD
:101D8E00C82E0800FB000D307B06031DCF2ED02E73
:101D9E00D22E602F602F89310C218E3120000E152E
:101DAE008E100A307B06031DDD2EDE2E2B2F1430F7
:101DBE005B020318E32EE42EEA2EF40101308D317E
:101DCE0036258E31602F283020005B020318F02E4E
:101DDE00F12EF72EF40102308D3136258E31602F23
:101DEE003C3020005B020318FD2EFE2E042FF40162
:101DFE0003308D3136258E31602FF40100308D3158
:101E0E0036258E31602F602F602F602F602F2B2F85
:101E1E00F40101308D3136258E31422FF40102301E
:101E2E008D3136258E31422FF40103308D3136251A
:101E3E008E31422FF40100308D3136258E31200047
:101E4E00DB01422F422F422F20005B08F900FA01DE
:101E5E007A08003A0319342F422F7908143A0319DD
:101E6E000F2F3C3A0319152F143A03191B2F6C3AF6
:101E7E000319212F422F8A3123228E3189310C21D1
:101E8E008E3120000E158E107B08F9000430F936C5
:101E9E00890B4E2F79088B3184238E317B088B3141
:101EAE0084238E31003200320130F900790820008F
:101EBE00DB0708002000B7000D303706031D682F22
:101ECE00692F6B2FFF2FFF2F893118218F312000A3
:101EDE000E158E100A303706031D762F772FC92F59
:101EEE0014305B0203187C2F7D2F832FB00101303D
:101EFE008C31D6248F31FF2F283020005B0203183F
:101F0E00892F8A2F902FB00102308C31D6248F3139
:101F1E00FF2F3C3020005B020318962F972F9D2F2A
:101F2E00B00103308C31D6248F31FF2F2000B00149
:101F3E0000308C31D6248F31FF2FFF2FFF2FFF2F34
:101F4E00FF2FC92F2000B00101308C31D6248F31E4
:101F5E00E02F2000B00102308C31D6248F31E02FDB
:101F6E002000B00103308C31D6248F31E02F2000B9
:101F7E00B00100308C31D6248F312000DB01E02FF0
:101F8E00E02FE02F20005B08B500B6013608003ABE
:101F9E000319D22FE02F3508143A0319A92F3C3A12
:101FAE000319B02F143A0319B72F6C3A0319BE2F29
:101FBE00E02F8A31A0228F31893118218F312000F4
:101FCE000E158E103708B5000430B536890BEC2F80
:101FDE0035088B31C0238F31200037088B31C02359
:101FEE008F310032003201302000B5003508DB079A
:101FFE00080041344C34523445344134443459345D
:10200E00203443344F344E344E34453443345434F8
:10201E00453444340034413454342B34433457342F
:10202E005334413450343D34223422342C3422344F
:10203E0022342C342C3400342D345334653474341F
:10204E0020344D346F34643465342D3420342034D0
:10205E002034203420340A3400342D345334653483
:10206E0074342034543469346D3465342D34203452
:10207E0020342034203420340A3400342D345334A8
:10208E00653474342034543465346D3470342D34E6
:10209E00203420342034203420340A340034543494
:1020AE0065346D3470342034533465347434743480
:1020BE0069346E3467343A34203420340A340034B0
:1020CE0057345434463420342034203420342034D1
:1020DE002034203420342034203420342034003472
:1020EE00543469346D346534203420342034203433
:1020FE002034203420342034203420342034003452
:10210E004D346F34643465343A3420342034203402
:10211E002034203420342034203420342034003431
:10212E00413454342B34433457344D344F344434C7
:10213E0045343D3432340D340A340034453473346E
:10214E007034383432343634363449346E3469347B
:10215E0074343A340A340034413454342B34433416
:10216E0049345034533454344134523454343D345D
:10217E00223400343134393432342E34313436345E
:10218E0038342E3434342E3432343534353400343D
:10219E00413454342B3452344534533454344F3444
:1021AE00523445340D340A340034483475346D34A9
:1021BE006934643469347434793420343A342034D4
:1021CE000034413454342B34433457345334413473
:1021DE0050343D34223400345234653462346F341A
:1021EE006F34743465346434213400343134323411
:1021FE0033343434353436343734383400344134AF
:10220E00503420344D344F34443445343A34003451
:10221E0052346534733474346F34723465343A34F2
:10222E0000340A34543465346D34703420343A3406
:10223E002034003453344F3443344B344534543407
:10224E003A3400344D346534633463346F3473344C
:10225E0000344134543445340D340A340034573488
:10226E004934463449343A3400342C3430340D3445
:10227E000A3400342C3431340D340A3400344134F1
:10228E00543445343A3400346C346F34613464342D
:10229E0000344F344B342134003422342C34223465
:1022AE000034553444345034003422342C34003449
:0622BE004F344B340034E4
:020000040001F9
:04000E0082C7FFDDC9
:00000001FF
