:020000040000FA
:040000008131E5293C
:100008007E1480312000911D0A280B287B2991112C
:1000180055080319102811287B292100271C1528A9
:10002800162819292400141E1A281B282128210003
:1000380091112000D501D3017B29941D242825285E
:100048003B2820005308031D2A282B283B28530847
:10005800A73E860087010108240091002100A6011F
:10006800A60A01302000AF002F08D3077B292400FF
:10007800141C3F284028D62811082000AF00580833
:10008800343E8600013087002F0881000130AF0020
:100098002F08D80724001410200054085802031809
:1000A800562857285A2824009612D3282400961632
:1000B80002302000AF002F082100A6002200B61F42
:1000C80066286728812836087F392000AF00B001EC
:1000D8002F08B000AF01AF09B009AF0A0319B00A81
:1000E8002200370820002F072100A2002000300836
:1000F8000318300A2100A30098282200370820009E
:10010800AF00B001220036082000B100B20131086A
:10011800B200B1012F0831072100A20020003008E9
:10012800323D2100A30098282200B81F9C289D2852
:10013800B72838087F392000AF00B0012F08B00079
:10014800AF01AF09B009AF0A0319B00A2200390894
:1001580020002F072100A000200030080318300AD3
:100168002100A100CD28220039082000AF00B001ED
:10017800220038082000B100B2013108B200B101F4
:100188002F0831072100A00020003008323D21004F
:10019800A10001302000AF002F08D707D328240082
:1001A80016167B29161BD928DA28ED2820005308B3
:1001B8000319DF28E028ED28540858020318E52819
:1001C800E628E928240096157B29240016157B29A2
:1001D8007B292400161FF128F2280629161303305C
:1001E8002000AF002F082100A600200053080319A3
:1001F800FE28FF280229240016157B29240016153D
:100208007B297B294B302000AF002F08A5009030B8
:10021800A6009030A70020308D31242580317B291D
:100228007B297B297B297B297B292400141E1D29F6
:100238001E292429210091112000D501D3017B29F1
:10024800941D272928293F2920005308031D2D29FB
:100258002E293F292100A601A60A20005308A73EFF
:100268008600870101082400910001302000AF00BA
:100278002F08D3077B292400161B43294429672903
:1002880020005308031949294A29672955085302A8
:1002980003184F2950295D295308A73E8600870176
:1002A80001082400910001302000AF002F08D30777
:1002B8007B292400161502302000AF002F082100EA
:1002C800A6007B297B292400161F6B296C297B2912
:1002D8001613161503302000AF002F082100A600C2
:1002E8007B297B297B297B297B297B297B2920006A
:1002F800921D7F2980298E2992114B30AF002F083B
:10030800A5008930A6009030A70020308D31242523
:1003180080318E292000111C92299329B729013098
:10032800AF002F08CE07111007304E06031D9D2978
:100338009E29A3294C30970083309600A3290830C2
:100348004E06031DA829A929B729CE01CF01CF0A36
:10035800063021002406031DB229B329B729A401B8
:10036800B729B729B7290B1DBA29BB29C3290B11EE
:1003780001302000AF002F082100A507C329200065
:10038800111EC729C829E329510850020318CD298D
:10039800CE29DD295008F03E860087012230873DAE
:1003A800010823009A0001302000AF002F08D00771
:1003B800E329D001D10121001112E329E3297E109C
:1003C80009008131E729D23084008A308500210074
:1003D8001200C3001200C4001200C5001200C600BB
:1003E8001200C7001200C800F030840022308500D7
:1003F8000030FE000130FF008731F42781314B3097
:100408008400003085001130FE000030FF00873185
:10041800F4278131A0308400003085001B30FE00B5
:100428000030FF008731F42781312030840001300B
:1004380085003230FE000030FF008731F42781311B
:10044800A0308400013085003230FE000030FF000B
:100458008731F427813120308400023085004B3009
:10046800FE000030FF008731F4278131A03084007E
:10047800023085003230FE000030FF008731F4275B
:1004880081317E1020008231492A2600BD01BE013B
:10049800BF01C00120302000B4000230B500003098
:1004A800B600B7004B30B8000030B90086312126BD
:1004B8008231783021009904FC3099058B1326008D
:1004C800CA01CB01CC01BC01CD01C101C10ABA01ED
:1004D800BB01C201C301C401C501C601C701200097
:1004E8008C013F3098059811303098041811181471
:1004F800210011141508F839023895009512951144
:100508008B1220008D0123008D010F3021008D00FA
:100518000F3024008D0021009513A7302000B4006F
:100528000030B5000030B600B7001430B800003015
:10053800B9008631212682312000D501D30121005E
:100548008E150E1623008E110E120E138E13210017
:100558000E138E1724001508F039083895001F303F
:100568009200951696131616171797169715971043
:10057800171014130B172100911592158B178E3134
:100588009B2682318A31C122823103302100C20088
:100598000830C1007730890BCF2AC10BCF2AC20B94
:1005A800CF2A8A31F522823103302100C200083077
:1005B800C1007730890BDE2AC10BDE2AC20BDE2A86
:1005C8008B310023823103302100C2000830C10082
:1005D8007730890BED2AC10BED2AC20BED2A8A313F
:1005E800D822823103302100C2000830C1007730A0
:1005F800890BFC2AC10BFC2AC20BFC2A8B310B236A
:10060800823103302100C2000830C1007730890BE5
:100618000B2BC10B0B2BC20B0B2B2600C801C901DE
:10062800210046082600A500210045082600A40050
:10063800210044082600A300210043082600A20048
:10064800A001A1018A31C12282318A31D8228231A6
:100658009C302100C100D730890B302BC10B302BC7
:100668002100230826003E06031D3E2B21002208F8
:1006780026003D06031D412B422B512B210021084A
:1006880026004006031D4C2B2100200826003F06AB
:1006980003194F2B502BC62B512B21002308260062
:1006A800BE00210022082600BD00210021082600E6
:1006B800C000210020082600BF002000B901023038
:1006C8008E313B26823126003E082000BE002600DF
:1006D8003D082000BD0026302100C100410820004F
:1006E800BF008631F22682314B302100C10041081B
:1006F8002000C7007430C8009030C90020308D3108
:100708009A2582314B302100C10041082000C700E2
:100718002630C8000330C90020308D319A25823137
:10072800260040082000BE0026003F082000BD002B
:1007380026302100C10041082000BF008631F22682
:1007480082314B302100C10041082000C7008030B1
:10075800C8009030C90020308D319A2582314B3045
:100768002100C10041082000C7002630C80003301E
:10077800C90020308D319A25823120308C31C72430
:100788008231C62B260041080319CB2BCC2B402DD8
:10079800C1016A2C2000B90100308E313B2682311C
:1007A80054302000C1009030C2008C3119248231AD
:1007B800402D2000B90100308E313B268231333084
:1007C8002000C1009030C2008C31192482312100F0
:1007D80048082000BE00210047082000BD00263040
:1007E8002100C10041082000BF008631F226823175
:1007F80026302000C1000330C2008C311924823118
:10080800402D2000B90100308E313B268231643002
:100818002000C1009030C2008C3119248231402D53
:100828002000B90100308E313B2682311130200082
:10083800C1009030C2008C3119248231402D200033
:10084800B90100308E313B26823122302000C100B0
:100858009030C2008C3119248231210048082000D0
:10086800BE00210047082000BD0026302100C1003D
:1008780041082000BF008631F22682312630200050
:10088800C1000330C2008C3119248231402D200070
:10089800B90100308E313B26823100302000C10082
:1008A8009030C2008C3119248231402D2000B901CA
:1008B80000308E313B26823144302000C100903018
:1008C800C2008C3119248231402D402D26004D085C
:1008D8002100C100C2014208003A0319742C5A2CA5
:1008E8004108003A0319CE2B013A0319DD2B033ACC
:1008F8000319052C823A0319142C013A0319232CE5
:10090800033A03194B2C5A2C402D402D8B31F023E0
:1009180082318A31E022823101302100C100410850
:10092800A4078B12200095012100A5018B16532DD9
:1009380002302506031DA12CA22C532D0130C10025
:100948004108A4078B12532D532D03302606031D8F
:10095800AE2CAF2CB12CA401532D02302606031D5A
:10096800B62CB72C532D8A31E02282318C316E247B
:1009780082318A31E022823101302100C1004108F0
:10098800A4078B12200095012100A5018B16532D79
:10099800532D532D02302506031DD32CD42C532D53
:1009A8000130C1004108A4078B12532D532D033089
:1009B8002606031DE02CE12CE32CA401532D023064
:1009C8002606031DE82CE92C532D0130C1004108EF
:1009D800A4074130C10041082300A0005430210081
:1009E800C10041082300A1000D302100C1004108C9
:1009F8002300A2000A302100C10041082300A300FF
:100A0800A40104302100C10041082000BE00A0302C
:100A18008C3143248231532D532D532D2600480801
:100A2800023EC8000030493DC90004304806490468
:100A3800031D1F2D202D232DC801C901232D13307F
:100A48002100C10041082000B90003308E313B2647
:100A5800823126004808223E2000C1000330C2002F
:100A68008C311924823101302100C1004108A407CA
:100A7800532D532D532D532D21002408C100C2019D
:100A88004208003A0319492D532D410884000730C4
:100A980004020318532D88310435003E82000130CA
:100AA8002600BA070030BB3D42302100C100410892
:100AB8002000B4004C302100C20042082000B500DC
:100AC8000D0801398731A827823144302100C1003F
:100AD80041082000B4004A302100C200420820002A
:100AE800B5000D0C01398731A82782314630210025
:100AF800C10041082000B4004B302100C200420868
:100B08002000B5000D0C890C01398731A8278231E6
:100B180026004A03031D912D922DBC2DC101C10A47
:100B2800CA01A72DBC2D21004708013EC70000308F
:100B3800483DC800BC2DBC2D0130C100410826002D
:100B4800CD07BC2DBC2D4D082100C100C2014208B3
:100B5800003A0319B02DA02D4108803A0319BC2D85
:100B6800013A0319972D033A0319BC2DA02DBC2D6A
:100B780026004B03031DC12DC22DEA2DC101C10A58
:100B8800CB01D52DEA2D21004708FF3EC700FF30D5
:100B9800483DC800EA2DEA2D01302600CD02EA2D95
:100BA800EA2D4D082100C100C2014208003A03198C
:100BB800DE2DD02D4108803A0319EA2D013A031998
:100BC800C72D033A0319EA2DD02DEA2D26004C0330
:100BD800031DEF2DF02D052EC101C10ACC013C08E3
:100BE800031DF72DF82D022EBC01BC0A4D08803ECE
:100BF8002100C10041082600CD00052EBC01052EAC
:100C0800052E4D0A031D092E0A2E132EC101C10AF5
:100C180002302100C10041082600CD00132E033008
:100C28004D06031D182E192E342BC101C10ACD0102
:100C3800342B342B342B8131E52920003508C100B1
:100C48003408C00038083904031D2B2E2C2E2E2EF4
:100C5800F12EF12E400886004108870036088100F1
:100C68003808FF3EBA00FF30393DBB003A0840075C
:100C7800BC003B08413DBD003C0886003D0887009C
:100C8800360881000030390203300319380203188E
:100C98004E2E4F2E512EF12EF12E4008013EBA0055
:100CA8000030413DBB003A0886003B088700360803
:100CB80081004008023EBA000030413DBB003A08BE
:100CC80086003B088700360881003808FE3EBA00D7
:100CD800FF30393DBB003A084007BC003B08413DA6
:100CE800BD003C0886003D088700360881003808AA
:100CF800FD3EBA00FF30393DBB003A084007BC0052
:100D08003B08413DBD003C0886003D088700360889
:100D18008100003039020730031938020318952E74
:100D2800962E982EF12EF12E4008033EBA00003080
:100D3800413DBB003A0886003B0887003608810021
:100D48003808FC3EBA00FF30393DBB003A0840077E
:100D5800BC003B08413DBD003C0886003D088700BB
:100D680036088100003039020930031938020318A7
:100D7800BE2EBF2EC12EF12EF12E4009BA00410918
:100D8800BB00BA0A0319BB0A03303A05BE0000309B
:100D98003B05BF003E08C0073F08C13D3E08B802FA
:100DA8003F08B93BFC30B805FF30B905EA2E4008CA
:100DB800860041088700360881000130B8020030FB
:100DC800B93B0130C0070030C13DEA2E380839046C
:100DD800031DEF2EF02EDB2EF12E08002000C4019B
:100DE800C601BE1FF82EF92E012FC401C40ABD0981
:100DF800BE09BD0A0319BE0A012F6430B4000030D1
:100E0800B5003E08B7003D08B6008E31FF26863192
:100E180020003408C0004008C5006430B400003029
:100E2800B5003E08B7003D08B6008D31DD25863196
:100E380020003508BE003408BD000A30B400003078
:100E4800B5003E08B7003D08B6008E31FF26863152
:100E580020003408C0004008C2000A30B400003046
:100E6800B5003E08B7003D08B6008D31DD25863156
:100E780020003508BE003408BD003D08C000400809
:100E8800C30044080319492F4A2F5A2F2D30C00098
:100E980046083F07C1004108860003308700400824
:100EA80081000130C0004008C6075A2F45080319C1
:100EB8005E2F5F2F702F4508303EC00046083F0761
:100EC800C1004108860003308700400881000130D6
:100ED800C0004008C607702F4208303EC0004608D0
:100EE8003F07C100410886000330870040088100A1
:100EF8000130C0004008C6072C30C00046083F0734
:100F0800C100410886000330870040088100013095
:100F1800C0004008C6074308303EC00046083F07E7
:100F2800C100410886000330870040088100013075
:100F3800C0004008C60746083F07C00040088600B2
:100F480003308700810108002000B8003808031D1D
:100F5800AE2FAF2FB92F3408860003308700013039
:100F6800810741310318810AC12F340886000330F4
:100F780087000030C03FC13FC12F340886000330CE
:100F880087001600D03AB6001600073AB604031DCB
:100F9800CE2FCF2FD62F350886000330870081014A
:100FA800810AD62F34088600033087001600403A9D
:100FB800B60016001F3AB604031DE32FE42FF32FE3
:100FC8003408860003308700D130C03F0730C13F66
:100FD80035088600033087008101810AF32F080055
:100FE8006400800101310130FE020030FF3B7F08C0
:100FF8007E04031DF52F003484318A2C84319C2C07
:101008008431A92C8431CE2C8431DB2C8531122DEE
:041018008531532D9E
:1015820001308A31EA228A31080021008C110E11C1
:101592008E100E10080021008C150E158E140E14DC
:1015A20008002B34003478340034D2340034023052
:1015B2008A31EA228A312000D901D90A08002000A2
:1015C2008D1EE42AE52AE72A8D12E92A8D16E92AD8
:1015D20008002000B9008C319A248A312000390891
:1015E2008B3116238A31080020005B080438BA00C8
:1015F2003A08DB005B088A31EA228A3108002000BF
:101602005B08FD39BA003A08DB005B088A31EA223E
:101612008B31080020005B08FE39BA003A08DB0073
:101622005B088A31EA228B3108002000B8008A3137
:10163200C6228B3120000C108C103808B700043001
:10164200B736890B212B37088D315E258B3120006F
:1016520038088D315E258B3108002000A400210856
:10166200F7002008F6002408F0000230F1008B3168
:1016720060238B3170082000A2007108A3002408A7
:1016820022078B3183238B31462B08002000C600B2
:101692004308BB004208BA004608B4000230B50055
:1016A2008B31A7238B3120003408C4003508C500D4
:1016B200460844078B31CB238B315F2B080071081E
:1016C200F5007008F4006A2B0130F0070030F13D9C
:1016D2006A2B70088400710885001200031D722BAA
:1016E200732B652B742B7409F2007509F300F20A4F
:1016F2000319F30A70087207F0007108733DF100D4
:10170200822B0800FC007708FB007608FA007C08B0
:10171200F8007808FD008E2B8E2B7D0886000230A3
:101722008700FD0A7B08F9007A08F800FA0A031913
:10173200FB0A78088400790885000008C03F890800
:10174200031DA42BA52B8E2BA62B080020003508E9
:10175200B9003408B800B22B0130B4070030B53DEF
:10176200B22B34088400350885001200031DBA2B01
:10177200BB2BAD2BBC2B3809B6003909B700B60A12
:101782000319B70A34083607B4003508373DB500E7
:10179200CA2B08002000C1003B08BF003A08BE0067
:1017A2004108BC003C08C000D72BD72B400886005C
:1017B20002308700C00A3F08BD003E08BC00BE0AD6
:1017C2000319BF0A3C0884003D0885000008C03F99
:1017D2008908031DED2BEE2BD72BEF2B08002000E1
:1017E200D2015508031DF62BF72B182C2100911559
:1017F20024009717B8302000B40034082100A70055
:1018020003302000B40034082100A800A9010430EC
:101812002000B40034082100AA0004302000B400E3
:101822003408D5002100A60124001614182C080043
:101832002000C601312C4208C4004108C3004608FA
:101842004307840044080318440A850000088F31C6
:1018520069278C3101302000C3004308C607312CB0
:101862004208C4004108C3004608430784004408F4
:101872000318440A85001200031D402C412C1C2C25
:10188200422C08002000C20051080319492C4A2C9E
:101892004C2C6D2C6D2CD0013E08BF003F08D100AE
:1018A200F030B4002230B5004208BF003F08B60055
:1018B2003E08C000C1014008B7004108B8008C31A1
:1018C200F5248C3123009C0101309B000E139E16DF
:1018D2001E129D172100111608002000D201550882
:1018E200031D742C752C992C210091153430200085
:1018F200B4000130B5000030B600B7001E30B800A9
:101902000030B900863121268C312000D801B9304F
:10191200C20042082100A70008302000C20042088D
:10192200D400D501D50A2100A60124001614992C51
:10193200080020000C108C148A31CC228C3101302A
:101942002000B7000030B800BE2C0C150032003267
:1019520020000C0CB400B40C340C0139B500B601F3
:101962003508B7003608B8000C11003200320032D8
:10197200003220000C1500320032200037033804F8
:101982000319C42CC52CA62CC62C08002000CA00A2
:101992004A08B4000230B5008B31A7238C312000F5
:1019A2003408C7004708C90049080319D92CDA2CA2
:1019B200F42C4A08C1000230C2008C3119248C3147
:1019C20020004A08B4000230B5000030B600B7006B
:1019D2004908C700C8014708B8004808B90086315D
:1019E20021268C31F42C080020003608B900390871
:1019F200BD003508BC003408BB00162D3D0886002A
:101A0200013087000108B9003908BA000130B90075
:101A12003908BD073B0886003C0887003A08810068
:101A22000130BB070030BC3D162D0130B70200303B
:101A3200B83B370A031D212D380A031D212D222D03
:101A4200FF2C232D08002000AE002E08F0000230EB
:101A5200F1008B3160238D3170092000A8007109DB
:101A6200A900A80A0319A90A25082807AA00290813
:101A72000318290AAB002A08FF3EAC00FF302B3DB9
:101A8200AD002708F1002608F0008B3160238D316C
:101A920020002D087102031D502D2C08700203181E
:101AA200532D542D5D2D2708A1002608A0002E08D5
:101AB2008B312E238D315D2D08002000B6000C15D0
:101AC2003608B4000330B436890B642D340801396A
:101AD200B500B50DB50DB50D0C083506F73935064F
:101AE2008C003608B4000230B436890B752D3408E8
:101AF2000139B500B50DB50D0E083506FB393506B1
:101B02008E0036360139B400B40D0E083406FD39A4
:101B120034068E0001303605B4000E083406FE3954
:101B220034068E000032003220000C1100320032E6
:101B320008002000CA004A08B4000230B5008B3108
:101B4200A7238D31200034092100BB002000350974
:101B52002100BC00BB0A0319BC0A2000470821006F
:101B62003B07BD003C0803183C0ABE003D08FF3E8F
:101B7200BF00FF303E3DC00020004908B5004808C4
:101B8200B4008B31A7238D3121004008200035029B
:101B9200031DCF2D21003F08200034020318D22D4F
:101BA200D32DDC2D4908C3004808C2004A088B31F6
:101BB20047238D31DC2D08002000BA01B71FE22D2A
:101BC200E32DEB2DB609B709B60A0319B70ABA0114
:101BD200BA0AEB2DB51FEE2DEF2DF52DB409B5097F
:101BE200B40A0319B50AF52D340835040319FA2D80
:101BF200FB2D2A2EB901B90A082E0130B435B50DD4
:101C0200890BFF2D0130B8003808B907082EB51F1F
:101C12000B2E0C2EFE2D0E2E0E2E35083702031D16
:101C2200142E34083602031C172E182E1D2E3408CB
:101C3200B6023508B73B1D2E0130B536B40C890B00
:101C42001E2E0130B902031D272E282E0E2E2A2EFB
:101C52002A2E3A0803192E2E2F2E352EB609B70931
:101C6200B60A0319B70A352E3708B5003608B4008C
:101C72003A2E08002000BC00BD016B2E3908BA00C4
:101C82003A08BD003908BA003A08D900812E39084D
:101C9200403EBA003A08BD003908143EBA003A087C
:101CA200D900812E3908143EBA003A08BD0039081D
:101CB200283EBA003A08D900812E3908543EBA00AB
:101CC2003A08BD0039083C3EBA003A08D900812ED4
:101CD200812E812E3C08BA00BB013B08003A031951
:101CE200732E812E3A08003A03193F2E013A031946
:101CF200482E033A0319532E013A03195E2E812E00
:101D02008C319A248E318A31C6228E3120000C10F9
:101D12008C103D08BA000430BA36890B8D2E3A0871
:101D220008388D315E258E3120003D088D315E25CB
:101D32008E31080023008C110E118E100E100C1023
:101D42008C100C1120008C110E118E100E100C1024
:101D52008C100C1121000C108C100C118C110E1116
:101D62008E100E1020000C108C100C114E30200022
:101D7200BA00EB30890BBB2EBA0BBB2E03308D3170
:101D82005E258E311A302000BA00F830890BC72E3A
:101D9200BA0BC72E000003308D315E258E31C8305C
:101DA200890BD12E03308D315E258E310D30890B9A
:101DB200D82E000002308D315E258E310D30890B18
:101DC200E02E000028308A31EA228E310F302000C6
:101DD200BA003A08DB000630BA003A08DA005B08BB
:101DE2008A31EA228E318A31C1228E3106308A311D
:101DF200EA228E312000D901D90A08002000BA0156
:101E0200B51F042F052F0D2FB409B509B40A031904
:101E1200B50ABA01BA0A0D2FB71F102F112F1B2FA7
:101E2200B609B709B60A0319B70A0130B80038086B
:101E3200BA061B2FBB01BC01340835040319222F3B
:101E4200232F582FB901B90A302F0130B435B50DFF
:101E5200890B272F0130B8003808B907302FB51F7A
:101E6200332F342F262F362F362F0130BB35BC0DA2
:101E7200890B372F35083702031D412F34083602EC
:101E8200031C442F452F4B2F3408B6023508B73BAD
:101E92003B144B2F0130B536B40C890B4C2F01305B
:101EA200B902031D552F562F362F582F582F3A0897
:101EB20003195C2F5D2F632FBB09BC09BB0A0319F1
:101EC200BC0A632F3C08B5003B08B400682F080029
:101ED2002000C0008A31C6228F3120000C148C10E1
:101EE2000A304006031D762F772FC92F143059026E
:101EF20003187C2F7D2F832FB90101308E313B26B1
:101F02008F31FF2F2830200059020318892F8A2F82
:101F1200902FB90102308E313B268F31FF2F3C309A
:101F2200200059020318962F972F9D2FB9010330D5
:101F32008E313B268F31FF2F2000B90100308E31C8
:101F42003B268F31FF2FFF2FFF2FFF2FFF2FC92F90
:101F52002000B90101308E313B268F31E02F200065
:101F6200B90102308E313B268F31E02F2000B901BA
:101F720003308E313B268F31E02F2000B901003033
:101F82008E313B268F312000D901E02FE02FE02F48
:101F920020005908BE00BF013F08003A0319D22FA2
:101FA200E02F3E08143A0319A92F3C3A0319B02F27
:101FB200143A0319B72F6C3A0319BE2FE02F8C3154
:101FC2009A248F318A31C6228F3120000C148C1052
:101FD2004008BE000430BE36890BEC2F3E088D311E
:101FE2005E258F31200040088D315E258F31003211
:101FF200003201302000BE003E08D90708002D340F
:1020020053346534743420344D346F34643465345D
:102012002D34203420342034203420340A34003447
:102022002D345334653474342034543469346D346B
:1020320065342D34203420342034203420340A34C2
:1020420000342D34533465347434203454346534BC
:102052006D3470342D342034203420342034203434
:102062000A340034543465346D34703420345334BB
:1020720065347434743469346E3467343A342034D9
:1020820020340A3400345734543446342034203453
:10209200203420342034203420342034203420349E
:1020A200203420340034543469346D34653420349F
:1020B200203420342034203420342034203420347E
:1020C2002034203400344D346F34643465343A346F
:1020D200203420342034203420342034203420345E
:1020E200203420340034483475346D346934643417
:1020F20069347434793420343A34203400340A3464
:10210200543465346D34703420343A34203400341D
:102112002C34423443344C344934463400342C3465
:062122004E343834003495
:020000040001F9
:04000E0082C7FFDDC9
:00000001FF
