:020000040000FA
:04000000813106291B
:100008007E1480312000911D0A280B28CC289111DC
:100018005808031910281128CC282400141E152864
:1000280016281C28210091112000D801D601CC28BF
:10003800141C1F2820284C282100541C242825285B
:100048004C28240011082000AF005908343E8600CF
:10005800013087002F0881000130AF002F08D90731
:100068002400141020005708590203183C283D2882
:1000780040282400961249282400961601302000B2
:10008800AF002F082100D307492824001616CC28D2
:100098002400941D502851286B2820005608031D61
:1000A800562857286B28580803195B285C28CC2841
:1000B8005608D43E860087010108240091000130CB
:1000C8002000AF002F08D607CC28CC28CC28240045
:1000D800161B6F287028A5282000560803197528B4
:1000E8007628A5285808560203187B287C288928D2
:1000F8005608D43E8600870101082400910001308B
:100108002000AF002F08D607CC282100541C8D28CA
:100118008E28A028200057085902031894289528EB
:100128009C284230890B9628003224009615CC284A
:1001380024001615CC28CC2824001615CC28CC2849
:10014800CC282400161FA928AA28B828161320008E
:1001580056080319B028B128B42824001615CC284D
:1001680024001615CC28CC284B302000AF002F08CF
:10017800A5005C30A6009030A700A03087319527F5
:100188008031CC28CC28CC28CC28CC28CC28CC280A
:100198002000921DD028D128DF2892114B30AF00C3
:1001A8002F08A5005530A6009030A700A030873151
:1001B80095278031DF282000111CE328E428042932
:1001C8008E313626803101302000AF002F08D50748
:1001D800111007305506031DF228F328F8284C3073
:1001E800970083309600F82808305506031DFD282F
:1001F800FE280429D5012100D101D10A04290429A6
:100208007E1009008131082921008E3113268131A1
:10021800E8008E3114268131E9008E3115268131AE
:10022800EA008E3116268131EB005230840000300E
:1002380085000B308E3128268131D1308400003082
:10024800850017308E312826813120308400013016
:10025800850032308E3128268131A030840001306B
:1002680085004B308E31282681317E102000813167
:100278003D292100C801C901BC01BD01CA01CB014A
:10028800BE01BF01A0302000B0000130B100003035
:10029800B200B3004B30B4000030B5008331D62330
:1002A8008131783021009904033099048B13CC01F3
:1002B800CD01C101D001C001C00ABA01BB01C20110
:1002C800C301C401C501C601C70120008C013F302C
:1002D8009805981130309804181118142100111439
:1002E80020008D0123008D010F3021008D000F307B
:1002F80024008D0021009513D4302000B000003078
:10030800B1000030B200B3001430B4000030B500C2
:100318008331D62381312000D801D60123008C01F6
:1003280021008C018E01FF308E0023008E110E12E9
:1003380024001508F039083895001F3092009516EA
:100348009613161617179716971597101710141354
:100358000B172100911592158B1786310A268131CA
:100368008E311726813103302000CE000830CD00B1
:100378007730890BBD29CD0BBD29CE0BBD298E3118
:100388004B26813103302000CE000830CD00773075
:10039800890BCC29CD0BCC29CE0BCC298E315626F6
:1003A800813103302000CE000830CD007730890B32
:1003B800DB29CD0BDB29CE0BDB298E312E268131B3
:1003C80003302000CE000830CD007730890BEA29B1
:1003D800CD0BEA29CE0BEA298E3161268131033013
:1003E8002000CE000830CD007730890BF929CD0BDD
:1003F800F929CE0BF9292100CE01CF016B08B700EE
:100408006A08B6006908B5006808B400B801B901FF
:100418008E31172681318E312E2681319C30200075
:10042800CD00D730890B162ACD0B162A1B2A21009E
:10043800530852060319212A222A5D2A530820004C
:10044800CD004D082100D2004908BD004808BC0075
:10045800220037082000CD00CE01220036082000F7
:10046800CF00D0014F08D000CF014D084F07210021
:10047800C80020004E08503D2100C9004B08BF00AD
:100488004A08BE00220039082000CD00CE01220013
:1004980038082000CF00D0014F08D000CF014D0808
:1004A8004F072100CA0020004E08503D2100CB0014
:1004B8005D2A49083D06031D632A48083C06031DBA
:1004C800662A672A722A4B083F06031D6D2A4A08C6
:1004D8003E060319702A712ACF2A722A2000B50114
:1004E80002308531AA258131210049082000B90050
:1004F800210048082000B800A030CD004D08BA00FF
:1005080085313E2581314B302000CD004D08C30098
:100518004030C4009030C500A03087315B2781315E
:100528004B302000CD004D08C300A030C40000307F
:10053800C500A03087315B27813121004B0820009E
:10054800B90021004A082000B800A030CD004D08AD
:10055800BA0085313E2581314B302000CD004D0851
:10056800C3004C30C4009030C500A03087315B27F1
:1005780081314B302000CD004D08C300A030C400AD
:100588000030C500A03087315B278131A03087312A
:10059800CF278131CF2A2100500840060319D52AD8
:1005A800D62A302B50082000CD004D082100C0006D
:1005B8001A2B2000B50100308531AA258131103071
:1005C8002000BD009030BE008F31A9278131302B2B
:1005D8002000B50100308531AA2581313030200056
:1005E800BD009030BE008F31A9278131302B20000B
:1005F800B50100308531AA25813120302000BD00A9
:100608009030BE008F31A9278131302B2000B501F1
:1006180000308531AA25813100302000BD0090309E
:10062800BE008F31A9278131302B302B2100500893
:100638002000CD00CE014E08003A0319242B0A2BC6
:100648004D08003A0319DD2A013A0319EC2A033A46
:100658000319FB2A0A2B302B21005103031D352BCC
:10066800362B772BD1018E316C2681310630200054
:10067800CD003030890B3E2BCD0B3E2B00008F3147
:100688005A27813108302000CD00C930890B4A2B08
:10069800CD0B4A2B00328F318027813121004E0843
:1006A800023ECE0000304F3DCF0004304E064F04CE
:1006B800031D5F2B602B632BCE01CF01632B1330FF
:1006C8002000CD004D08B50003308531AA258131C1
:1006D80021004E08B43E2000BD000030BE008F311E
:1006E800A9278131772B01302100BA070030BB3DA3
:1006F800C2302000CD004D08B000C130CE004E08F9
:10070800B1000D08013986315A268131C4302000E4
:10071800CD004D08B000CC30CE004E08B1000D0C15
:10072800013986315A268131C6302000CD004D0866
:10073800B000CD30CE004E08B1000D0C890C013947
:1007480086315A26813121004C03031DAC2BAD2B79
:10075800B52BCC0101302000CD004D082100D00779
:10076800B52B4D03031DB92BBA2BBE2BCD01013080
:10077800D002BE2B500A031DC22BC32BCA2B02303A
:100788002000CD004D082100D000CA2B03305006B0
:10079800031DCF2BD02B1B2AD0011B2A1B2A1B2A57
:1007A8008131062920003108BD003008BC0034081A
:1007B8003504031DE02BE12BE32BA62CA62C3C08CB
:1007C80086003D088700320881003408FF3EB600E5
:1007D800FF30353DB70036083C07B80037083D3DC7
:1007E800B9003808860039088700320881000030CF
:1007F80035020330031934020318032C042C062C89
:10080800A62CA62C3C08013EB60000303D3DB700A2
:100818003608860037088700320881003C08023E07
:10082800B60000303D3DB70036088600370887001F
:10083800320881003408FE3EB600FF30353DB7006F
:1008480036083C07B80037083D3DB900380886002F
:1008580039088700320881003408FD3EB600FF30B1
:10086800353DB70036083C07B80037083D3DB900AC
:1008780038088600390887003208810000303502C0
:1008880007300319340203184A2C4B2C4D2CA62C84
:10089800A62C3C08033EB60000303D3DB7003608A4
:1008A800860037088700320881003408FC3EB6000D
:1008B800FF30353DB70036083C07B80037083D3DE6
:1008C800B9003808860039088700320881000030EE
:1008D80035020930031934020318732C742C762C52
:1008E800A62CA62C3C09B6003D09B700B60A031988
:1008F800B70A03303605BA0000303705BB003A089E
:10090800BC073B08BD3D3A08B4023B08B53BFC3088
:10091800B405FF30B5059F2C3C0886003D088700CC
:10092800320881000130B4020030B53B0130BC0709
:100938000030BD3D9F2C34083504031DA42CA52C84
:10094800902CA62C08002000BC008E311C26843177
:1009580020000C168C130A303C06031DB42CB52C51
:10096800072D14305A020318BA2CBB2CC12CB50120
:1009780001308531AA2584313D2D283020005A02C6
:100988000318C72CC82CCE2CB50102308531AA25F6
:1009980084313D2D3C3020005A020318D42CD52C2C
:1009A800DB2CB50103308531AA2584313D2D20008B
:1009B800B50100308531AA2584313D2D3D2D3D2DD1
:1009C8003D2D3D2D072D2000B50101308531AA258B
:1009D80084311E2D2000B50102308531AA258431CD
:1009E8001E2D2000B50103308531AA2584311E2D26
:1009F8002000B50100308531AA2584312000DA01B4
:100A08001E2D1E2D1E2D20005A08BA00BB013B08C2
:100A1800003A0319102D1E2D3A08143A0319E72C31
:100A28003C3A0319EE2C143A0319F52C6C3A0319C5
:100A3800FC2C1E2D8F31D32784318E311C26843116
:100A480020000C168C133C08BA000430BA36890B07
:100A58002A2D3A0887311F27843120003C08873126
:100A68001F2784310032003201302000BA003A08D2
:100A7800DA07080064302000B0000030B1003908FF
:100A8800B3003808B20086319F268531200030082F
:100A9800BB003B08BC006430B0000030B10039082E
:100AA800B3003808B2008631E326853120003108CA
:100AB800B9003008B8000A30B0000030B100390879
:100AC800B3003808B20086319F26853120003008EF
:100AD800BB003B08BD000A30B0000030B100390847
:100AE800B3003808B2008631E3268531200031088A
:100AF800B9003008B8003808BB003B08BE003C0805
:100B0800303EBB003A08860087013B0881003D085B
:100B1800303EBB003A0A860087013B0881002C3032
:100B2800BB003A08023E860087013B0881003E0868
:100B3800303EBB003A08033E860087013B0881002F
:100B48003A08043E86008701810108002000B800A9
:100B5800B901DA2D3508B6003608B9003508B600EF
:100B68003608DA00F02D3508403EB6003608B900E0
:100B78003508143EB6003608DA00F02D3508143E64
:100B8800B6003608B9003508283EB6003608DA003F
:100B9800F02D3508543EB6003608B90035083C3EFD
:100BA800B6003608DA00F02DF02DF02D3808B60022
:100BB800B7013708003A0319E22DF02D3608003A3C
:100BC8000319AE2D013A0319B72D033A0319C22DA3
:100BD800013A0319CD2DF02D8F31D32785318E3170
:100BE8001C26853120000C128C133908B6000430FD
:100BF800B636890BFC2D3608083887311F27853112
:100C08002000390887311F278531080021000C1280
:100C18008C138C1220000C128C138C124E30200076
:100C2800B600EB30890B162EB60B162E0330873123
:100C38001F2786311A302000B600F830890B222E83
:100C4800B60B222E0000033087311F278631C830AB
:100C5800890B2C2E033087311F2786310D30890BE5
:100C6800332E0000023087311F2786310D30890B63
:100C78003B2E000028308E31402686310F30200070
:100C8800B6003608DC000630B6003608DB005C0823
:100C98008E31402686318E311726863106308E31C8
:100CA800402686312000DA01DA0A08002000B40064
:100CB8003408031D602E612E6A2E300886008701D5
:100CC8000130810741310318810A712E30088600EE
:100CD80087010030C03FC13F712E30088600870170
:100CE8001600D03AB2001600073AB204031D7D2E52
:100CF8007E2E842E3108860087018101810A842E88
:100D08003008860087011600403AB20016001F3AE4
:100D1800B204031D902E912E9E2E30088600870166
:100D2800D130C03F0730C13F3108860087018101BB
:100D3800810A9E2E08002000B501B6013008310452
:100D48000319A72EA82EDD2EB701B70AB52E01303C
:100D5800B035B10D890BAC2E0130B4003408B7079B
:100D6800B52EB11FB82EB92EAB2EBB2EBB2E01301F
:100D7800B535B60D890BBC2E31083302031DC62EBE
:100D880030083202031CC92ECA2ED02E3008B202F7
:100D98003108B33B3514D02E0130B136B00C890B75
:100DA800D12E0130B702031DDA2EDB2EBB2EDD2E2D
:100DB800DD2E3608B1003508B000E22E080020000C
:100DC800300831040319E92EEA2E192FB501B50AA6
:100DD800F72E0130B035B10D890BEE2E0130B4007D
:100DE8003408B507F72EB11FFA2EFB2EED2EFD2E77
:100DF800FD2E31083302031D032F30083202031C75
:100E0800062F072F0C2F3008B2023108B33B0C2FE6
:100E18000130B136B00C890B0D2F0130B502031D1E
:100E2800162F172FFD2E192F192F3308B10032084E
:100E3800B0001E2F08002000B2008C163208B00047
:100E48000330B036890B252F30080139B100B10DB8
:100E5800B10DB10D0C083106F73931068C00320896
:100E6800B0000230B036890B362F30080139B10096
:100E7800B10DB10D0C083106FB3931068C00323644
:100E88000139B000B00D0C083006FD3930068C0071
:100E980001303205B0000C083006FE3930068C00EF
:100EA8000032003220008C1200320032080020008C
:100EB800CC004C08B0000130B1008F3111278731C8
:100EC80020003009C6003109C700C60A0319C70A3D
:100ED80043084607C80047080318470AC9004808D6
:100EE800FF3ECA00FF30493DCB004508B100440829
:100EF800B0008F311127873120004B083102031DC4
:100F0800872F4A08300203188A2F8B2F942F450801
:100F1800BF004408BE004C088E31B1268731942F9B
:100F280008002000AE002E08F0000130F1008E31DC
:100F3800CA26873170092000A8007109A900A80AEB
:100F48000319A90A25082807AA0029080318290A45
:100F5800AB002A08FF3EAC00FF302B3DAD00270850
:100F6800F1002608F0008E31CA26873120002D08AE
:100F78007102031DC12F2C0870020318C42FC52F3E
:100F8800CE2F2708A1002608A0002E088E3198260B
:100F98008731CE2F08002000C6004608B000013077
:100FA800B1008F311127873120003008C300430872
:100FB800C50045080319E12FE22FFC2F4608BD00A4
:100FC8000130BE008F31A927873120004608B000C4
:100FD8000130B1000030B200B3004508C300C401BD
:100FE8004308B4004408B5008331D6238731FC2F69
:020FF8000800EF
:101C26002B3400347834003401308E3140268E3126
:101C3600080021008C110C118C100C1008002100DA
:101C46008C150C158C140C140800640080010131ED
:101C5600890B292E003402308E3140268E31200029
:101C6600DA01DA0A080020008D1E3A2E3B2E3D2EA0
:101C76008D123F2E8D163F2E08002000B5008F31A5
:101C8600D3278E31200035088E3180268E3108000C
:101C960020005C080438B6003608DC005C088E318B
:101CA60040268E31080020005C08FD39B600360853
:101CB600DC005C088E3140268E31080020005C086E
:101CC600FE39B6003608DC005C088E3140268E31BF
:101CD60008002100911520005808031D732E742E4C
:101CE6007F2EB830B00030082100D4002000D80183
:101CF600D80A240016147F2E08002000B4008E3166
:101D06001C268E3120000C128C133408B3000430CC
:101D1600B336890B8B2E330887311F278E3120006F
:101D2600340887311F278E3108002000A4002108BF
:101D3600F7002008F6002408F0000130F1008E318B
:101D4600CA268E3170082000A2007108A30024085C
:101D560022078E31ED268E31B02E08002000C200FB
:101D66003F08B7003E08B6004208B0000130B10097
:101D76008F3111278E3120003008C0003108C10094
:101D8600420840078F3135278E31C92E0800710869
:101D9600F5007008F400D42E0130F0070030F13D54
:101DA600D42E70088400710885001200031DDC2EF5
:101DB600DD2ECF2EDE2E7409F2007509F300F20A2D
:101DC6000319F30A70087207F0007108733DF100F9
:101DD600EC2E0800FC007708FB007608FA007C0869
:101DE600F8007808FD00F82EF82E7D0886000130F0
:101DF6008700FD0A7B08F9007A08F800FA0A031939
:101E0600FB0A78088400790885000008C03F890825
:101E1600031D0E2F0F2FF82E102F0800200031085B
:101E2600B5003008B4001C2F0130B0070030B13DBA
:101E36001C2F30088400310885001200031D242F52
:101E4600252F172F262F3409B2003509B300B20A01
:101E56000319B30A30083207B0003108333DB10028
:101E6600342F08002000BD003708BB003608BA0032
:101E76003D08B8003808BC00412F412F3C088600B9
:101E860001308700BC0A3B08B9003A08B800BA0A14
:101E96000319BB0A38088400390885000008C03FCA
:101EA6008908031D572F582F412F592F080020004E
:101EB6005808031D5F2F602F7F2F210091152400E6
:101EC6009717B8302000B00030082100D400033046
:101ED6002000B00030082100D500D60104302000D3
:101EE600B00030082100D70004302000B0003008D0
:101EF600D800240016147F2F080020005808031D60
:101F0600852F862FA82F2100911534302000B00090
:101F16000130B1000030B200B3001E30B400003012
:101F2600B5008331D6238F312000D901B930BE00E8
:101F36003E082100D40008302000BE003E08D7002D
:101F4600D801D80A24001614A82F08002000C201C0
:101F5600C12F3E08C0003D08BF0042083F0784006D
:101F660040080318400A850000088431A7248F31F1
:101F760001302000BF003F08C207C12F3E08C00045
:101F86003D08BF0042083F07840040080318400A86
:101F960085001200031DD02FD12FAC2FD22F0800A1
:101FA60020000C128C178E3122268F310130200032
:101FB600B3000030B400F72F8C1600320032200038
:101FC6000C0CB000B00C300C0139B100B201310874
:101FD600B3003208B4008C120032003200320032F4
:101FE60020008C160032003220003303340403191B
:101FF600FD2FFE2FDF2FFF2F0800573454344634B1
:10200600203420342034203420342034203420342A
:102016002034203420342034003448346F346D3476
:1020260065342034203420342034203420342034C5
:10203600203420342034203400345334653474344E
:1020460020344D346F34643465343A3420342034CB
:10205600203420342034203400345334653474342E
:102066002034543465346D3470343A34203420349A
:1020760020342034203420340034483475346D3410
:102086006934643469347434793420343A3420340D
:1020960000340A34543465346D34703420343A34A0
:1020A600203400342C34423443344C3449344634DE
:0A20B60000342C344E34383400346A
:020000040001F9
:04000E0084C7FFDDC7
:00000001FF
