:020000040000FA
:1000000080317928033401347E1480312000AC0122
:10001000AD01AE01AF018E31DC26803171082000C8
:10002000AD007008AC002C082D04031918281928FD
:100030002B286930A5002508A6002C08303EA50015
:100040002508A700A8012630A0000030A1009431A7
:10005000602480312B288A318C2280317108200065
:10006000AF007008AE002E082F0403193828392875
:100070004B287530A5002508A9002E08303EA500A4
:100080002508AA00AB012930A0000030A10094315E
:10009000602480314B282000111C4F2850286C28E8
:1000A0000130A5002508CF07111007304F06031DAA
:1000B0005A285B2860284C309700833096006028CF
:1000C00008304F06031D652866286C28CF01933140
:1000D0004C2380316C286C280B1D6F2870287728E2
:1000E0000B1101302000A5002508D80777287E10C5
:1000F000090080317B28C2308400923085005D3059
:1001000086000030870003309231F52280312200D2
:10011000803102208031ED00803103208031EE00FB
:100120001630840093308500B1308600013087009E
:100130000A309231F52280314E3084000030850043
:100140000F309231EF2280312100DE012200EB01DD
:10015000EC01A03084000130850011309231EF2293
:100160008031203084000230850044309231EF220B
:100170008031A0308400023085004B309231EF2274
:100180008031203084000330850046309231EF22E8
:100190008031A03084000330850046309231EF2258
:1001A00080317E1020008031D5282300A901210054
:1001B000D001D101D201D30100302000B000B10044
:1001C0004B30B2000030B300A0308E312826803191
:1001D000783021009904FC3099058B13DA01DB019A
:1001E000DC01CF01DD01CE01CE0ACC01CD01D4016D
:1001F000D501D601D701D801D90120008C013F30AB
:100200009805981130309804181118142100111411
:100210001508F83902389500951295118B122000B7
:100220008D0123008D010F3021008D000F3024003F
:100230008D002100951395313E258031933159234E
:1002400080318B178931BE2180319231D2228031A9
:1002500003302100AF000830AE007730890B2E2923
:10026000AE0B2E29AF0B2E2993312B238031033077
:100270002100AF000830AE007730890B3D29AE0B6E
:100280003D29AF0B3D2993313623803103302100C6
:10029000AF000830AE007730890B4C29AE0B4C29EB
:1002A000AF0B4C299231FB22803103302100AF008B
:1002B0000830AE007730890B5B29AE0B5B29AF0BA2
:1002C0005B2993314123803103302100AF00083096
:1002D000AE007730890B6A29AE0B6A29AF0B6A2909
:1002E0002100C801C901230038082100B300230000
:1002F00037082100B200230036082100B100230096
:1003000035082100B000CA01CB019231D2228031E0
:100310009231FB2280319C302100AE00D730890B16
:100320008F29AE0B8F2923009D171D169D111D13BC
:1003300015302100AF004B30AE00BE30890B9E2936
:10034000AE0B9E29AF0B9E290000A62983312223E4
:100350008031AD302100AE002E082000C100AF304A
:100360008431E8248031482A482A230030082100BB
:100370005106031DBF2923002F0821005006031D2D
:10038000C229C329D22923002E0821005306031DA8
:10039000CD2923002D08210052060319D029D12987
:1003A000482AD229230030082100D10023002F0839
:1003B0002100D00023002E082100D30023002D08A7
:1003C0002100D2002000B50102308831FC208031AC
:1003D000210051082000BA00210050082000B90077
:1003E000B4302100AE002E082000BB008C31C424A4
:1003F00080314B302100AE002E082000CB004D3064
:10040000CC009830CD00A0309731652780314B303B
:100410002100AE002E082000CB00B430CC0000300C
:10042000CD00A0309731652780312100530820008E
:10043000BA00210052082000B900B4302100AE00FB
:100440002E082000BB008C31C42480314B302100A9
:10045000AE002E082000CB007630CC009830CD00C6
:10046000A0309731652780314B302100AE002E0837
:100470002000CB00B430CC000030CD00A03097314C
:1004800065278031A03094318B248031482A482A56
:1004900001302100CC070030CD3DD430AE002E0815
:1004A0002000B000DC302100AF002F082000B10098
:1004B0000D0801399631DB268031D6302100AE009F
:1004C0002E082000B000DA302100AF002F082000F5
:1004D000B1000D0C01399631DB268031D830210076
:1004E000AE002E082000B000DB302100AF002F0846
:1004F0002000B1000D0C890C01399631DB268031CA
:1005000021005A03031D852A862AB32A9331032327
:1005100080312100CE01CE0ADA019F2AB32A2300BE
:100520003908013EB90000303A3DBA00B32AB32A77
:1005300001302100AE002E08DD07B32AB32A5D0882
:10054000AE00AF012F08003A0319A72A982A2E08F7
:10055000803A0319B32A013A03198F2A033A03197F
:10056000B32A982AB32A21005B03031DB82AB92AAB
:10057000E72ACE01CE0ADB019231D22280319231BC
:10058000FB228031D22AE72A23003908FF3EB90036
:10059000FF303A3DBA00E72AE72A01302100DD02A8
:1005A000E72AE72A21005D08AE00AF012F08003AD4
:1005B0000319DB2ACD2A2E08803A0319E72A013ACB
:1005C0000319C42A033A0319E72ACD2AE72A21008E
:1005D0005C03031DEC2AED2A072BCE01CE0ADC01B9
:1005E0004F08031DF42AF52A002BCF01CF0A5D081E
:1005F000803EAE002E08DD009231C9228031072BEB
:100600009231CD2280312100CF01072B072B210011
:100610005D0A031D0C2B0D2B142BCE01CE0A0230CC
:10062000AE002E08DD00142B03305D06031D192BD0
:100630001A2BA629CE01CE0ADD01A629A629A629B4
:1006400080317928CC2C8B2B0E302000CC004C082C
:100650002200EB006D302000BD009830BE008831D4
:100660004220833123302000BC009830BD0022009E
:100670006B082000CC004C08BE009331E523833189
:100680009F2B87302100A0009830A1006430A20089
:100690009830A30005302000CC004C082100A400B5
:1006A000A501A50A863124268331210020082000D7
:1006B000CD004D082200EB008E302000BD009830A8
:1006C000BE008831422083319F2B9F2BA630210012
:1006D000A0009830A1003F30A2009830A3003A302B
:1006E000A4000D30A50087315E278331210020084A
:1006F0002000CC004C082200EB007F302000BD0021
:100700009830BE008831422083319F2B2200EE01B9
:10071000EE0A9F2B9F2B22006D082000CC00CD01FC
:100720004D08003A0319952B862B4C0884000530A0
:1007300004020318862B903104350E3E82002200FD
:100740006B080319A42BA52BAC2B03302000CC0085
:100750004C082200EE00E72CEE01EE0AE72CE72C15
:100760002100DE0104302000CC004C082200EE0005
:10077000E72C9231C522833122006C06031DC12B68
:10078000C22BDB2B6C080319C62BC72BDB2B0130CC
:100790002000CC004C082100DE070A305E06031D55
:1007A000D22BD32BE72C05302000CC004C082200A4
:1007B000EE00E72CE72C9231C52283312000CC00DB
:1007C0004C082200EC002100DE01E72CE72C9231DE
:1007D000C5228331003A0319EE2BEF2BE72C45306D
:1007E0002000CC004C08BC00EB30CD004D08BD0013
:1007F000A03088310020833129006B08A03E86009C
:100800000430870081012200EE016B03FF3A2900CA
:100810006B072000CC004C08B00022006B08A03E03
:1008200096315B2683312000CD004D082900EA0077
:10083000832C1A2CAD302000B0009830B10002306B
:10084000B2000030B30029006A089731AE27833127
:10085000200030083104031D2E2C2F2C972C9E30A5
:10086000C2009830C3009431362483312200EE0157
:10087000EE0A03302000CC004C082200ED00972C3B
:10088000972C972CAD302000B0009830B10002308A
:10089000B2000030B30029006A089731AE278331D7
:1008A0002000300831040319562C572C6C2C0030D2
:1008B000B0009830B1001130B2000030B300290010
:1008C0006A089731AE278331200030083104031DB8
:1008D0006A2C6B2C972C6C2C9E30C2009830C30075
:1008E0009431362483312200EE01EE0A03302000D9
:1008F000CC004C082200ED00972C972C2200EE0132
:10090000EE0A972C972C22006D082000CC00CD0118
:100910004D08003A03198D2C7E2C4C0884000530BC
:10092000040203187E2C90310435183E8200220008
:100930006E08031D9C2C9D2CE72C29006A082000C2
:10094000BD000430BE0088314220833104302000D5
:10095000CC004C08B90029006B082000CD004D08E0
:10096000BA00E6308D31742583312000C200FF3992
:10097000031D0430C300943136248331033020003A
:10098000CC004C082200ED00EE01EE0AE72CE72C2B
:10099000E72CE72CE72CE72C22006E082000CC0087
:1009A000CD014D08003A0319D62CE72C4C08003A2B
:1009B00003198B2B013A0319E72C023A0319B02BC8
:1009C000073A0319B92B013A0319E72BE72C080062
:1009D0002100AC00230034082100A30023003308C9
:1009E0002100A200230032082100A10023003108C9
:1009F0002100A0003430860002308700A43084003B
:100A00000030850008302000C30016001A00C30B18
:100A1000052D0E2E0430C3004308BC00A0309731D2
:100A20002027843120003C083D040319182D192D7E
:100A3000202ED901D90A8B129501D8018B16202EB0
:100A4000202E02305806031D262D272D202E023081
:100A5000C3004308D9008B12202E202E93310C2383
:100A600084310530200030063104031D382D392D26
:100A70004A2DD9010130C3004308CE0706304E0687
:100A8000031D432D442D202E0630C3004308D900FA
:100A9000202E202E93310C23843103302000300689
:100AA0003104031D542D552D202E0830C30043085A
:100AB000B000B930953171258431200030083104FF
:100AC0000319632D642D202E0330C3004308D90081
:100AD0008B129501D8018B16202E202E202E202E31
:100AE00002305806031D752D762D202E0430C300CC
:100AF0004308D9008B12202E202E93310C238431F1
:100B00000530200030063104031D872D882D8A2DE5
:100B1000D901202E93310C2384310330200030067C
:100B20003104031D942D952D202E0830C300430859
:100B3000BC00A43093319E2384312100A61FA12D37
:100B4000A22DC32D26087F392000C300C40143080D
:100B5000C400C301C309C409C30A0319C40A21009C
:100B6000270820004307C60044080318440AC700AA
:100B700021002C0886000130870020004608C03F75
:100B80004708C13FCD2D21002C0886000130870089
:100B90002708C03F2608C13FCD2D2100A81FD12D19
:100BA000D22DF12D28087F392000C300C40143084D
:100BB000C400C301C309C409C30A0319C40A21003C
:100BC000290820004307C60044080318440AC70048
:100BD00041088600013087004608C03F4708C13FF2
:100BE000FC2D2000410886000130870021002908E3
:100BF000C03F2808C13FFC2D05302000C30043083A
:100C0000D9000130C1000030C200232E232E202E37
:100C1000202ECE01202E202E202E202E5908C3005B
:100C2000C4014408003A0319162E202E43088400FC
:100C3000073004020318202E90310435003E820054
:100C4000C101C201232E08000C3021002402031828
:100C50002A2E2B2E732E12302000B0009830B100B7
:100C60009331C1238631200030082100A6002000E6
:100C700031082100A70021082000B1002100200830
:100C80002000B0009331C1238631200030082100BC
:100C90002607A800200031082100273DA9002308CD
:100CA0002000B100210022082000B0009331C123B0
:100CB00086312000300821002807AA0020003108D2
:100CC0002100293DAB002A08033EAC0000302B3D3B
:100CD000AD0000302D02473003192C02031C712E89
:100CE000722E782E732EA001A1015D2F5D2F5D2F36
:100CF00020302000B6000130B7005930B8009830DD
:100D0000B90094310C24863120302000C700013016
:100D1000C800210021082000CA002100200820006E
:100D2000C90093316E23863120302000C700013086
:100D3000C800A230C9009830CA0093316E238631B2
:100D400020302000C7000130C80021002308200007
:100D5000CA00210022082000C90093316E23863189
:100D600020302000C7000130C800AA30C9009830E8
:100D7000CA0093316E2386310A3021002402031CFD
:100D8000C22EC32EFF2E0A302000B0000030B1006A
:100D900021002408A600A70126082000B200210097
:100DA00027082000B3008A31222286312000300833
:100DB000303E2100A80028082200E6000A3020006A
:100DC000B0000030B10021002408A600A7012608C9
:100DD0002000B200210027082000B30088319E20A7
:100DE0008631200030082100A8002808A40024082B
:100DF000303EA60026082200E700E801082F210067
:100E00002408303EA60026082200E600E701082F4D
:100E100020302000C7000130C8006630C900013012
:100E2000CA0093316E23863121002508031D192F36
:100E30001A2F272F20302000C7000130C80099301A
:100E4000C9009830CA0093316E238631342F203088
:100E50002000C7000130C8009430C9009830CA0093
:100E600093316E238631342F20302000B0000130C2
:100E7000B1009331C1238631200031082200EA00FD
:100E8000200030082200E90020302000BC000130A2
:100E9000BD00220069082100A60026082000BE002F
:100EA0009331E523863122006A082100A100220047
:100EB00069082100A0005D2F5D2F08002800ED01CA
:100EC000EE012100240825040319672F682FF52F50
:100ED00020302000B6000430B7003130B800983020
:100EE000B90094310C24873120302000C700043031
:100EF000C800210021082000CA002100200820008D
:100F0000C90093316E23873120302000C7000430A0
:100F1000C800A230C9009830CA0093316E238731CF
:100F200020302000C7000430C80021002308200022
:100F3000CA00210022082000C90093316E238731A6
:100F400020302000C7000430C800AA30C900983003
:100F5000CA0093316E23873120302000C70004304F
:100F6000C8000730CB004B08B8002100250820003E
:100F7000BA00210024082000B90066308A31FC2222
:100F800087312000C900FF39031D0430CA009331A6
:100F90006E23873120302000C7000430C80096300F
:100FA000C9009830CA0093316E2387312030200069
:100FB000B0000430B1009331C123873120003108E3
:100FC0002800EE00200030082800ED00203020002E
:100FD000BC000430BD0028006D082000CB004B0889
:100FE000BE009331E5238731F52F28006E082100DC
:0E0FF000A10028006D082100A000FE2F0800BF
:101000002000C0003C0852020318072808282328A3
:101010005208BE003D088600043087003E0881006B
:101020004008B0000430B1002030B2000330B300FB
:101030005208BE00BF013E08B4003F08B50095311C
:101040000F2588313F2820003C08BE003D0886005F
:10105000043087003E0881004008B0000430B10031
:101060002030B2000330B3003C08BE00BF013E0890
:10107000B4003F08B50095310F2588313F28200086
:10108000D20108002000C3018C286A282F308C313F
:101090002524883172308C312524883186282F30E0
:1010A0008C31252488316E308C3125248831862876
:1010B00020003E08C0003D08BF0043083F078400F1
:1010C00040080318400A850000088C312524883127
:1010D0008628862820003E08C0003D08BF0043083F
:1010E0003F07840040080318400A85000008C1003B
:1010F000C2014208003A03197E28582841080A3ADA
:1011000003194F28073A03194628582801302000B0
:10111000BF003F08C3078C283E08C0003D08BF0041
:1011200043083F07840040080318400A8500120066
:10113000031D9B289C286A289D2808002000B601D2
:10114000B31FA328A428AC28B209B309B20A031913
:10115000B30AB601B60AAC28B11FAF28B028B6282A
:10116000B009B109B00A0319B10AB6283008310430
:101170000319BB28BC28EB28B501B50AC9280130E2
:10118000B035B10D890BC0280130B4003408B50763
:10119000C928B11FCC28CD28BF28CF28CF28310897
:1011A0003302031DD52830083202031CD828D92861
:1011B000DE283008B2023108B33BDE280130B136F8
:1011C000B00C890BDF280130B502031DE828E9289F
:1011D000CF28EB28EB2836080319EF28F028F6284B
:1011E000B209B309B20A0319B30AF6283308B100E9
:1011F0003208B000FB2808002000B800B9012C29F3
:101200003508B6003608B9003508B6003608DA00E9
:1012100042293508403EB6003608B9003508143E6C
:10122000B6003608DA0042293508143EB600360802
:10123000B9003508283EB6003608DA0042293508DC
:10124000543EB6003608B90035083C3EB6003608B4
:10125000DA004229422942293808B600B701370886
:10126000003A0319342942293608003A03190029A3
:10127000013A03190929033A03191429013A0319F8
:101280001F2942299431E22488319231E3228831A6
:1012900020000C108C103908B6000430B636890BCB
:1012A0004E293608083896311F2688312000390823
:1012B00096311F2688310800F800F9018F2975083A
:1012C000F6007608F9007508F60076082000DA00C6
:1012D000A5297508403EF6007608F9007508143E09
:1012E000F60076082000DA00A5297508143EF600FD
:1012F0007608F9007508283EF60076082000DA0026
:10130000A5297508543EF6007608F90075083C3E9C
:10131000F60076082000DA00A529A529A529780875
:10132000F600F7017708003A03199729A5297608EE
:10133000003A03195F29013A03196929033A03198D
:101340007529013A03198129A5299431B6248931D7
:101350009231D722893120000C108C107908F600C8
:101360000430F636890BB129760808389531A7255F
:10137000893179089531A7258931080023008C111E
:101380000E118E100E100C108C100C1120008C11F0
:101390000E118E100E100C108C100C1121000C1060
:1013A0008C100C118C110E118E100E1020000C10D0
:1013B0008C100C114E302000B600EB30890BDE296A
:1013C000B60BDE29033096311F2689311A302000F2
:1013D000B600F830890BEA29B60BEA290000033081
:1013E00096311F268931C830890BF4290330963194
:1013F0001F2689310D30890BFB2900000230963100
:101400001F2689310D30890B032A000028309331C3
:10141000202389310F302000B6003608DC0006306A
:10142000B6003608DB005C08933120238931923105
:10143000D222893106309331202389312000DA010C
:10144000DA0A08002000B601B11F272A282A302A0C
:10145000B009B109B00A0319B10AB601B60A302AB7
:10146000B31F332A342A3E2AB209B309B20A031938
:10147000B30A0130B4003408B6063E2AB701B801F9
:10148000300831040319452A462A7B2AB501B50ADA
:10149000532A0130B035B10D890B4A2A0130B4000E
:1014A0003408B507532AB11F562A572A492A592A00
:1014B000592A0130B735B80D890B5A2A3108330241
:1014C000031D642A30083202031C672A682A6E2A28
:1014D0003008B2023108B33B37146E2A0130B136FE
:1014E000B00C890B6F2A0130B502031D782A792AC6
:1014F000592A7B2A7B2A360803197F2A802A862AC2
:10150000B709B809B70A0319B80A862A3808B1001A
:101510003708B0008B2A08002000111E902A912A5B
:10152000AB2A500851020318962A972AA52A510877
:10153000A03E860003308700010823009A00013096
:10154000F20072082000D107AB2AD101D00121009E
:101550001112AB2AAB2A2000911EAF2AB02AF32A1F
:1015600023001D19B42AB52ABA2A9D1CB82AB92A03
:10157000C92ABA2A1D0C0139F2000130F235890B53
:10158000BE2A1D0C890C01397207F3007308F400A0
:10159000F32A4630200052020318CF2AD02AE02A2C
:1015A00023001908F20020005208203E8600033074
:1015B0008700720881000130F2007208D207F32A16
:1015C00023001908F20020005208FF3E203E86004A
:1015D00003308700720881000330F2007208F400C3
:1015E000F32AF32AF32A7408F200F3017208F000D8
:1015F0007308F100FB2A08002000C300A030860019
:10160000013087003D308400003085000630BB008B
:1016100016001A00BB0B082BC6010E2B0A30B000B7
:101620000030B1003A08B3003908B2009531E32523
:101630008A3120003008BB0046083D3E8600870105
:101640003B0881000A30B0000030B1003A08B30016
:101650003908B200963197268A3120003108BA0045
:101660003008B9000130BB003B08C607063046060B
:1016700003193B2B3C2B4B2B3808FF3EBB00FF30A4
:1016800003180030BC0046083B063C04031D492BF0
:101690004A2B4E2B4B2B00308C2B8C2B39083A04C9
:1016A000031D532B542B0E2B552BC401C501C40114
:1016B000C501732B20004403FF3A4607FF3E3D3E21
:1016C000860087010108303EBB0044084307BC0088
:1016D0003C088600043087003B0881000130C407C5
:1016E0000030C53D732B4508803ABB0080303B027B
:1016F000031D7C2B46084402031C7F2B802B5A2B96
:10170000812B200044084307BB003B0886000430BF
:101710008700810143088C2B0800FC000D307C06FB
:10172000031D932B942B962B242C242C9231D722FF
:101730008B3120000C148C100A307C06031DA12B69
:10174000A22BEF2B14305A020318A72BA82BAE2B79
:10175000F501013089315C218B31242C28302000A7
:101760005A020318B42BB52BBB2BF501023089317B
:101770005C218B31242C3C3020005A020318C12BF1
:10178000C22BC82BF501033089315C218B31242C0D
:10179000F501003089315C218B31242C242C242C40
:1017A000242C242CEF2BF501013089315C218B3165
:1017B000062CF501023089315C218B31062CF501B4
:1017C000033089315C218B31062CF50100308931E1
:1017D0005C218B312000DA01062C062C062C20001F
:1017E0005A08FA00FB017B08003A0319F82B062C73
:1017F0007A08143A0319D32B3C3A0319D92B143A1B
:101800000319DF2B6C3A0319E52B062C9431B6240F
:101810008B319231D7228B3120000C148C107C0834
:10182000FA000430FA36890B122C7A089531A72574
:101830008B317C089531A7258B3100320032013085
:10184000FA007A082000DA0708002000BC000D30FA
:101850003C06031D2C2C2D2C2F2CC32CC32C923179
:10186000E3228C3120000C148C100A303C06031D3E
:101870003A2C3B2C8D2C14305A020318402C412C4E
:10188000472CB50101308831FC208C31C32C283025
:1018900020005A0203184D2C4E2C542CB501023056
:1018A0008831FC208C31C32C3C3020005A020318B4
:1018B0005A2C5B2C612CB50103308831FC208C3113
:1018C000C32C2000B50100308831FC208C31C32CA2
:1018D000C32CC32CC32CC32C8D2C2000B50101308C
:1018E0008831FC208C31A42C2000B50102308831D5
:1018F000FC208C31A42C2000B50103308831FC2061
:101900008C31A42C2000B50100308831FC208C31B2
:101910002000DA01A42CA42CA42C20005A08BA0020
:10192000BB013B08003A0319962CA42C3A08143A40
:1019300003196D2C3C3A0319742C143A03197B2CAF
:101940006C3A0319822CA42C9431E2248C3192310C
:10195000E3228C3120000C148C103C08BA000430B7
:10196000BA36890BB02C3A0896311F268C312000EC
:101970003C0896311F268C310032003201302000A5
:10198000BA003A08DA0708002000C001C201BA1FF5
:10199000CA2CCB2CD32CC001C00AB909BA09B90A88
:1019A0000319BA0AD32C6430B0000030B1003A08F1
:1019B000B3003908B2008A3122228C31200030086D
:1019C000BC003C08C1006430B0000030B1003A08EF
:1019D000B3003908B20088319E208C3120003108D4
:1019E000BA003008B9000A30B0000030B1003A083F
:1019F000B3003908B2008A3122228C31200030082D
:101A0000BC003C08BE000A30B0000030B1003A080B
:101A1000B3003908B20088319E208C312000310893
:101A2000BA003008B9003908BC003C08BF004008C3
:101A300003191B2D1C2D2B2D2D30BC0042083B07FC
:101A4000BD003D08860087013C0881000130BC00D4
:101A50003C08C2072B2D410803192F2D302D402D96
:101A60004108303EBC0042083B07BD003D088600EF
:101A700087013C0881000130BC003C08C207402DB2
:101A80003E08303EBC0042083B07BD003D088600D2
:101A900087013C0881000130BC003C08C2072C30A3
:101AA000BC0042083B07BD003D08860087013C089A
:101AB00081000130BC003C08C2073F08303EBC003A
:101AC00042083B07BD003D08860087013C088100B5
:101AD0000130BC003C08C20742083B07BC003C0880
:101AE00086008701810108002000C1000A30B00093
:101AF0000030B1003A08BB00BC013B08B2003C0812
:101B0000B30088319E208D3120003008BD003D0893
:101B1000C0000A30B0000030B1003A08BB00BC0180
:101B20003B08B2003C08B3008A3122228D312000EC
:101B30003008BD003D08BA000A30B0000030B100E6
:101B40003A08BB00BC013B08B2003C08B300883136
:101B50009E208D3120003008BD003D08BF000A30B6
:101B6000B0000030B1003A08BB00BC013B08B20035
:101B70003C08B3008A3122228D3120003008BD009C
:101B80003D08BA003A08BB003B08BE0004303902E9
:101B90000318CB2DCC2DCF2D0030272E272E3E081D
:101BA0000319D32DD42DF72D3E08303EBB0041083C
:101BB0008600043087003B0881003F08303EBB00B0
:101BC000410A8600043087003B0881004008303E0F
:101BD000BB004108023E8600043087003B088100BC
:101BE0004108033E8600043087008101252E3F080E
:101BF0000319FB2DFC2D152E3F08303EBB0041087C
:101C00008600043087003B0881004008303EBB005E
:101C1000410A8600043087003B0881004108023EEB
:101C20008600043087008101252E4008303EBB002D
:101C300041088600043087003B088100410A860085
:101C4000043087008101252E252E4108272E08000B
:101C50002000B8003808B4003408B9003208330452
:101C6000031D332E342E362EDB2EDB2E3008B4002F
:101C70003908860002308700340881003008B4003B
:101C80003208FF3E3907B50035088600023087006C
:101C90003408810000303302033003193202031884
:101CA000522E532E552EDB2EDB2E3008B400390A6F
:101CB000860002308700340881003008B4003908FB
:101CC000023E860002308700340881003008B400EC
:101CD0003208FE3E3907B50035088600023087001D
:101CE000340881003008B4003208FD3E3907B500E1
:101CF0003508860002308700340881000030330246
:101D00000730031932020318862E872E892EDB2E08
:101D1000DB2E3008B4003908033E8600023087000D
:101D2000340881003008B4003208FC3E3907B500A1
:101D30003508860002308700340881000030330205
:101D40000930031932020318A62EA72EA92EDB2E66
:101D5000DB2E3909B4003A09B500B40A0319B50AF3
:101D600000303405B60000303505B7003608B40041
:101D70003408B9073608B2023708B33BFC30B20565
:101D8000FF30B305D42E3008B40039088600023085
:101D90008700340881000130B2020030B33B0130CB
:101DA000B4003408B907D42E32083304031DD92EE9
:101DB000DA2EC32EDB2E0800F4012000911DE12E47
:101DC000E22EED2F911156080319E72EE82EED2F84
:101DD0002400501CEC2EED2E732F141EF02EF12E2D
:101DE000F72E210091112000D601D301ED2F941D73
:101DF000FA2EFB2E112F20005308031D002F012F58
:101E0000112F5308503E860002308700010824003D
:101E100091002000DF01DF0A0130F2007208D307D1
:101E2000ED2F2400141C152F162F3D2F1108F20042
:101E3000200057083C3E860002308700720881006F
:101E40000130F2007208D707240014102000550852
:101E5000570203182C2F2D2F302F240096123A2FC3
:101E6000240096160330F20072082000DF00D4012F
:101E7000D40A3A2F24001616ED2F161B402F412F9F
:101E8000542F200053080319462F472F542F55086D
:101E9000570203184C2F4D2F502F24009615ED2F6D
:101EA00024001615ED2FED2F2400161F582F592F43
:101EB0006B2F16130530F20072082000DF00530864
:101EC0000319632F642F672F24001615ED2F2400AC
:101ED0001615ED2FED2FF401F40AED2FED2FED2F58
:101EE000ED2FED2FED2F141E762F772F932F21003E
:101EF00091112000D601D30102305F06031D812F0E
:101F0000822F872F0330F2007208DF00872F043002
:101F10005F06031D8C2F8D2FED2F0530F200720808
:101F2000DF00ED2FED2F941D962F972FAD2F200062
:101F30005308031D9C2F9D2FAD2FDF01DF0A53088F
:101F4000503E8600023087000108240091000130D5
:101F5000F20072082000D307ED2F2400161BB12FCA
:101F6000B22FD52F200053080319B72FB82FD52F24
:101F7000560853020318BD2FBE2FCC2F5308503ED6
:101F80008600023087000108240091000130F20031
:101F900072082000D307ED2F240016150230F2003E
:101FA00072082000DF00ED2FED2F2400161FD92F1F
:101FB000DA2FE22F161316150430F20072082000F3
:101FC000DF00ED2F0330F2007208F400ED2FED2F4B
:101FD000ED2FED2FED2FED2FED2F2000921DF12F86
:101FE000F22FF72F92110230F2007208F4007408F9
:101FF000F200F3017208F0007308F100FF2F0800EF
:1020000085310A2D8531212D85312E2D8531702D7B
:1020100085317D2D8631092E8631202E8331242B6A
:102020008331412B83319F2B8331862B8331662B68
:1020300084311A2C84311A2C8431972C84317E2CD3
:042040008431422C79
:1025840014341434033420005208C82A08002200EA
:10259400EE01ED0108002200EE01ED01ED0A080054
:1025A4000130933120239231080021008C110E1147
:1025B4008E100E10080021008C150E158E140E14AA
:1025C400080021008C110E118E100E10080021003D
:1025D4008C150E158E140E14080064008001013150
:1025E400890BF02A0034FE0012001E00FE0BF62AAE
:1025F400003402309331202392312000DA01DA0AC8
:1026040008002200EE0104302000B000300822004F
:10261400ED00080020005F08B200B3013208B000EA
:102624003308B100152B0800B834033400340434E3
:102634002B34003478340034D23400342000B50014
:102644009431E22493312000350893318623933169
:10265400080020005C080438B6003608DC005C087A
:10266400933120239331080020005C08FD39B60023
:102674003608DC005C0893312023933108002000E5
:102684005C08FE39B6003608DC005C089331202370
:1026940093310800053020005906031D522B532B9B
:1026A400582BD901582B582B582B582B0800230092
:1026B4000E138E1321000E138E172000D201230057
:1026C4009C0101309B000E139E161E129D172100C3
:1026D400111691160B17080020004808B10047088E
:1026E400B0009331C1239331200030084707B6006E
:1026F4003108483DB7004A08B9004908B800943188
:102704000C249331852B08002000B4009231E3227D
:10271400933120000C108C103408B3000430B3360D
:10272400890B912B330896311F26933120003408EE
:1027340096311F26933108002000BF005403031D67
:10274400A42BA52BC02B03305F06031DAA2BAB2B98
:10275400C02BD4013F08B0000030B1003C30B200BF
:102764000230B3003C08BD00BE013D08B4003E0881
:10277400B50095310F259331C02BC02B08002000E4
:102784003108B5003008B400CC2B0130B00700305C
:10279400B13DCC2B30088400310885001200031DA4
:1027A400D42BD52BC72BD62B3409B2003509B30053
:1027B400B20A0319B30A30083207B0003108333DB6
:1027C400B100E42B0800200050080319EA2BEB2B7E
:1027D400ED2B0B2C0B2C46303E020318F22BF32B63
:1027E4000B2CD1013E08BF003F08D000A030B00040
:1027F4000330B1003D08B3003C08B2003E08BF00FE
:10280400C0013F08B4004008B50095310F2593314D
:102814000B2C080020003908BF003808BE00370818
:10282400C1003608C000172C172C4108BB00400813
:10283400BA00C00A0319C10A3A0886003B08870097
:102844003F08BD003E08BC00BE0A0319BF0A3C088D
:1028540084003D0885000008C03F8908031D332C0F
:10286400342C172C352C08002000C7014E2C4308AB
:10287400C5004208C40047084407840045080318FB
:10288400450A850000088C3125249431013020004C
:10289400C4004408C7074E2C4308C5004208C400BE
:1028A40047084407840045080318450A85001200B8
:1028B400031D5D2C5E2C392C5F2C0800FD01782C47
:1028C40020002108A3002008A2007D08220784001C
:1028D40023080318230A850000088B318D239431C3
:1028E40001302000A2002208FD07782C20002108D6
:1028F400A3002008A2007D082207840023080318EF
:10290400230A85001200031D882C892C622C8A2C32
:1029140008002000CB004B08B0000230B100933116
:10292400C123943120003008C8004808CA004A086E
:1029340003199D2C9E2CB52C4B08C2000230C300F9
:1029440094313624943100302000B000B1004A089C
:10295400C800C9014808B2004908B3004B088E31C9
:1029640028269431B52C080020000C108C149231C8
:10297400DD2294310130F3000030F400DA2C200021
:102984000C150032003220000C0CF000F00C700C1E
:102994000139F100F2017108F3007208F4000C111E
:1029A400003200320032003220000C1500320032B6
:1029B400730374040319DF2CE02CC12CE12C0800F0
:1029C40020000C108C149231E92294310130200043
:1029D400B3000030B400062D0C1500320032200084
:1029E4000C0CB000B00C300C0139B100B20131084C
:1029F400B3003208B4000C1100320032003200324D
:102A040020000C1500320032200033033404031973
:102A14000C2D0D2DEE2C0E2D080020003308BB00CC
:102A24003208BA003108B9003008B800302D3A082D
:102A340084003B0885000008B6003608B700013062
:102A4400BA070030BB3D38088600390887003708CC
:102A540081000130B8070030B93D302D0130B40297
:102A64000030B53B340A031D3B2D350A031D3B2DB5
:102A74003C2D192D3D2D080021008E150E16230026
:102A84008E110E1200302000B000B1000130B200EF
:102A94000030B30050308E312826953100302000AC
:102AA400B000B1000130B2000030B3003C308E31D0
:102AB4002826953124001508F039083895001F3070
:102AC40092009516961316161717971697159710C2
:102AD400171014130B1721009115921508002000EC
:102AE400B30003305F060319782D792D802D05304E
:102AF4005F06031D7E2D7F2DA32D802D30085D02E2
:102B0400031C852D862DA32D3308B2003208240022
:102B1400D0002000D601D60A3008B2003208D50011
:102B2400D301D70121009115240097172000DF015C
:102B34002400161401302000B0000030B100A62D8E
:102B4400A62DB001B101A62D0800F20020000C153D
:102B54007208F0000330F036890BAD2D700801398E
:102B6400F100F10DF10DF10D0C087106F739710644
:102B74008C007208F0000230F036890BBE2D70080C
:102B84000139F100F10DF10D0E087106FB397106E2
:102B94008E0072360139F000F00D0E087006FD3912
:102BA40070068E0001307205F0000E087006FE39C2
:102BB40070068E000032003220000C110032003208
:102BC40008002000300831040319E92DEA2D192EDC
:102BD400B501B50AF72D0130B035B10D890BEE2DD5
:102BE4000130B4003408B507F72DB11FFA2DFB2DC1
:102BF400ED2DFD2DFD2D31083302031D032E30086C
:102C04003202031C062E072E0C2E3008B2023108A5
:102C1400B33B0C2E0130B136B00C890B0D2E0130B4
:102C2400B502031D162E172EFD2D192E192E33084D
:102C3400B1003208B0001E2E08002000B2000C15AE
:102C44003208B0000330B036890B252E3008013924
:102C5400B100B10DB10DB10D0C083106F7393106D3
:102C64008C003208B0000230B036890B362E3008A2
:102C74000139B100B10DB10D0E083106FB39310631
:102C84008E0032360139B000B00D0E083006FD3921
:102C940030068E0001303205B0000E083006FE39D1
:102CA40030068E000032003220000C110032003257
:102CB40008002000B200B301B401832E20003308C1
:102CC4003207B10031088600043087000A3001065B
:102CD40003196D2E6E2E7F2E33083207B100310892
:102CE4008600043087000D30010603197A2E7B2EEE
:102CF4007F2E32083307962E962E0130B30700300C
:102D0400B43D3408803AB10080303102031D8C2E6A
:102D140030083302031C8F2E902E602E912E20003B
:102D240032083007FE3E962E08002000B601B70197
:102D34003008310403199F2EA02ED52EB501B50AF3
:102D4400AD2E0130B035B10D890BA42E0130B40085
:102D54003408B507AD2EB11FB02EB12EA32EB32E5D
:102D6400B32E0130B635B70D890BB42E31083302BA
:102D7400031DBE2E30083202031CC12EC22EC82EE3
:102D84003008B2023108B33B3614C82E0130B136D4
:102D9400B00C890BC92E0130B502031DD22ED32EDF
:102DA400B32ED52ED52E3708B1003608B000DA2E52
:102DB40008002000B4003408031DE12EE22EEB2E9F
:102DC4003008860087010130810741310318810AE8
:102DD400F22E3008860087010030C03FC13FF22E3A
:102DE4003008860087011600D03AB2001600073A70
:102DF400B204031DFE2EFF2E052F31088600870125
:102E04008101810A052F3008860087011600403AA7
:102E1400B20016001F3AB204031D112F122F1F2FE8
:102E2400300886008701D130C03F0730C13F3108E8
:102E3400860087018101810A1F2F08002000C0003D
:102E440003305F060319272F282F2F2F05305F0625
:102E5400031D2D2F2E2F612F2F2F5E083C020318E8
:102E6400342F352F4D2F5030B0000230B1004008C0
:102E7400B2000030B3003C08BE00BF013E08B400FD
:102E84003F08B50095310F25973120003C08BE005E
:102E94003E08D600512FBC01BD01642F642FD3011D
:102EA40021009115240097172000DF012400161437
:102EB40001302000BC000030BD00642F642FBC0131
:102EC400BD01642F08002100A60026082000B000E0
:102ED4000230B1009331C123973120003009210021
:102EE400A000200031092100A100A00A0319A10AB1
:102EF40020004B0821002007A20021080318210A02
:102F0400A3002208FF3EA400FF30233DA5002000BB
:102F14004D08B1004C08B0009331C1239731210012
:102F2400250820003102031D9B2F210024082000C6
:102F3400300203189E2F9F2FAD2F2100260820005A
:102F4400C7000230C8004D08CA004C08C9009331BC
:102F54006E239731AD2F08002000B6003608B40068
:102F64003408B9003108B8003008B700C52F013063
:102F7400B2020030B33B0130B4003408B907013069
:102F8400B7070030B83D320833040319CA2FCB2FDA
:102F9400DD2F37088400380885000008B40039089C
:102FA400860004308700010834060319DA2FDB2F6A
:102FB400B92FDD2FDD2F32083304031DE22FE32F59
:102FC400E62FB001B101FF2F3708840038088500CF
:102FD4000008B400B501B409B509B40A0319B50A67
:102FE400390886000430870001083407B00035082A
:102FF4000318350AB100FF2FFF2F080041344C3469
:1030040052344534413444345934203443344F34F5
:103014004E344E344534433454344534443400340B
:10302400413454342B3443345734533441345034BE
:103034003D34223422342C34223422342C342C34A3
:103044000034413454342B34433457344D344F34E6
:10305400443445343D3432340D340A34003441347C
:1030640054342B3443344934503453345434413479
:10307400523454343D34223400343134393432340B
:103084002E343134363438342E3434342E3432340D
:10309400353435340034483475346D34693464342B
:1030A40069347434793420343A342034003441346B
:1030B40054342B34433457345334413450343D3432
:1030C4002234003431343234333434343534363405
:1030D4003734383400344134503420344D344F3490
:1030E400443445343A3400340A34543465346D3449
:1030F400703420343A342034003453344F3443345D
:103104004B34453454343A3400344D3465346334E8
:1031140063346F3473340034573449344634493497
:103124003A3400342C3430340D340A3400342C3422
:1031340031340D340A3400344F344B3421340034E8
:1031440022342C3422340034553444345034003482
:0C31540022342C3400344F344B3400344F
:020000040001F9
:04000E0082C7FFDDC9
:00000001FF
