:020000040000FA
:040000008031B12872
:100008007E1480318431E124803171082000A900F8
:100018007008A8002808290403191328142822287E
:100028002808303EA4002408A600A7012630A00016
:100038000030A1008A31DB22803122282000111CE7
:100048002628272843280130A4002408CE071110A9
:1000580007304E06031D3128322837284C309700C8
:1000680083309600372808304E06031D3C283D286B
:100078004328CE018931F5218031432843280B1DBF
:10008800462847284E280B1101302000A4002408D8
:10009800D9074E282000111E522853286E285008D0
:1000A8004F0203185828592868284F08F03E860040
:1000B80087012230873D010823009A000130200083
:1000C800A4002408CF076E28CF01D0012100111207
:1000D8006E286E282000911E72287328AF282300EE
:1000E8001D19772878287D289D1C7B287C28902836
:1000F8007D281D0C01392000A4000130A435890B8E
:10010800822823001D0C890C013920002407A50032
:1001180025082100E300AF28323020004D020318E3
:1001280096289728A728230019082000A4004D081E
:10013800A03E860002308700240881000130A40018
:100148002408CD07AF280330A40024082100E300C9
:10015800AF28AF28AF287E1009008031B328983027
:100168008400893085005E308600003087000030CA
:10017800FF0007308931E9218031923084008930CD
:100188008500E8308600003087000030FF00063028
:100198008931E9218031F030840022308500003037
:1001A800FE000130FF008931DD21803149308400B3
:1001B800003085001530FE000030FF008931DD2158
:1001C8008031DB308400003085000D30FE000030C7
:1001D800FF008931DD218031203084000130850025
:1001E8003C30FE000030FF008931DD218031A03035
:1001F8008400013085003230FE000030FF00893174
:10020800DD21803120308400023085004B30FE0033
:100218000030FF008931DD218031A03084000230B8
:1002280085003230FE000030FF008931DD21803149
:100238007E102000813120292100E301CD01CE016B
:10024800CF01D00120302000AA000230AB000030DE
:10025800AC00AD004B30AE000030AF008631072651
:100268008131783021009904FC3099058B13D7012E
:10027800D801D901CC01DA01CB01CB0AC901CA01E5
:10028800D101D201D301D401D501D60120008C01BE
:100298003F3098059811303098041811181421002F
:1002A80011141508F83902389500951295118B121A
:1002B80020008D0123008D010F3021008D000F30AB
:1002C80024008D00210095138A31022281312300F8
:1002D8000E138E1321000E138E172000CD0121005E
:1002E800911624001508F039083895001F3092003F
:1002F8009516961316161717971697159710171021
:1003080014130B172100911592158B178E31752632
:10031800813189317521813103302000C8000830CE
:10032800C7007730890B9629C70B9629C80B9629E1
:100338008931BC21813103302000C8000830C70052
:100348007730890BA529C70BA529C80BA5298931A1
:10035800C721813103302000C8000830C70077303A
:10036800890BB429C70BB429C80BB42989319F213B
:10037800813103302000C8000830C7007730890B6E
:10038800C329C70BC329C80BC3298931D22181319D
:1003980003302000C8000830C7007730890BD22905
:1003A800C70BD229C80BD2292100C501C6016B0889
:1003B800B0006A08AF006908AE006808AD00C70160
:1003C800C80189317521813189319F2181319C3062
:1003D8002000C700D730890BEF29C70BEF2915304C
:1003E8002000C8004B30C700BE30890BF929C70B65
:1003F800F929C80BF9290000012AE4302000C700B8
:100408004708BB00E6308331A923813120003B0334
:100418003C04031D102A112A8D2A210067084E0664
:10042800031D182A66084D06031D1B2A1C2A272AA5
:1004380065085006031D222A64084F060319252A59
:10044800262A8D2A272A6708CE006608CD00650867
:10045800D0006408CF002000AF0102308D31B325F1
:10046800813121004E082000B40021004D082000F1
:10047800B300B130C7004708B5008631D8268131AE
:100488004B302000C7004708BD002630BE00903022
:10049800BF0020308C31192481314B302000C70037
:1004A8004708BD00B130BE000030BF0020308C319D
:1004B80019248131210050082000B40021004F0880
:1004C8002000B300B130C7004708B5008631D826F0
:1004D80081314B302000C7004708BD003E30BE00C8
:1004E8009030BF0020308C31192481314B302000EE
:1004F800C7004708BD00B130BE000030BF00203043
:100508008C311924813120308B31862381318D2A19
:100518008D2A01302100C9070030CA3DD1302000A2
:10052800C7004708AA00D930C8004808AB000D0822
:1005380001398C31CB248131D3302000C7004708E2
:10054800AA00D730C8004808AB000D0C01398C311F
:10055800CB248131D5302000C7004708AA00D83005
:10056800C8004808AB000D0C890C01398C31CB242C
:10057800813121005703031DC22AC32AEE2ACB0169
:10058800CB0AD701D92AEE2A21006C08013EEC00DB
:1005980000306D3DED00EE2AEE2A01302000C70044
:1005A80047082100DA07EE2AEE2A5A082000C70079
:1005B800C8014808003A0319E22AD12A4708803AB4
:1005C8000319EE2A013A0319C82A033A0319EE2A35
:1005D800D12AEE2A21005803031DF32AF42A1C2BE2
:1005E800CB01CB0AD801072B1C2B21006C08FF3E3E
:1005F800EC00FF306D3DED001C2B1C2B0130210061
:10060800DA021C2B1C2B5A082000C700C801480816
:10061800003A0319102B022B4708803A03191C2BA8
:10062800013A0319F92A033A03191C2B022B1C2B34
:1006380021005903031D212B222B8C2BCB01CB0A24
:10064800D9014C08031D292B2A2B5E2BCC01CC0A7F
:100658005A08803E2000C70047082100DA00200021
:10066800CD012500A001A0302000AA000130AB0078
:100678003230AC009030AD000C30AE000030AF002E
:100688008B31B42381310D302000C7004708230087
:10069800AC000A302000C70047082300AD00AE01B7
:1006A8000E302000C7004708B600A0308B31022367
:1006B80081318C2B2000CD012500A001A030200025
:1006C800AA000130AB000030AC009030AD002630FD
:1006D800AE000030AF008B31B42381310D302000E3
:1006E800C70047082300C6000A302000C700470893
:1006F8002300C700C80128302000C7004708B600FB
:10070800A0308B31022381312100CC018C2B8C2B22
:1007180021005A0A031D912B922B9B2BCB01CB0A4C
:1007280002302000C70047082100DA009B2B033065
:100738005A06031DA02BA12B012ACB01CB0ADA01F3
:10074800012A012A012A8031B1282100AC002000A9
:1007580061082100A300200060082100A2002000F9
:100768005F082100A10020005E082100A000DB3006
:10077800860000308700A4308400003085000830EF
:100788002000BD0016001A00BD0BC62BCB2C043070
:10079800BD003D08B600A0308D3110258331200002
:1007A800360837040319D92BDA2BDD2CDA01DA0ADB
:1007B8008B129501D9018B16DD2CDD2C02305906E0
:1007C800031DE72BE82BDD2C0230BD003D08DA00C5
:1007D8008B12DD2CDD2C8931A721833105302000D7
:1007E8002A062B04031DF92BFA2B0B2CDA010130F6
:1007F800BD003D08CB0706304B06031D042C052C15
:10080800DD2C0630BD003D08DA00DD2CDD2C8931F9
:10081800A7218331033020002A062B04031D152C41
:10082800162CDD2C0830BD003D08AA00B9308B31EC
:10083800E323833120002A082B040319242C252CB8
:10084800DD2C0330BD003D08DA008B129501D9017B
:100858008B16DD2CDD2CDD2CDD2C02305906031D1A
:10086800362C372CDD2C0430BD003D08DA008B1205
:10087800DD2CDD2C8931A7218331053020002A06A3
:100888002B04031D482C492C4B2CDA01DD2C893113
:10089800A7218331033020002A062B04031D552C81
:1008A800562CDD2C0830BD003D08B600A4308A3136
:1008B800492283312100A61F622C632C832C260831
:1008C8007F392000BD00BE013D08BE00BD01BD0945
:1008D800BE09BD0A0319BE0A2100270820003D07EA
:1008E800C0003E0803183E0AC10021002C088600FB
:1008F800870120004008C03F4108C13F8C2C2100DF
:100908002C08860087012708C03F2608C13F8C2C89
:100918002100A81F902C912CAF2C28087F3920008B
:10092800BD00BE013D08BE00BD01BD09BE09BD0A2E
:100938000319BE0A2100290820003D07C0003E080F
:1009480003183E0AC1003B08860087014008C03FE3
:100958004108C13FB92C20003B08860087012100CF
:100968002908C03F2808C13FB92C05302000BD0028
:100978003D08DA000130BB000030BC00E02CE02C60
:10098800DD2CDD2CCB01DD2CDD2CDD2CDD2C5A08FB
:10099800BD00BE013E08003A0319D32CDD2C3D08EA
:1009A8008400073004020318DD2C87310435F23E39
:1009B8008200BB01BC01E02C0800F4012000911D5D
:1009C800E62CE72CF42D911155080319EC2CED2C8D
:1009D800F42D2200481CF12CF22C792D2400141E31
:1009E800F62CF72CFD2C210091112000D501D20105
:1009F800F42D941D002D012D172D20005208031DE4
:100A0800062D072D172D5208483E86000130870015
:100A18000108240091002000E401E40A0130F200FA
:100A28007208D207F42D2400141C1B2D1C2D432DF5
:100A38001108F20020005808343E86000130870073
:100A4800720881000130F2007208D80724001410DF
:100A58002000540858020318322D332D362D240057
:100A68009612402D240096160330F20072082000DA
:100A7800E400D301D30A402D24001616F42D161BCA
:100A8800462D472D5A2D2000520803194C2D4D2D67
:100A98005A2D540858020318522D532D562D240050
:100AA8009615F42D24001615F42DF42D2400161F88
:100AB8005E2D5F2D712D16130530F200720820008F
:100AC800E40052080319692D6A2D6D2D24001615AE
:100AD800F42D24001615F42DF42DF401F40AF42D48
:100AE800F42DF42DF42DF42DF42D2400141E7D2D59
:100AF8007E2D9A2D210091112000D501D2010230BE
:100B08006406031D882D892D8E2D0330F20072088E
:100B1800E4008E2D04306406031D932D942DF42DCE
:100B28000530F2007208E400F42DF42D941D9D2D7B
:100B38009E2DB42D20005208031DA32DA42DB42DE5
:100B4800E401E40A5208483E8600013087000108A3
:100B5800240091000130F20072082000D207F42D21
:100B68002400161BB82DB92DDC2D200052080319BE
:100B7800BE2DBF2DDC2D550852020318C42DC52DDE
:100B8800D32D5208483E8600013087000108240012
:100B980091000130F20072082000D207F42D2400E1
:100BA80016150230F20072082000E400F42DF42D2E
:100BB8002400161FE02DE12DE92D1613161504301B
:100BC800F20072082000E400F42D0330F2007208ED
:100BD800F400F42DF42DF42DF42DF42DF42DF42D32
:100BE8002000921DF82DF92DFE2D92110230F200F1
:100BF8007208F4007408F200F3017208F000730838
:100C0800F100062E080020002B08B7002A08B600BD
:100C18002E082F04031D112E122E142ED72ED72E78
:100C280036088600370887002C0881002E08FF3E0A
:100C3800B000FF302F3DB10030083607B200310850
:100C4800373DB30032088600330887002C0881003E
:100C580000302F02033003192E020318342E352ECC
:100C6800372ED72ED72E3608013EB0000030373D3C
:100C7800B10030088600310887002C08810036084A
:100C8800023EB0000030373DB10030088600310820
:100C980087002C0881002E08FE3EB000FF302F3D53
:100CA800B10030083607B2003108373DB3003208CA
:100CB8008600330887002C0881002E08FD3EB0000E
:100CC800FF302F3DB10030083607B2003108373DFC
:100CD800B30032088600330887002C0881000030F2
:100CE8002F02073003192E0203187B2E7C2E7E2E2E
:100CF800D72ED72E3608033EB0000030373DB1005E
:100D080030088600310887002C0881002E08FC3E38
:100D1800B000FF302F3DB10030083607B20031086F
:100D2800373DB30032088600330887002C0881005D
:100D380000302F02093003192E020318A42EA52E05
:100D4800A72ED72ED72E3609B0003709B100B00A22
:100D58000319B10A03303005B40000303105B5007D
:100D68003408B6073508B73D3408AE023508AF3B3E
:100D7800FC30AE05FF30AF05D02E360886003708A8
:100D880087002C0881000130AE020030AF3B0130F3
:100D9800B6070030B73DD02E2E082F04031DD52EE0
:100DA800D62EC12ED72E08002000BA01BC01B41FD0
:100DB800DE2EDF2EE72EBA01BA0AB309B409B30A48
:100DC8000319B40AE72E6430AA000030AB003408D7
:100DD800AD003308AC0087318827863120002A0807
:100DE800B6003608BB006430AA000030AB003408F7
:100DF800AD003308AC008D315525863120002B0815
:100E0800B4002A08B3000A30AA000030AB00340846
:100E1800AD003308AC0087318827863120002A08C6
:100E2800B6003608B8000A30AA000030AB00340813
:100E3800AD003308AC008D315525863120002B08D4
:100E4800B4002A08B3003308B6003608B9003A08D7
:100E580003192F2F302F3F2F2D30B6003C083507B0
:100E6800B700370886008701360881000130B600D0
:100E78003608BC073F2F3B080319432F442F542F34
:100E88003B08303EB6003C083507B70037088600F7
:100E98008701360881000130B6003608BC07542F98
:100EA8003808303EB6003C083507B70037088600DA
:100EB8008701360881000130B6003608BC072C309F
:100EC800B6003C083507B7003708860087013608A2
:100ED80081000130B6003608BC073908303EB6003C
:100EE8003C083507B70037088600870136088100B7
:100EF8000130B6003608BC073C083507B60036088E
:100F080086008701810108002000B001AB1F8D2FEA
:100F18008E2F962FAA09AB09AA0A0319AB0AB001AA
:100F2800B00A962FAD1F992F9A2FA42FAC09AD099F
:100F3800AC0A0319AD0A0130AE002E08B006A42F82
:100F4800B101B2012A082B040319AB2FAC2FE12FF2
:100F5800AF01AF0AB92F0130AA35AB0D890BB02FFD
:100F68000130AE002E08AF07B92FAB1FBC2FBD2F25
:100F7800AF2FBF2FBF2F0130B135B20D890BC02F56
:100F88002B082D02031DCA2F2A082C02031CCD2F63
:100F9800CE2FD42F2A08AC022B08AD3B3114D42F06
:100FA8000130AB36AA0C890BD52F0130AF02031DD7
:100FB800DE2FDF2FBF2FE12FE12F30080319E52F98
:100FC800E62FEC2FB109B209B10A0319B20AEC2FC6
:100FD8003208AB003108AA00F12F08008331CB2B6F
:100FE8008331E22B8331EF2B8431312C84313E2C39
:080FF8008431C62C8431DD2C8C
:1012EA0001308931B1218931080021008C110E1198
:1012FA008E100E10080021008C150E158E140E1477
:10130A00080021008C110E118E100E100800210009
:10131A008C150E158E140E1408002B3400347834F4
:10132A000034D2340034B83403340034043414346E
:10133A001434033402308931B12189312000DB01B0
:10134A00DB0A080020006408AC00AD012C08AA00E2
:10135A002D08AB00B02908002000AF008B315923BB
:10136A00893120002F088A3118228931080020008B
:10137A005D080438B0003008DD005D088931B1210C
:10138A008931080020005D08FD39B0003008DD0011
:10139A005D088931B1218931080020005D08FE39D4
:1013AA00B0003008DD005D088931B12189310800BB
:1013BA006400800101310130FE020030FF3B7F08EA
:1013CA007E04031DDE290034FE0012001E000130D7
:1013DA00FE020030FF3B7F087E04031DEA29003429
:1013EA00053020005A06031DFB29FC29012ADA01CF
:1013FA00012A012A012A012A080021008E150E1647
:10140A0023008E110E1248302000AA000130AB00D2
:10141A000030AC00AD000130AE000030AF008631C4
:10142A0007268A3108002000AE00893186218A31D8
:10143A0020000C108C102E08AD000430AD36890B3C
:10144A00232A2D088C318F248A3120002E088C31D2
:10145A008F248A3108002000BC003908B1003808FE
:10146A00B0003C08AA000230AB008A316C228A31F3
:10147A0020002A08BA002B08BB003C083A078A3128
:10148A0090228A31482A08002000B9005303031D1C
:10149A004F2A502A6B2A03306406031D552A562AFE
:1014AA006B2AD3013908AA000030AB003430AC00F3
:1014BA000130AD003608B700B8013708AE00380869
:1014CA00AF008B31B4238A316B2A6B2A08002000C3
:1014DA002B08AF002A08AE00772A0130AA0700308D
:1014EA00AB3D772A2A0884002B0885001200031DC9
:1014FA007F2A802A722A812A2E09AC002F09AD0080
:10150A00AC0A0319AD0A2A082C07AA002B082D3D9C
:10151A00AB008F2A08002000B7003108B500300858
:10152A00B4003708B2003208B6009C2A9C2A360852
:10153A00860002308700B60A3508B3003408B200C4
:10154A00B40A0319B50A3208840033088500000872
:10155A00C03F8908031DB22AB32A9C2AB42A08006C
:10156A002000BB01CB2A3B08B900BA01390837076A
:10157A0086003A08383D870001088F3169278A3189
:10158A0001302000B9003908BB07CB2A3B08B90053
:10159A00BA013908370786003A08383D870001083A
:1015AA00031DD82AD92AB82ADA2A0800FD01F12A05
:1015BA007D082000A200A301220820078600230834
:1015CA00213D870001088E31D9268A310130200059
:1015DA00A2002208FD07F12A7D082000A200A3012B
:1015EA002208200786002308213D87000108031DE1
:1015FA00FF2A002BDD2A012B08002000B900500821
:10160A000319082B092B0B2B2C2B2C2BCF0136085B
:10161A00B7003708D000F030AA002230AB003908F2
:10162A00AC000130AD003608B700B8013708AE008B
:10163A003808AF008B31B4238B3123009C01013071
:10164A009B000E139E161E129D17210011160800EC
:10165A0020000C108C14893180218B310130F30069
:10166A000030F400512B20000C150032003220000B
:10167A000C0CF000F00C700C0139F100F201710849
:10168A00F3007208F4000C1100320032003200320A
:10169A0020000C1500320032730374040319562B10
:1016AA00572B382B582B080020000C108C1489312A
:1016BA008C218B3101302000AD000030AE007D2B33
:1016CA000C150032003220000C0CAA00AA0C2A0CBD
:1016DA000139AB00AC012B08AD002C08AE000C118F
:1016EA00003200320032003220000C150032003283
:1016FA0020002D032E040319832B842B652B852BA5
:10170A0008002000BF003F08AA000230AB008A315F
:10171A006C228B3120002A08BC003C08BE003E081F
:10172A000319982B992BB32B3F08B7000230B80046
:10173A008A31B5228B3120003F08AA000230AB0063
:10174A000030AC00AD003E08BC00BD013C08AE0054
:10175A003D08AF00863107268B31B32B08002000E5
:10176A002D08B5002C08B4002B08B3002A08B200D3
:10177A00D52B34088400350885000008B0003008ED
:10178A00B1000130B4070030B53D32088600330895
:10179A008700310881000130B2070030B33DD52BF4
:1017AA000130AE020030AF3B2E0A031DE02B2F0A98
:1017BA00031DE02BE12BBE2BE22B08002000AD001D
:1017CA00033064060319EA2BEB2BF22B053064066F
:1017DA00031DF02BF12B152CF22B2A086202031C95
:1017EA00F72BF82B152C2D08AC002C082200C8006A
:1017FA002000D501D50A2A08AC002C08D400D20151
:10180A00D80121009115240097172000E401240033
:10181A00161401302000AA000030AB00182C182C36
:10182A00AA01AB01182C08002000C6004608AA002D
:10183A000230AB008A316C228C3120002A09C000A8
:10184A002B09C100C00A0319C10A3D084007C2009A
:10185A0041080318410AC3004208FF3EC400FF3092
:10186A00433DC5003F08AB003E08AA008A316C22FE
:10187A008C31200045082B02031D452C44082A02FE
:10188A000318482C492C522C3F08B9003E08B800CE
:10189A0046088A3130228C31522C0800F20020008E
:1018AA000C157208F0000330F036890B592C7008B9
:1018BA000139F100F10DF10DF10D0C087106F7393E
:1018CA0071068C007208F0000230F036890B6A2C1F
:1018DA0070080139F100F10DF10D0E087106FB399E
:1018EA0071068E0072360139F000F00D0E0870068E
:1018FA00FD3970068E0001307205F0000E08700680
:10190A00FE3970068E000032003220000C110032BF
:10191A00003208002000AC000C152C08AA00033085
:10192A00AA36890B952C2A080139AB00AB0DAB0DF1
:10193A00AB0D0C082B06F7392B068C002C08AA00D5
:10194A000230AA36890BA62C2A080139AB00AB0D46
:10195A00AB0D0E082B06FB392B068E002C360139EF
:10196A00AA00AA0D0E082A06FD392A068E000130A1
:10197A002C05AA000E082A06FE392A068E00003215
:10198A00003220000C110032003208002000AE00A4
:10199A002E08031DD12CD22CDB2C2A0886008701A5
:1019AA000130810741310318810AE22C2A08860096
:1019BA0087010030C03FC13FE22C2A088600870118
:1019CA001600D03AAC001600073AAC04031DEE2C00
:1019DA00EF2CF52C2B08860087018101810AF52C52
:1019EA002A08860087011600403AAC0016001F3A02
:1019FA00AC04031D012D022D0F2D2A088600870134
:101A0A00D130C03F0730C13F2B08860087018101D2
:101A1A00810A0F2D08002000BA000330640603195A
:101A2A00172D182D1F2D05306406031D1D2D1E2D83
:101A3A00512D1F2D630836020318242D252D3D2D07
:101A4A004830AA000130AB003A08AC000030AD00C3
:101A5A003608B800B9013808AE003908AF008B3132
:101A6A00B4238D3120003608B8003808D500412D3E
:101A7A00B601B701542D542DD2012100911524002D
:101A8A0097172000E4012400161401302000B60044
:101A9A000030B700542D542DB601B701542D08005B
:101AAA002000B001AD1F5A2D5B2D632DAC09AD0985
:101ABA00AC0A0319AD0AB001B00A632DAB1F662D3B
:101ACA00672D6D2DAA09AB09AA0A0319AB0A6D2D58
:101ADA002A082B040319722D732DA22DAF01AF0A08
:101AEA00802D0130AA35AB0D890B772D0130AE0060
:101AFA002E08AF07802DAB1F832D842D762D862DC2
:101B0A00862D2B082D02031D8C2D2A082C02031C5E
:101B1A008F2D902D952D2A08AC022B08AD3B952DC3
:101B2A000130AB36AA0C890B962D0130AF02031D8A
:101B3A009F2DA02D862DA22DA22D30080319A62D8A
:101B4A00A72DAD2DAC09AD09AC0A0319AD0AAD2D0F
:101B5A002D08AB002C08AA00B22D08002000B20004
:101B6A00B301E32D2F08B0003008B3002F08B000EE
:101B7A003008DB00F92D2F08403EB0003008B300D2
:101B8A002F08143EB0003008DB00F92D2F08143E50
:101B9A00B0003008B3002F08283EB0003008DB0040
:101BAA00F92D2F08543EB0003008B3002F083C3EF0
:101BBA00B0003008DB00F92DF92DF92D3208B000FC
:101BCA00B1013108003A0319EB2DF92D3008003A1A
:101BDA000319B72D013A0319C02D033A0319CB2D66
:101BEA00013A0319D62DF92D8B3159238D318931BB
:101BFA0086218D3120000C108C103308B00004307F
:101C0A00B036890B052E300808388C318F248D3177
:101C1A00200033088C318F248D310800F800F90137
:101C2A00462E7508F6007608F9007508F60076085B
:101C3A002000DB005C2E7508403EF6007608F900AD
:101C4A007508143EF60076082000DB005C2E750845
:101C5A00143EF6007608F9007508283EF600760864
:101C6A002000DB005C2E7508543EF6007608F90069
:101C7A0075083C3EF60076082000DB005C2E5C2EE0
:101C8A005C2E7808F600F7017708003A03194E2E01
:101C9A005C2E7608003A0319162E013A0319202EF3
:101CAA00033A03192C2E013A0319382E5C2E8B3174
:101CBA002D238E3189317A218E3120000C108C101F
:101CCA007908F6000430F636890B682E760808384B
:101CDA008C3153248E3179088C3153248E3108008B
:101CEA0023008C110E118E100E100C108C100C117A
:101CFA0020008C110E118E100E100C108C100C116D
:101D0A0021000C108C100C118C110E118E100E105B
:101D1A0020000C108C100C114E302000B000EB305B
:101D2A00890B952EB00B952E03308C318F248E3172
:101D3A001A302000B000F830890BA12EB00BA12E6A
:101D4A00000003308C318F248E31C830890BAB2EC2
:101D5A0003308C318F248E310D30890BB22E000066
:101D6A0002308C318F248E310D30890BBA2E00004F
:101D7A0028308931B1218E310F302000B00030086F
:101D8A00DD000630B0003008DC005D088931B12181
:101D9A008E31893175218E3106308931B1218E31EA
:101DAA002000DB01DB0A0800FC0089317A218E3130
:101DBA0020000C148C100A307C06031DE52EE62E3A
:101DCA00332F14305B020318EB2EEC2EF22EF501A2
:101DDA0001308E3113268E31682F283020005B02A5
:101DEA000318F82EF92EFF2EF50102308E31132634
:101DFA008E31682F3C3020005B020318052F062F16
:101E0A000C2FF50103308E3113268E31682FF50120
:101E1A0000308E3113268E31682F682F682F682F75
:101E2A00682F332FF50101308E3113268E314A2F58
:101E3A00F50102308E3113268E314A2FF501033017
:101E4A008E3113268E314A2FF50100308E3113263A
:101E5A008E312000DB014A2F4A2F4A2F20005B08CF
:101E6A00FA00FB017B08003A03193C2F4A2F7A0833
:101E7A00143A0319172F3C3A03191D2F143A031960
:101E8A00232F6C3A0319292F4A2F8B312D238E3198
:101E9A0089317A218E3120000C148C107C08FA00CA
:101EAA000430FA36890B562F7A088C3153248E3136
:101EBA007C088C3153248E31003200320130FA0012
:101ECA007A082000DB0708002000B6008931862145
:101EDA008F3120000C148C100A303606031D762F21
:101EEA00772FC92F14305B0203187C2F7D2F832F85
:101EFA00AF0101308D31B3258F31FF2F28302000FB
:101F0A005B020318892F8A2F902FAF0102308D317F
:101F1A00B3258F31FF2F3C3020005B020318962F28
:101F2A00972F9D2FAF0103308D31B3258F31FF2FAE
:101F3A002000AF0100308D31B3258F31FF2FFF2FE5
:101F4A00FF2FFF2FFF2FC92F2000AF0101308D3146
:101F5A00B3258F31E02F2000AF0102308D31B32538
:101F6A008F31E02F2000AF0103308D31B3258F313F
:101F7A00E02F2000AF0100308D31B3258F312000D2
:101F8A00DB01E02FE02FE02F20005B08B400B50151
:101F9A003508003A0319D22FE02F3408143A0319EE
:101FAA00A92F3C3A0319B02F143A0319B72F6C3AE8
:101FBA000319BE2FE02F8B3159238F3189318621A6
:101FCA008F3120000C148C103608B4000430B4365B
:101FDA00890BEC2F34088C318F248F31200036087E
:101FEA008C318F248F310032003201302000B4004E
:101FFA003408DB070800413454342B344334573453
:10200A005334413450343D342234453453345034FB
:10201A005F34393439343434353442343534223443
:10202A002C34223431343234333434343534363483
:10203A003734383422342C34313431342C3430347B
:10204A000034483475346D34693464346934743412
:10205A00793420343A3420340034413454342B3423
:10206A00433457344D344F34443445343D34333497
:10207A0000340A34543465346D34703420343A34BC
:04208A0020340034CA
:020000040001F9
:04000E0082C7FFDDC9
:00000001FF
