:020000040000FA
:04000000813186299B
:100008007E1480312000911D0A280B283C2991116B
:1000180055080319102811283C292100271C1528E8
:100028001628DA282400141E1A281B282128210043
:1000380091112000D501D3013C29941D242825289D
:100048003B2820005308031D2A282B283B28530847
:10005800A73E860087010108240091002100A6011F
:10006800A60A01302000AF002F08D3073C2924003E
:10007800141C3F284028972811082000AF00580872
:10008800343E8600013087002F0881000130AF0020
:100098002F08D80724001410200054085802031809
:1000A800562857285A282400961294282400961671
:1000B80002302000AF002F082100A60022003708D8
:1000C8002000AF00B001220036082000B100B201C4
:1000D8003108B200B1012F0831072100A200200029
:1000E8003008323D2100A300220039082000AF006B
:1000F800B001220038082000B100B2013108B20076
:10010800B1012F0831072100A00020003008323D3E
:100118002100A10001302000AF002F08D707942844
:10012800240016163C29161B9A289B28AE28200066
:1001380053080319A028A128AE2854085802031808
:10014800A628A728AA28240096153C2924001615B5
:100158003C293C292400161FB228B328C7281613A7
:1001680003302000AF002F082100A600200053080C
:100178000319BF28C028C328240016153C292400C9
:1001880016153C293C294B302000AF002F08A5004C
:100198005C30A6009030A700A0308E31AB268031AD
:1001A8003C293C293C293C293C293C292400141E93
:1001B800DE28DF28E528210091112000D501D30190
:1001C8003C29941DE828E928002920005308031D2C
:1001D800EE28EF2800292100A601A60A20005308CE
:1001E800A73E860087010108240091000130200005
:1001F800AF002F08D3073C292400161B0429052922
:1002080028292000530803190A290B2928295508E9
:1002180053020318102911291E295308A73E8600E6
:10022800870101082400910001302000AF002F0849
:10023800D3073C292400161502302000AF002F08F0
:100248002100A6003C293C292400161F2C292D2911
:100258003C291613161503302000AF002F08210083
:10026800A6003C293C293C293C293C293C293C291D
:100278002000921D402941294F2992114B30AF008F
:100288002F08A5005530A6009030A700A0308E3169
:10029800AB2680314F292000111C53295429782975
:1002A8000130AF002F08D007111007305006031D8A
:1002B8005E295F2964294C309700833096006429B1
:1002C80008305006031D69296A297829D001D1010F
:1002D800D10A063021002406031D732974297829C0
:1002E800A4017829782978290B1D7B297C29842960
:1002F8000B1101302000AF002F082100A507842929
:100308007E1009008131882921008C319E24813199
:10031800C1008C319F248131C2008C31A0248131ED
:10032800C3008C31A1248131C4004D3084000030D9
:1003380085000F308C31B3248131A0308400003027
:1003480085001B308C31B32481312030840001308A
:10035800850032308C31B3248131A03084000130E3
:1003680085004B308C31B32481317E1020008131DF
:10037800BD292400BD01BE01BF01C001A03020007D
:10038800B4000130B5000030B600B7004B30B800FB
:100398000030B9008431A6248131783021009904D5
:1003A800033099048B132400CA01CB01C101CC018D
:1003B800BC01BC0ABA01BB01C201C301C401C50129
:1003C800C601C70120008C013F30980598113030D4
:1003D800980418111814210011141508F839023856
:1003E8009500951295118B1220008D0123008D0127
:1003F8000F3021008D000F3024008D00210095134F
:10040800A7302000B4000030B5000030B600B700B7
:100418001430B8000030B9008431A624813120009E
:10042800D501D30123008C0121008C018E01FF30FE
:100438008E0023008E110E1224001508F03908389A
:1004480095001F30920095169613161617179716D3
:1004580097159710171014130B1721009115921563
:100468008B178F31B02781318C31A2248131033031
:100478002000CC000830CB007730890B412ACB0B09
:10048800412ACC0B412A8C31D624813103302000FB
:10049800CC000830CB007730890B502ACB0B502A80
:1004A800CC0B502A8C31E124813103302000CC0060
:1004B8000830CB007730890B5F2ACB0B5F2ACC0B37
:1004C8005F2A8C31B924813103302000CC000830F8
:1004D800CB007730890B6E2ACB0B6E2ACC0B6E2A99
:1004E8008C31EC24813103302000CC000830CB0063
:1004F8007730890B7D2ACB0B7D2ACC0B7D2A2400F3
:10050800C801C901210044082400A50021004308AE
:100518002400A400210042082400A300210041086F
:100528002400A200A001A1018C31A22481318C31C8
:10053800B92481319C302000CB00D730890BA22A06
:10054800CB0BA22AA72A2100230824003E06031D5C
:10055800B12A2100220824003D06031DB42AB52A29
:10056800C42A2100210824004006031DBF2A2100B7
:10057800200824003F060319C22AC32A312BC42AA3
:10058800210023082400BE00210022082400BD0009
:10059800210021082400C000210020082400BF00F9
:1005A8002000B901023087313127813124003E080B
:1005B8002000BE0024003D082000BD002630CB00EE
:1005C8004B08BF008531772581314B302000CB00A7
:1005D8004B08C7004030C8009030C900A0308F31A8
:1005E800212781314B302000CB004B08C700263033
:1005F800C8000230C900A0308F3121278131240082
:1006080040082000BE0024003F082000BD0026301E
:10061800CB004B08BF008531772581314B30200056
:10062800CB004B08C7004C30C8009030C900A03040
:100638008F31212781314B302000CB004B08C70078
:100648002630C8000230C900A0308F3121278131FF
:10065800A0308E317D268131312B24004C083C0698
:100668000319372B382B332C4C082000CB004B08B0
:100678002400BC007C2B2000B901003087313127D1
:10068800813110302000C1009030C2008D31FA2530
:100698008131332C2000B901003087313127813175
:1006A80030302000C1009030C2008D31FA258131F0
:1006B800332C2000B90100308731312781312030B7
:1006C8002000C1009030C2008D31FA258131332CD1
:1006D8002000B901003087313127813100302000F6
:1006E800C1009030C2008D31FA258131332C332C72
:1006F80024004C082000CB00CC014C08003A031918
:10070800862B6C2B4B08003A03193F2B013A03192F
:100718004E2B033A03195D2B6C2B332C332C8D3164
:10072800D12581318C31C124813101302000CB00A9
:100738004B082100A4078B12200095012100A50178
:100748008B16472C023021002506031DAC2BAD2B40
:10075800472C01302000CB004B082100A4078B1246
:10076800472C472C033021002606031DBC2BBD2B2C
:10077800BF2BA401472C02302606031DC42BC52B12
:10078800472C8C31C12481318E31242681318C3122
:10079800C124813101302000CB004B082100A4077F
:1007A8008B12200095012100A5018B16472C472CA0
:1007B800472C023021002506031DE32BE42B472C90
:1007C80001302000CB004B082100A4078B12472CD6
:1007D800472C033021002606031DF32BF42BF62BA0
:1007E800A401472C02302606031DFB2BFC2B472CAB
:1007F80001302000CB004B082100A407472C472CD0
:10080800472C24004808023EC8000030493DC90072
:10081800043048064904031D122C132C162CC80159
:10082800C901162C13302000CB004B08B900033047
:1008380087313127813124004808223E2000C10039
:100848000230C2008D31FA25813101302000CB0001
:100858004B082100A407472C472C472C472C210084
:1008680024082000CB00CC014C08003A03193D2C89
:10087800472C4B088400073004020318472C8731A3
:100888000435EF3E820001302400BA070030BB3D3A
:1008980042302000CB004B08B4004130CC004C085B
:1008A800B5000D0801398F316427813144302000AB
:1008B800CB004B08B4004A30CC004C08B5000D0CF6
:1008C80001398F316427813146302000CB004B0835
:1008D800B4004B30CC004C08B5000D0C890C013924
:1008E8008F316427813124004A03031D7C2C7D2C21
:1008F800852CCA0101302000CB004B082400CC070E
:10090800852C4B03031D892C8A2C8E2CCB0101309E
:10091800CC028E2C4C0A031D922C932C9A2C02305C
:100928002000CB004B082400CC009A2C03304C0646
:10093800031D9F2CA02CA72ACC01A72AA72AA72AE7
:100948008131862920003508C1003408C0003808E4
:100958003904031DB02CB12CB32C762D762D40080C
:10096800860041088700360881003808FF3EBA0033
:10097800FF30393DBB003A084007BC003B08413D09
:10098800BD003C0886003D0887003608810000301D
:1009980039020330031938020318D32CD42CD62C6F
:1009A800762D762D4008013EBA000030413DBB004F
:1009B8003A0886003B088700360881004008023E56
:1009C800BA000030413DBB003A0886003B0887006A
:1009D800360881003808FE3EBA00FF30393DBB00BA
:1009E8003A084007BC003B08413DBD003C08860072
:1009F8003D088700360881003808FD3EBA00FF3000
:100A0800393DBB003A084007BC003B08413DBD00EA
:100A18003C0886003D08870036088100003039020E
:100A280007300319380203181A2D1B2D1D2D762D9A
:100A3800762D4008033EBA000030413DBB003A081D
:100A480086003B088700360881003808FC3EBA005B
:100A5800FF30393DBB003A084007BC003B08413D28
:100A6800BD003C0886003D0887003608810000303C
:100A780039020930031938020318432D442D462D35
:100A8800762D762D4009BA004109BB00BA0A031930
:100A9800BB0A03303A05BE0000303B05BF003E08E4
:100AA800C0073F08C13D3E08B8023F08B93BFC30CB
:100AB800B805FF30B9056F2D40088600410887004A
:100AC800360881000130B8020030B93B0130C00758
:100AD8000030C13D6F2D38083904031D742D752D64
:100AE800602D762D08002000C101BE1F7C2D7D2DB4
:100AF800852DC101C10ABD09BE09BD0A0319BE0A77
:100B0800852D6430B4000030B5003E08B7003D08BC
:100B1800B6008631C726853120003408C000400859
:100B2800C2006430B4000030B5003E08B7003D088C
:100B3800B60087319127853120003508BE0034087A
:100B4800BD000A30B4000030B5003E08B7003D08CB
:100B5800B6008631C726853120003408C000400819
:100B6800C3000A30B4000030B5003E08B7003D08A5
:100B7800B60087319127853120003508BE0034083A
:100B8800BD003D08C0004008C40041080319CD2D30
:100B9800CE2D032E2D30C0003F088600023087007E
:100BA800400881004208303EC0003F0A86000230FB
:100BB8008700400881004308303EC0003F08023EDD
:100BC800860002308700400881002C30C0003F08B2
:100BD800033E860002308700400881004408303E0A
:100BE800C0003F08043E86000230870040088100AC
:100BF8003F08053E86000230870081012F2E4208FB
:100C0800303EC0003F08860002308700400881005F
:100C18004308303EC0003F0A860002308700400883
:100C280081002C30C0003F08023E86000230870059
:100C3800400881004408303EC0003F08033E86005B
:100C480002308700400881003F08043E86000230D9
:100C5800870081012F2E08002000C0008C31A724B6
:100C6800863120000C168C130A304006031D3D2ED9
:100C78003E2E902E143059020318432E442E4A2E2D
:100C8800B9010130873131278631C62E283020003E
:100C980059020318502E512E572EB90102308731B0
:100CA80031278631C62E3C302000590203185D2EAC
:100CB8005E2E642EB9010330873131278631C62E66
:100CC8002000B9010030873131278631C62EC62E63
:100CD800C62EC62EC62E902E2000B90101308731AF
:100CE80031278631A72E2000B901023087313127FC
:100CF8008631A72E2000B90103308731312786318C
:100D0800A72E2000B9010030873131278631200015
:100D1800D901A72EA72EA72E20005908BE00BF0173
:100D28003F08003A0319992EA72E3E08143A0319D2
:100D3800702E3C3A0319772E143A03197E2E6C3A1A
:100D48000319852EA72E8E31502686318C31A72483
:100D5800863120000C168C134008BE000430BE36C5
:100D6800890BB32E3E088E31E526863120004008D7
:100D78008E31E52686310032003201302000BE0077
:100D88003E08D90708002000BA01B51FCC2ECD2E89
:100D9800D52EB409B509B40A0319B50ABA01BA0AB5
:100DA800D52EB71FD82ED92EE32EB609B709B60A05
:100DB8000319B70A0130B8003808BA06E32EBB0198
:100DC800BC01340835040319EA2EEB2E202FB90193
:100DD800B90AF82E0130B435B50D890BEF2E013064
:100DE800B8003808B907F82EB51FFB2EFC2EEE2EDA
:100DF800FE2EFE2E0130BB35BC0D890BFF2E3508AB
:100E08003702031D092F34083602031C0C2F0D2F3F
:100E1800132F3408B6023508B73B3B14132F0130A3
:100E2800B536B40C890B142F0130B902031D1D2FE0
:100E38001E2FFE2E202F202F3A080319242F252F8E
:100E48002B2FBB09BC09BB0A0319BC0A2B2F3C0872
:100E5800B5003B08B400302F08002000BC00BD01DD
:100E6800612F3908BA003A08BD003908BA003A08B3
:100E7800D900772F3908403EBA003A08BD00390832
:100E8800143EBA003A08D900772F3908143EBA0040
:100E98003A08BD003908283EBA003A08D900772F29
:100EA8003908543EBA003A08BD0039083C3EBA0039
:100EB8003A08D900772F772F772F3C08BA00BB0163
:100EC8003B08003A0319692F772F3A08003A0319AB
:100ED800352F013A03193E2F033A0319492F013AD6
:100EE8000319542F772F8E31502687318C31A72440
:100EF800873120000C128C133D08BA000430BA3632
:100F0800890B832F3A0808388E31E526873120006F
:100F18003D088E31E526873108002000BA01B71F49
:100F2800962F972F9F2FB609B709B60A0319B70A44
:100F3800BA01BA0A9F2FB51FA22FA32FA92FB40950
:100F4800B509B40A0319B50AA92F340835040319D9
:100F5800AE2FAF2FDE2FB901B90ABC2F0130B4353F
:100F6800B50D890BB32F0130B8003808B907BC2F6D
:100F7800B51FBF2FC02FB22FC22FC22F350837027F
:100F8800031DC82F34083602031CCB2FCC2FD12FBA
:100F98003408B6023508B73BD12F0130B536B40C4A
:100FA800890BD22F0130B902031DDB2FDC2FC22F92
:100FB800DE2FDE2F3A080319E22FE32FE92FB609B7
:100FC800B709B60A0319B70AE92F3708B500360872
:100FD800B400EE2F08008331932B8331A62B833185
:100FE800B62B8331DD2B8331ED2B8431052C8431F5
:020FF800472C84
:10193C002B3400347834003401308C31CB248C318E
:10194C00080021008C110C118C100C1008002100C7
:10195C008C150C158C140C140800640080010131DA
:10196C00890BB42C003402308C31CB248C31200008
:10197C00D901D90A080020008D1EC52CC62CC82CF4
:10198C008D12CA2C8D16CA2C08002000B9008E317D
:10199C0050268C31200039088C31F7248C3108000A
:1019AC0020005B080438BA003A08DB005B088C3175
:1019BC00CB248C31080020005B08FD39BA003A08B2
:1019CC00DB005B088C31CB248C31080020005B08D9
:1019DC00FE39BA003A08DB005B088C31CB248C3121
:1019EC0008002000B8008C31A7248C3120000C1288
:1019FC008C133808B7000430B736890B022D370822
:101A0C008E31E5268C31200038088E31E5268C315C
:101A1C0008002000A4002108F7002008F600240884
:101A2C00F0000130F1008D3141258D31700820001E
:101A3C00A2007108A300240822078D3164258D3182
:101A4C00272D08002000C6004308BB004208BA003E
:101A5C004608B4000130B5008D3188258D31200049
:101A6C003408C4003508C500460844078D31AC2540
:101A7C008D31402D08007108F5007008F4004B2DD5
:101A8C000130F0070030F13D4B2D700884007108D7
:101A9C0085001200031D532D542D462D552D740910
:101AAC00F2007509F300F20A0319F30A70087207C1
:101ABC00F0007108733DF100632D0800FC007708FD
:101ACC00FB007608FA007C08F8007808FD006F2D02
:101ADC006F2D7D08860001308700FD0A7B08F90018
:101AEC007A08F800FA0A0319FB0A780884007908C6
:101AFC0085000008C03F8908031D852D862D6F2D9C
:101B0C00872D080020003508B9003408B800932D43
:101B1C000130B4070030B53D932D340884003508EE
:101B2C0085001200031D9B2D9C2D8E2D9D2D38099B
:101B3C00B6003909B700B60A0319B70A34083607D4
:101B4C00B4003508373DB500AB2D08002000C100AE
:101B5C003B08BF003A08BE004108BC003C08C0006E
:101B6C00B82DB82D4008860001308700C00A3F0808
:101B7C00BD003E08BC00BE0A0319BF0A3C08840025
:101B8C003D0885000008C03F8908031DCE2DCF2DD0
:101B9C00B82DD02D08002000D2015508031DD72DDB
:101BAC00D82DF92D2100911524009717B83020005D
:101BBC00B40034082100A70003302000B40034081E
:101BCC002100A800A90104302000B4003408210031
:101BDC00AA0004302000B4003408D5002100A6016E
:101BEC0024001614F92D08002000C601122E4208FC
:101BFC00C4004108C3004608430784004408031886
:101C0C00440A85000008863130268D3101302000D1
:101C1C00C3004308C607122E4208C4004108C30083
:101C2C0046084307840044080318440A8500120040
:101C3C00031D212E222EFD2D232E08002000D20163
:101C4C005508031D2A2E2B2E4F2E210091153430B2
:101C5C002000B4000130B5000030B600B7001E30D3
:101C6C00B8000030B9008431A6248E312000D80190
:101C7C00B930C20042082100A70008302000C20081
:101C8C004208D400D501D50A2100A601240016145F
:101C9C004F2E080020000C128C178C31AD248E3185
:101CAC0001302000B7000030B800742E8C160032C2
:101CBC00003220000C0CB400B40C340C0139B5000B
:101CCC00B6013508B7003608B8008C120032003265
:101CDC000032003220008C16003200322000370314
:101CEC00380403197A2E7B2E5C2E7C2E08002000E3
:101CFC00CA004A08B4000130B5008D3188258E31F8
:101D0C0020003408C7004708C900490803198F2E62
:101D1C00902EAA2E4A08C1000130C2008D31FA253E
:101D2C008E3120004A08B4000130B5000030B600F6
:101D3C00B7004908C700C8014708B8004808B900EF
:101D4C008431A6248E31AA2E08002000AE002E0865
:101D5C00F0000130F1008D3141258E3170092000E9
:101D6C00A8007109A900A80A0319A90A25082807BF
:101D7C00AA0029080318290AAB002A08FF3EAC0068
:101D8C00FF302B3DAD002708F1002608F0008D3107
:101D9C0041258E3120002D087102031DD72E2C08F1
:101DAC0070020318DA2EDB2EE42E2708A100260879
:101DBC00A0002E088D310F258E31E42E0800200056
:101DCC00B6008C163608B4000330B436890BEB2EF3
:101DDC0034080139B500B50DB50DB50D0C08350637
:101DEC00F73935068C003608B4000230B436890B4E
:101DFC00FC2E34080139B500B50DB50D0C083506AF
:101E0C00FB3935068C0036360139B400B40D0C089C
:101E1C003406FD3934068C0001303605B4000C084C
:101E2C003406FE3934068C000032003220008C124D
:101E3C000032003208002000CA004A08B400013009
:101E4C00B5008D3188258F31200034092100BB006D
:101E5C00200035092100BC00BB0A0319BC0A200074
:101E6C00470821003B07BD003C0803183C0ABE0094
:101E7C003D08FF3EBF00FF303E3DC000200049083A
:101E8C00B5004808B4008D3188258F3121004008F9
:101E9C0020003502031D562F21003F08200034027C
:101EAC000318592F5A2F632F4908C3004808C20042
:101EBC004A088D3128258F31632F08002000B80087
:101ECC003808031D6A2F6B2F752F340886000230DB
:101EDC0087000130810741310318810A7D2F3408B6
:101EEC008600023087000030C03FC13F7D2F340890
:101EFC008600023087001600D03AB6001600073A6A
:101F0C00B604031D8A2F8B2F922F350886000230C2
:101F1C0087008101810A922F3408860002308700E5
:101F2C001600403AB60016001F3AB604031D9F2F48
:101F3C00A02FAF2F3408860002308700D130C03F6D
:101F4C000730C13F35088600023087008101810AC5
:101F5C00AF2F080021000C128C138C1220000C12D5
:101F6C008C138C124E302000BA00EB30890BBC2F36
:101F7C00BA0BBC2F03308E31E5268F311A3020007E
:101F8C00BA00F830890BC82FBA0BC82F00000330E9
:101F9C008E31E5268F31C830890BD22F03308E312C
:101FAC00E5268F310D30890BD92F000002308E3190
:101FBC00E5268F310D30890BE12F000028308C3154
:101FCC00CB248F310F302000BA003A08DB000630EA
:101FDC00BA003A08DA005B088C31CB248F318C3193
:101FEC00A2248F3106308C31CB248F312000D901C3
:101FFC00D90A080057345434463420342034203461
:10200C002034203420342034203420342034203424
:10201C002034003448346F346D346534203420342B
:10202C002034203420342034203420342034203404
:10203C002034003453346534743420344D346F34CC
:10204C00643465343A342034203420342034203441
:10205C0020340034533465347434203454346534AF
:10206C006D3470343A34203420342034203420340D
:10207C0020340034483475346D3469346434693434
:10208C007434793420343A34203400340A345434DF
:10209C0065346D34703420343A34203400342C34AC
:1020AC00423443344C344934463400342C344E34AA
:0420BC003834003480
:020000040001F9
:04000E0084C7FFDDC7
:00000001FF
